{
  "_format": "hh-sol-artifact-1",
  "contractName": "PortraitAccessRegistry",
  "sourceName": "contracts/l2/PortraitAccessRegistry.sol",
  "abi": [
    {
      "inputs": [],
      "stateMutability": "nonpayable",
      "type": "constructor"
    },
    {
      "inputs": [
        {
          "internalType": "address",
          "name": "target",
          "type": "address"
        }
      ],
      "name": "AddressEmptyCode",
      "type": "error"
    },
    {
      "inputs": [
        {
          "internalType": "address",
          "name": "implementation",
          "type": "address"
        }
      ],
      "name": "ERC1967InvalidImplementation",
      "type": "error"
    },
    {
      "inputs": [],
      "name": "ERC1967NonPayable",
      "type": "error"
    },
    {
      "inputs": [],
      "name": "EnforcedPause",
      "type": "error"
    },
    {
      "inputs": [],
      "name": "ExpectedPause",
      "type": "error"
    },
    {
      "inputs": [],
      "name": "ExpiredSignature",
      "type": "error"
    },
    {
      "inputs": [],
      "name": "FailedInnerCall",
      "type": "error"
    },
    {
      "inputs": [],
      "name": "InvalidAction",
      "type": "error"
    },
    {
      "inputs": [],
      "name": "InvalidAddress",
      "type": "error"
    },
    {
      "inputs": [],
      "name": "InvalidArrayLength",
      "type": "error"
    },
    {
      "inputs": [],
      "name": "InvalidInitialization",
      "type": "error"
    },
    {
      "inputs": [],
      "name": "InvalidRole",
      "type": "error"
    },
    {
      "inputs": [],
      "name": "InvalidSignature",
      "type": "error"
    },
    {
      "inputs": [],
      "name": "MaxDelegatesReached",
      "type": "error"
    },
    {
      "inputs": [],
      "name": "NoRole",
      "type": "error"
    },
    {
      "inputs": [],
      "name": "NotInitializing",
      "type": "error"
    },
    {
      "inputs": [
        {
          "internalType": "address",
          "name": "owner",
          "type": "address"
        }
      ],
      "name": "OwnableInvalidOwner",
      "type": "error"
    },
    {
      "inputs": [
        {
          "internalType": "address",
          "name": "account",
          "type": "address"
        }
      ],
      "name": "OwnableUnauthorizedAccount",
      "type": "error"
    },
    {
      "inputs": [],
      "name": "UUPSUnauthorizedCallContext",
      "type": "error"
    },
    {
      "inputs": [
        {
          "internalType": "bytes32",
          "name": "slot",
          "type": "bytes32"
        }
      ],
      "name": "UUPSUnsupportedProxiableUUID",
      "type": "error"
    },
    {
      "inputs": [],
      "name": "Unauthorized",
      "type": "error"
    },
    {
      "anonymous": false,
      "inputs": [
        {
          "indexed": true,
          "internalType": "address",
          "name": "owner",
          "type": "address"
        },
        {
          "indexed": true,
          "internalType": "address",
          "name": "delegate",
          "type": "address"
        },
        {
          "indexed": false,
          "internalType": "bool",
          "name": "hasAssigned",
          "type": "bool"
        },
        {
          "indexed": false,
          "internalType": "bool",
          "name": "hasAccepted",
          "type": "bool"
        }
      ],
      "name": "DelegateToggled",
      "type": "event"
    },
    {
      "anonymous": false,
      "inputs": [
        {
          "indexed": false,
          "internalType": "uint64",
          "name": "version",
          "type": "uint64"
        }
      ],
      "name": "Initialized",
      "type": "event"
    },
    {
      "anonymous": false,
      "inputs": [
        {
          "indexed": true,
          "internalType": "address",
          "name": "previousOwner",
          "type": "address"
        },
        {
          "indexed": true,
          "internalType": "address",
          "name": "newOwner",
          "type": "address"
        }
      ],
      "name": "OwnershipTransferred",
      "type": "event"
    },
    {
      "anonymous": false,
      "inputs": [
        {
          "indexed": false,
          "internalType": "address",
          "name": "account",
          "type": "address"
        }
      ],
      "name": "Paused",
      "type": "event"
    },
    {
      "anonymous": false,
      "inputs": [
        {
          "indexed": false,
          "internalType": "address",
          "name": "account",
          "type": "address"
        }
      ],
      "name": "Unpaused",
      "type": "event"
    },
    {
      "anonymous": false,
      "inputs": [
        {
          "indexed": true,
          "internalType": "address",
          "name": "implementation",
          "type": "address"
        }
      ],
      "name": "Upgraded",
      "type": "event"
    },
    {
      "inputs": [],
      "name": "CONTRACT_NAME",
      "outputs": [
        {
          "internalType": "string",
          "name": "",
          "type": "string"
        }
      ],
      "stateMutability": "view",
      "type": "function"
    },
    {
      "inputs": [],
      "name": "UPGRADE_INTERFACE_VERSION",
      "outputs": [
        {
          "internalType": "string",
          "name": "",
          "type": "string"
        }
      ],
      "stateMutability": "view",
      "type": "function"
    },
    {
      "inputs": [],
      "name": "VERSION",
      "outputs": [
        {
          "internalType": "uint256",
          "name": "",
          "type": "uint256"
        }
      ],
      "stateMutability": "view",
      "type": "function"
    },
    {
      "inputs": [],
      "name": "delegateServiceAddress",
      "outputs": [
        {
          "internalType": "address",
          "name": "",
          "type": "address"
        }
      ],
      "stateMutability": "view",
      "type": "function"
    },
    {
      "inputs": [
        {
          "internalType": "address",
          "name": "owner",
          "type": "address"
        },
        {
          "internalType": "address",
          "name": "potentialDelegate",
          "type": "address"
        }
      ],
      "name": "getOwnerToAddressToDelegateData",
      "outputs": [
        {
          "components": [
            {
              "internalType": "bool",
              "name": "hasAssigned",
              "type": "bool"
            },
            {
              "internalType": "bool",
              "name": "hasAccepted",
              "type": "bool"
            }
          ],
          "internalType": "struct IPortraitAccessRegistry.DelegateData",
          "name": "delegateData",
          "type": "tuple"
        }
      ],
      "stateMutability": "view",
      "type": "function"
    },
    {
      "inputs": [
        {
          "internalType": "address",
          "name": "initialOwner",
          "type": "address"
        },
        {
          "internalType": "address",
          "name": "portraitContractRegistryAddress",
          "type": "address"
        }
      ],
      "name": "initialize",
      "outputs": [],
      "stateMutability": "nonpayable",
      "type": "function"
    },
    {
      "inputs": [
        {
          "internalType": "address",
          "name": "owner",
          "type": "address"
        },
        {
          "internalType": "address",
          "name": "delegate",
          "type": "address"
        }
      ],
      "name": "isDelegateOfAddress",
      "outputs": [
        {
          "internalType": "bool",
          "name": "isDelegate",
          "type": "bool"
        }
      ],
      "stateMutability": "view",
      "type": "function"
    },
    {
      "inputs": [
        {
          "internalType": "uint256",
          "name": "portraitId",
          "type": "uint256"
        },
        {
          "internalType": "address",
          "name": "delegate",
          "type": "address"
        }
      ],
      "name": "isDelegateOfPortraitId",
      "outputs": [
        {
          "internalType": "bool",
          "name": "isDelegate",
          "type": "bool"
        }
      ],
      "stateMutability": "view",
      "type": "function"
    },
    {
      "inputs": [
        {
          "internalType": "uint256",
          "name": "portraitId",
          "type": "uint256"
        },
        {
          "internalType": "address",
          "name": "caller",
          "type": "address"
        }
      ],
      "name": "isDelegateOrOwnerOfPortraitId",
      "outputs": [
        {
          "internalType": "bool",
          "name": "isDelegateOrOwner",
          "type": "bool"
        }
      ],
      "stateMutability": "view",
      "type": "function"
    },
    {
      "inputs": [],
      "name": "maxDelegates",
      "outputs": [
        {
          "internalType": "uint256",
          "name": "",
          "type": "uint256"
        }
      ],
      "stateMutability": "view",
      "type": "function"
    },
    {
      "inputs": [],
      "name": "owner",
      "outputs": [
        {
          "internalType": "address",
          "name": "",
          "type": "address"
        }
      ],
      "stateMutability": "view",
      "type": "function"
    },
    {
      "inputs": [
        {
          "internalType": "address",
          "name": "",
          "type": "address"
        },
        {
          "internalType": "address",
          "name": "",
          "type": "address"
        }
      ],
      "name": "ownerToAddressToDelegateData",
      "outputs": [
        {
          "internalType": "bool",
          "name": "hasAssigned",
          "type": "bool"
        },
        {
          "internalType": "bool",
          "name": "hasAccepted",
          "type": "bool"
        }
      ],
      "stateMutability": "view",
      "type": "function"
    },
    {
      "inputs": [
        {
          "internalType": "address",
          "name": "",
          "type": "address"
        }
      ],
      "name": "ownerToAmountOfDelegates",
      "outputs": [
        {
          "internalType": "uint256",
          "name": "",
          "type": "uint256"
        }
      ],
      "stateMutability": "view",
      "type": "function"
    },
    {
      "inputs": [],
      "name": "pause",
      "outputs": [],
      "stateMutability": "nonpayable",
      "type": "function"
    },
    {
      "inputs": [],
      "name": "paused",
      "outputs": [
        {
          "internalType": "bool",
          "name": "",
          "type": "bool"
        }
      ],
      "stateMutability": "view",
      "type": "function"
    },
    {
      "inputs": [],
      "name": "portraitContractRegistry",
      "outputs": [
        {
          "internalType": "contract IPortraitContractRegistry",
          "name": "",
          "type": "address"
        }
      ],
      "stateMutability": "view",
      "type": "function"
    },
    {
      "inputs": [],
      "name": "portraitIdRegistry",
      "outputs": [
        {
          "internalType": "contract IPortraitIdRegistry",
          "name": "",
          "type": "address"
        }
      ],
      "stateMutability": "view",
      "type": "function"
    },
    {
      "inputs": [],
      "name": "portraitSigValidator",
      "outputs": [
        {
          "internalType": "contract PortraitSigValidator",
          "name": "",
          "type": "address"
        }
      ],
      "stateMutability": "view",
      "type": "function"
    },
    {
      "inputs": [],
      "name": "proxiableUUID",
      "outputs": [
        {
          "internalType": "bytes32",
          "name": "",
          "type": "bytes32"
        }
      ],
      "stateMutability": "view",
      "type": "function"
    },
    {
      "inputs": [],
      "name": "renounceOwnership",
      "outputs": [],
      "stateMutability": "nonpayable",
      "type": "function"
    },
    {
      "inputs": [
        {
          "internalType": "address",
          "name": "newDelegateServiceAddress",
          "type": "address"
        }
      ],
      "name": "setDelegateServiceAddress",
      "outputs": [],
      "stateMutability": "nonpayable",
      "type": "function"
    },
    {
      "inputs": [
        {
          "internalType": "uint256",
          "name": "newMaxDelegates",
          "type": "uint256"
        }
      ],
      "name": "setMaxDelegates",
      "outputs": [],
      "stateMutability": "nonpayable",
      "type": "function"
    },
    {
      "inputs": [
        {
          "internalType": "address",
          "name": "owner",
          "type": "address"
        },
        {
          "internalType": "address",
          "name": "delegate",
          "type": "address"
        }
      ],
      "name": "toggleDelegate",
      "outputs": [
        {
          "components": [
            {
              "internalType": "bool",
              "name": "hasAssigned",
              "type": "bool"
            },
            {
              "internalType": "bool",
              "name": "hasAccepted",
              "type": "bool"
            }
          ],
          "internalType": "struct IPortraitAccessRegistry.DelegateData",
          "name": "delegateData",
          "type": "tuple"
        }
      ],
      "stateMutability": "nonpayable",
      "type": "function"
    },
    {
      "inputs": [
        {
          "internalType": "address",
          "name": "owner",
          "type": "address"
        },
        {
          "internalType": "address[]",
          "name": "delegates",
          "type": "address[]"
        }
      ],
      "name": "toggleDelegateArray",
      "outputs": [],
      "stateMutability": "nonpayable",
      "type": "function"
    },
    {
      "inputs": [
        {
          "internalType": "address",
          "name": "caller",
          "type": "address"
        },
        {
          "internalType": "address",
          "name": "owner",
          "type": "address"
        },
        {
          "internalType": "address",
          "name": "delegate",
          "type": "address"
        },
        {
          "internalType": "bool",
          "name": "currentHasAssigned",
          "type": "bool"
        },
        {
          "internalType": "uint256",
          "name": "deadline",
          "type": "uint256"
        },
        {
          "internalType": "bytes",
          "name": "sig",
          "type": "bytes"
        }
      ],
      "name": "toggleDelegateFor",
      "outputs": [
        {
          "components": [
            {
              "internalType": "bool",
              "name": "hasAssigned",
              "type": "bool"
            },
            {
              "internalType": "bool",
              "name": "hasAccepted",
              "type": "bool"
            }
          ],
          "internalType": "struct IPortraitAccessRegistry.DelegateData",
          "name": "delegateData",
          "type": "tuple"
        }
      ],
      "stateMutability": "nonpayable",
      "type": "function"
    },
    {
      "inputs": [
        {
          "internalType": "address",
          "name": "owner",
          "type": "address"
        },
        {
          "internalType": "address",
          "name": "delegate",
          "type": "address"
        }
      ],
      "name": "toggleDelegateRequest",
      "outputs": [
        {
          "components": [
            {
              "internalType": "bool",
              "name": "hasAssigned",
              "type": "bool"
            },
            {
              "internalType": "bool",
              "name": "hasAccepted",
              "type": "bool"
            }
          ],
          "internalType": "struct IPortraitAccessRegistry.DelegateData",
          "name": "delegateData",
          "type": "tuple"
        }
      ],
      "stateMutability": "nonpayable",
      "type": "function"
    },
    {
      "inputs": [
        {
          "internalType": "address",
          "name": "owner",
          "type": "address"
        },
        {
          "internalType": "address[]",
          "name": "delegates",
          "type": "address[]"
        }
      ],
      "name": "toggleDelegateRequestArray",
      "outputs": [],
      "stateMutability": "nonpayable",
      "type": "function"
    },
    {
      "inputs": [
        {
          "internalType": "address",
          "name": "caller",
          "type": "address"
        },
        {
          "internalType": "address",
          "name": "owner",
          "type": "address"
        },
        {
          "internalType": "address",
          "name": "delegate",
          "type": "address"
        },
        {
          "internalType": "bool",
          "name": "currentHasAccepted",
          "type": "bool"
        },
        {
          "internalType": "uint256",
          "name": "deadline",
          "type": "uint256"
        },
        {
          "internalType": "bytes",
          "name": "sig",
          "type": "bytes"
        }
      ],
      "name": "toggleDelegateRequestFor",
      "outputs": [
        {
          "components": [
            {
              "internalType": "bool",
              "name": "hasAssigned",
              "type": "bool"
            },
            {
              "internalType": "bool",
              "name": "hasAccepted",
              "type": "bool"
            }
          ],
          "internalType": "struct IPortraitAccessRegistry.DelegateData",
          "name": "delegateData",
          "type": "tuple"
        }
      ],
      "stateMutability": "nonpayable",
      "type": "function"
    },
    {
      "inputs": [
        {
          "internalType": "address",
          "name": "newOwner",
          "type": "address"
        }
      ],
      "name": "transferOwnership",
      "outputs": [],
      "stateMutability": "nonpayable",
      "type": "function"
    },
    {
      "inputs": [],
      "name": "unpause",
      "outputs": [],
      "stateMutability": "nonpayable",
      "type": "function"
    },
    {
      "inputs": [],
      "name": "updateProtocolContracts",
      "outputs": [],
      "stateMutability": "nonpayable",
      "type": "function"
    },
    {
      "inputs": [
        {
          "internalType": "address",
          "name": "newImplementation",
          "type": "address"
        },
        {
          "internalType": "bytes",
          "name": "data",
          "type": "bytes"
        }
      ],
      "name": "upgradeToAndCall",
      "outputs": [],
      "stateMutability": "payable",
      "type": "function"
    },
    {
      "inputs": [
        {
          "internalType": "address",
          "name": "signer",
          "type": "address"
        },
        {
          "internalType": "address",
          "name": "owner",
          "type": "address"
        },
        {
          "internalType": "address",
          "name": "delegate",
          "type": "address"
        },
        {
          "internalType": "bool",
          "name": "currentHasAssigned",
          "type": "bool"
        },
        {
          "internalType": "uint256",
          "name": "deadline",
          "type": "uint256"
        },
        {
          "internalType": "bytes",
          "name": "sig",
          "type": "bytes"
        }
      ],
      "name": "verifyToggleDelegateFor",
      "outputs": [
        {
          "internalType": "bool",
          "name": "isValid",
          "type": "bool"
        }
      ],
      "stateMutability": "nonpayable",
      "type": "function"
    },
    {
      "inputs": [
        {
          "internalType": "address",
          "name": "signer",
          "type": "address"
        },
        {
          "internalType": "address",
          "name": "owner",
          "type": "address"
        },
        {
          "internalType": "address",
          "name": "delegate",
          "type": "address"
        },
        {
          "internalType": "bool",
          "name": "currentHasAccepted",
          "type": "bool"
        },
        {
          "internalType": "uint256",
          "name": "deadline",
          "type": "uint256"
        },
        {
          "internalType": "bytes",
          "name": "sig",
          "type": "bytes"
        }
      ],
      "name": "verifyToggleDelegateRequestFor",
      "outputs": [
        {
          "internalType": "bool",
          "name": "isValid",
          "type": "bool"
        }
      ],
      "stateMutability": "nonpayable",
      "type": "function"
    }
  ],
  "bytecode": "0x60a06040523060805234801561001457600080fd5b5061001d610022565b6100d4565b7ff0c57e16840df040f15088dc2f81fe391c3923bec73e23a9662efc9c229c6a00805468010000000000000000900460ff16156100725760405163f92ee8a960e01b815260040160405180910390fd5b80546001600160401b03908116146100d15780546001600160401b0319166001600160401b0390811782556040519081527fc7f505b2f371ae2175ee4913f4499e1f2633a7b5936321eed1cdaeb6115181d29060200160405180910390a15b50565b6080516124bb620000fe600039600081816117d7015281816118000152611af801526124bb6000f3fe6080604052600436106101f95760003560e01c806365cb693f1161010d5780638da5cb5b116100a0578063de695dbd1161006f578063de695dbd146106aa578063e1fd2d5e146106ca578063f2fde38b146106ea578063fcf270ea1461070a578063ffa1ad741461072a57600080fd5b80638da5cb5b146105fc57806391a21f3114610639578063ad3cb1cc14610659578063b6b181d01461068a57600080fd5b80637ec0faf4116100dc5780637ec0faf41461053357806381933dce146105535780638456cb59146105c757806388c5d897146105dc57600080fd5b806365cb693f146104b15780636b578185146104d1578063715018a6146104f15780637eb2d6ad1461050657600080fd5b8063485cc9551161019057806355656ab41161015f57806355656ab4146103ad57806359342d5f146104085780635c975abb146104285780635df88e2a1461044d578063614d08f81461046257600080fd5b8063485cc955146103455780634f1ef2861461036557806350cf33e71461037857806352d1902d1461039857600080fd5b8063245c7aa6116101cc578063245c7aa6146102b4578063289c26f7146102ec5780632bef7d2f146103105780633f4ba83a1461033057600080fd5b8063023fbf68146101fe5780630fa5f3e114610242578063129317671461026457806321eca34a14610294575b600080fd5b34801561020a57600080fd5b5061021e610219366004611f44565b61073f565b60408051825115158152602092830151151592810192909252015b60405180910390f35b34801561024e57600080fd5b5061026261025d36600461200b565b610796565b005b34801561027057600080fd5b5061028461027f366004611f44565b6107e7565b6040519015158152602001610239565b3480156102a057600080fd5b5061021e6102af366004612028565b6107f8565b3480156102c057600080fd5b506002546102d4906001600160a01b031681565b6040516001600160a01b039091168152602001610239565b3480156102f857600080fd5b5061030260045481565b604051908152602001610239565b34801561031c57600080fd5b5061028461032b366004612061565b610826565b34801561033c57600080fd5b506102626108af565b34801561035157600080fd5b50610262610360366004612028565b6108c1565b61026261037336600461209c565b610cb3565b34801561038457600080fd5b5061021e610393366004611f44565b610cd2565b3480156103a457600080fd5b50610302610d1d565b3480156103b957600080fd5b506103f16103c8366004612028565b600560209081526000928352604080842090915290825290205460ff8082169161010090041682565b604080519215158352901515602083015201610239565b34801561041457600080fd5b5061021e610423366004612028565b610d3a565b34801561043457600080fd5b506000805160206124668339815191525460ff16610284565b34801561045957600080fd5b50610262610d61565b34801561046e57600080fd5b506104a460405180604001604052806016815260200175506f727472616974416363657373526567697374727960501b81525081565b60405161023991906121b0565b3480156104bd57600080fd5b506000546102d4906001600160a01b031681565b3480156104dd57600080fd5b506102626104ec3660046121c3565b610e7a565b3480156104fd57600080fd5b50610262610e87565b34801561051257600080fd5b5061030261052136600461200b565b60066020526000908152604090205481565b34801561053f57600080fd5b5061028461054e366004612061565b610e99565b34801561055f57600080fd5b5061021e61056e366004612028565b604080518082018252600080825260209182018190526001600160a01b039485168152600582528281209390941684529182529182902082518084019093525460ff808216151584526101009091041615159082015290565b3480156105d357600080fd5b50610262610ea5565b3480156105e857600080fd5b506001546102d4906001600160a01b031681565b34801561060857600080fd5b507f9016d09d72d40fdae2fd8ceac6b6234c7706214fd39c1cd1e609a0528c199300546001600160a01b03166102d4565b34801561064557600080fd5b506003546102d4906001600160a01b031681565b34801561066557600080fd5b506104a4604051806040016040528060058152602001640352e302e360dc1b81525081565b34801561069657600080fd5b506102626106a53660046121dc565b610eb5565b3480156106b657600080fd5b506102846106c5366004612028565b610f08565b3480156106d657600080fd5b506102846106e5366004611f44565b610f14565b3480156106f657600080fd5b5061026261070536600461200b565b610f25565b34801561071657600080fd5b506102626107253660046121dc565b610f68565b34801561073657600080fd5b50610302600181565b604080518082019091526000808252602082015261076288888888888888610fb5565b61077f57604051638baa579f60e01b815260040160405180910390fd5b61078a8888886111ca565b98975050505050505050565b61079e611331565b6001600160a01b0381166107c55760405163e6c4247b60e01b815260040160405180910390fd5b600380546001600160a01b0319166001600160a01b0392909216919091179055565b600061078a88888888888888610fb5565b604080518082019091526000808252602082015261081461138c565b61081f3384846113bd565b9392505050565b600154604051630e24ba4360e11b81526004810184905260009182916001600160a01b0390911690631c49748690602401602060405180830381865afa158015610874573d6000803e3d6000fd5b505050506040513d601f19601f820116820180604052508101906108989190612264565b905060006108a682856116b1565b95945050505050565b6108b7611331565b6108bf6116fa565b565b7ff0c57e16840df040f15088dc2f81fe391c3923bec73e23a9662efc9c229c6a008054600160401b810460ff16159067ffffffffffffffff166000811580156109075750825b905060008267ffffffffffffffff1660011480156109245750303b155b905081158015610932575080155b156109505760405163f92ee8a960e01b815260040160405180910390fd5b845467ffffffffffffffff19166001178555831561097a57845460ff60401b1916600160401b1785555b6001600160a01b0386166109a15760405163e6c4247b60e01b815260040160405180910390fd5b6001600160a01b0387166109c85760405163e6c4247b60e01b815260040160405180910390fd5b6109d061175a565b6109d98761176a565b6109e161177b565b600380546001600160a01b03808a166001600160a01b031992831617909255600560045560008054898416921691909117905560015416610b345760008054604080516388c5d89760e01b8152905183926001600160a01b0316916388c5d8979160048083019260209291908290030181865afa158015610a66573d6000803e3d6000fd5b505050506040513d601f19601f82011682018060405250810190610a8a9190612264565b6001600160a01b03161480159150610b325760008054906101000a90046001600160a01b03166001600160a01b03166388c5d8976040518163ffffffff1660e01b8152600401602060405180830381865afa158015610aed573d6000803e3d6000fd5b505050506040513d601f19601f82011682018060405250810190610b119190612264565b600180546001600160a01b0319166001600160a01b03929092169190911790555b505b6002546001600160a01b0316610c5c57600080546040805163122e3d5360e11b8152905183926001600160a01b03169163245c7aa69160048083019260209291908290030181865afa158015610b8e573d6000803e3d6000fd5b505050506040513d601f19601f82011682018060405250810190610bb29190612264565b6001600160a01b03161480159150610c5a5760008054906101000a90046001600160a01b03166001600160a01b031663245c7aa66040518163ffffffff1660e01b8152600401602060405180830381865afa158015610c15573d6000803e3d6000fd5b505050506040513d601f19601f82011682018060405250810190610c399190612264565b600280546001600160a01b0319166001600160a01b03929092169190911790555b505b610c64611783565b8315610caa57845460ff60401b19168555604051600181527fc7f505b2f371ae2175ee4913f4499e1f2633a7b5936321eed1cdaeb6115181d29060200160405180910390a15b50505050505050565b610cbb6117cc565b610cc482611871565b610cce8282611879565b5050565b6040805180820190915260008082526020820152610cf58888888888888861193b565b610d1257604051638baa579f60e01b815260040160405180910390fd5b61078a8888886113bd565b6000610d27611aed565b5060008051602061244683398151915290565b6040805180820190915260008082526020820152610d5661138c565b61081f3384846111ca565b60008054906101000a90046001600160a01b03166001600160a01b03166388c5d8976040518163ffffffff1660e01b8152600401602060405180830381865afa158015610db2573d6000803e3d6000fd5b505050506040513d601f19601f82011682018060405250810190610dd69190612264565b600180546001600160a01b0319166001600160a01b039283161790556000546040805163122e3d5360e11b81529051919092169163245c7aa69160048083019260209291908290030181865afa158015610e34573d6000803e3d6000fd5b505050506040513d601f19601f82011682018060405250810190610e589190612264565b600280546001600160a01b0319166001600160a01b0392909216919091179055565b610e82611331565b600455565b610e8f611331565b6108bf6000611b36565b600061081f8383611ba7565b610ead611331565b6108bf611783565b610ebd61138c565b60005b81811015610f0257610ef93385858585818110610edf57610edf612281565b9050602002016020810190610ef4919061200b565b6111ca565b50600101610ec0565b50505050565b600061081f83836116b1565b600061078a8888888888888861193b565b610f2d611331565b6001600160a01b038116610f5c57604051631e4fbdf760e01b8152600060048201526024015b60405180910390fd5b610f6581611b36565b50565b610f7061138c565b60005b81811015610f0257610fac3385858585818110610f9257610f92612281565b9050602002016020810190610fa7919061200b565b6113bd565b50600101610f73565b600083421115610fd85760405163df4cc36d60e01b815260040160405180910390fd5b866001600160a01b0316886001600160a01b03161461101e576000610ffd888a6116b1565b90508061101c576040516282b42960e81b815260040160405180910390fd5b505b6001600160a01b038088166000908152600560209081526040808320938a168352929052205460ff6101009091041615158515151461106f576040516282b42960e81b815260040160405180910390fd5b6000888888888860405160200161108a959493929190612297565b60408051601f19818403018152828252805160209182012061010084018352601860c085019081527f546f67676c6544656c656761746552657175657374466f72000000000000000060e08601528452825180840184526016815275506f727472616974416363657373526567697374727960501b818401528483015282518084018452600881526710dbdb9d1c9858dd60c21b9281019290925283830191909152600160608401526080830181905260a08301889052600254915163c61eefe760e01b81529093506001600160a01b039091169063c61eefe790611179908d9085908a908a90600401612306565b6020604051808303816000875af1158015611198573d6000803e3d6000fd5b505050506040513d601f19601f820116820180604052508101906111bc91906123ad565b9a9950505050505050505050565b6040805180820190915260008082526020820152816001600160a01b0316846001600160a01b03161461122457600061120383866116b1565b905080611222576040516282b42960e81b815260040160405180910390fd5b505b826001600160a01b0316826001600160a01b031603611255576040516282b42960e81b815260040160405180910390fd5b6001600160a01b03838116600081815260056020908152604080832094871680845294825291829020805460ff610100808304821615810261ff00198416811794859055865190831693831693909317151583529092049091161515918101919091527fb293ac3c4fcde82b618513bec32aaa974c417c358368a898c3717247ee307e3291015b60405180910390a3506001600160a01b03918216600090815260056020908152604080832093909416825291825282902082518084019093525460ff8082161515845261010090910416151590820152919050565b336113637f9016d09d72d40fdae2fd8ceac6b6234c7706214fd39c1cd1e609a0528c199300546001600160a01b031690565b6001600160a01b0316146108bf5760405163118cdaa760e01b8152336004820152602401610f53565b6000805160206124668339815191525460ff16156108bf5760405163d93c066560e01b815260040160405180910390fd5b60408051808201909152600080825260208201526004546001600160a01b0384166000908152600660205260409020541061140a5760405162ce25ed60e81b815260040160405180910390fd5b6001546001600160a01b03858116911614801561143457506003546001600160a01b038381169116145b1561152c576001600160a01b0383811660008181526005602090815260408083206003805487168552908352818420805460ff19166001179055805486168452818420805461ff00191661010090811790915590549095168084529281902054815160ff808316151582529690910490951615159185019190915290927fb293ac3c4fcde82b618513bec32aaa974c417c358368a898c3717247ee307e32910160405180910390a3506001600160a01b03808316600090815260056020908152604080832060035490941683529281529082902082518084019093525460ff808216151584526101009091041615159082015261081f565b826001600160a01b0316846001600160a01b03161461157257600061155184866116b1565b905080611570576040516282b42960e81b815260040160405180910390fd5b505b826001600160a01b0316826001600160a01b0316036115a457604051634a7f394f60e01b815260040160405180910390fd5b6001600160a01b038381166000908152600560209081526040808320938616835292905220805460ff8082161560ff1990921682179092551661160f576001600160a01b0383166000908152600660205260408120805491611605836123e0565b9190505550611639565b6001600160a01b0383166000908152600660205260408120805491611633836123f7565b91905055505b6001600160a01b03838116600081815260056020908152604080832094871680845294825291829020805461ff0019811691829055835160ff91821615158152610100909204161515918101919091527fb293ac3c4fcde82b618513bec32aaa974c417c358368a898c3717247ee307e3291016112dc565b6001600160a01b03828116600090815260056020908152604080832093851683529290529081205460ff80821691610100900416828280156116f05750815b9695505050505050565b611702611cb3565b600080516020612466833981519152805460ff191681557f5db9ee0a495bf2e6ff9c91a7834c1ba4fdd244a5e8aa4e537bd38aeae4b073aa335b6040516001600160a01b03909116815260200160405180910390a150565b611762611ce3565b6108bf611d2c565b611772611ce3565b610f6581611d4d565b6108bf611ce3565b61178b61138c565b600080516020612466833981519152805460ff191660011781557f62e78cea01bee320cd4e420270b5ea74000d11b0c9f74754ebdbfc544b05a2583361173c565b306001600160a01b037f000000000000000000000000000000000000000000000000000000000000000016148061185357507f00000000000000000000000000000000000000000000000000000000000000006001600160a01b0316611847600080516020612446833981519152546001600160a01b031690565b6001600160a01b031614155b156108bf5760405163703e46dd60e11b815260040160405180910390fd5b610f65611331565b816001600160a01b03166352d1902d6040518163ffffffff1660e01b8152600401602060405180830381865afa9250505080156118d3575060408051601f3d908101601f191682019092526118d091810190612410565b60015b6118fb57604051634c9c8ce360e01b81526001600160a01b0383166004820152602401610f53565b600080516020612446833981519152811461192c57604051632a87526960e21b815260048101829052602401610f53565b6119368383611d55565b505050565b60008342111561195e5760405163df4cc36d60e01b815260040160405180910390fd5b866001600160a01b0316886001600160a01b0316146119a4576000611983888a6116b1565b9050806119a2576040516282b42960e81b815260040160405180910390fd5b505b6001600160a01b038088166000908152600560209081526040808320938a168352929052205460ff161515851515146119ef576040516282b42960e81b815260040160405180910390fd5b60008888888888604051602001611a0a959493929190612297565b60408051601f19818403018152828252805160209182012061010084018352601160c08501908152702a37b3b3b632a232b632b3b0ba32a337b960791b60e08601528452825180840184526016815275506f727472616974416363657373526567697374727960501b818401528483015282518084018452600881526710dbdb9d1c9858dd60c21b9281019290925283830191909152600160608401526080830181905260a08301889052600254915163c61eefe760e01b81529093506001600160a01b039091169063c61eefe790611179908d9085908a908a90600401612306565b306001600160a01b037f000000000000000000000000000000000000000000000000000000000000000016146108bf5760405163703e46dd60e11b815260040160405180910390fd5b7f9016d09d72d40fdae2fd8ceac6b6234c7706214fd39c1cd1e609a0528c19930080546001600160a01b031981166001600160a01b03848116918217845560405192169182907f8be0079c531659141344cd1fd0a4f28419497f9722a3daafe3b4186f6b6457e090600090a3505050565b600154604051630151018160e21b81526001600160a01b038381166004830152602482018590526000928392911690630544060490604401602060405180830381865afa158015611bfc573d6000803e3d6000fd5b505050506040513d601f19601f82011682018060405250810190611c2091906123ad565b600154604051630e24ba4360e11b8152600481018790529192506000916001600160a01b0390911690631c49748690602401602060405180830381865afa158015611c6f573d6000803e3d6000fd5b505050506040513d601f19601f82011682018060405250810190611c939190612264565b90506000611ca182866116b1565b905082806116f0575095945050505050565b6000805160206124668339815191525460ff166108bf57604051638dfc202b60e01b815260040160405180910390fd5b7ff0c57e16840df040f15088dc2f81fe391c3923bec73e23a9662efc9c229c6a0054600160401b900460ff166108bf57604051631afcd79f60e31b815260040160405180910390fd5b611d34611ce3565b600080516020612466833981519152805460ff19169055565b610f2d611ce3565b611d5e82611dab565b6040516001600160a01b038316907fbc7cd75a20ee27fd9adebab32041f755214dbc6bffa90cc0225b39da2e5c2d3b90600090a2805115611da3576119368282611e10565b610cce611e7d565b806001600160a01b03163b600003611de157604051634c9c8ce360e01b81526001600160a01b0382166004820152602401610f53565b60008051602061244683398151915280546001600160a01b0319166001600160a01b0392909216919091179055565b6060600080846001600160a01b031684604051611e2d9190612429565b600060405180830381855af49150503d8060008114611e68576040519150601f19603f3d011682016040523d82523d6000602084013e611e6d565b606091505b50915091506108a6858383611e9c565b34156108bf5760405163b398979f60e01b815260040160405180910390fd5b606082611eb157611eac82611ef8565b61081f565b8151158015611ec857506001600160a01b0384163b155b15611ef157604051639996b31560e01b81526001600160a01b0385166004820152602401610f53565b508061081f565b805115611f085780518082602001fd5b604051630a12f52160e11b815260040160405180910390fd5b6001600160a01b0381168114610f6557600080fd5b8015158114610f6557600080fd5b600080600080600080600060c0888a031215611f5f57600080fd5b8735611f6a81611f21565b96506020880135611f7a81611f21565b95506040880135611f8a81611f21565b94506060880135611f9a81611f36565b93506080880135925060a088013567ffffffffffffffff80821115611fbe57600080fd5b818a0191508a601f830112611fd257600080fd5b813581811115611fe157600080fd5b8b6020828501011115611ff357600080fd5b60208301945080935050505092959891949750929550565b60006020828403121561201d57600080fd5b813561081f81611f21565b6000806040838503121561203b57600080fd5b823561204681611f21565b9150602083013561205681611f21565b809150509250929050565b6000806040838503121561207457600080fd5b82359150602083013561205681611f21565b634e487b7160e01b600052604160045260246000fd5b600080604083850312156120af57600080fd5b82356120ba81611f21565b9150602083013567ffffffffffffffff808211156120d757600080fd5b818501915085601f8301126120eb57600080fd5b8135818111156120fd576120fd612086565b604051601f8201601f19908116603f0116810190838211818310171561212557612125612086565b8160405282815288602084870101111561213e57600080fd5b8260208601602083013760006020848301015280955050505050509250929050565b60005b8381101561217b578181015183820152602001612163565b50506000910152565b6000815180845261219c816020860160208601612160565b601f01601f19169290920160200192915050565b60208152600061081f6020830184612184565b6000602082840312156121d557600080fd5b5035919050565b6000806000604084860312156121f157600080fd5b83356121fc81611f21565b9250602084013567ffffffffffffffff8082111561221957600080fd5b818601915086601f83011261222d57600080fd5b81358181111561223c57600080fd5b8760208260051b850101111561225157600080fd5b6020830194508093505050509250925092565b60006020828403121561227657600080fd5b815161081f81611f21565b634e487b7160e01b600052603260045260246000fd5b6bffffffffffffffffffffffff19606096871b8116825294861b851660148201529290941b909216602882015290151560f81b603c820152603d810191909152605d0190565b81835281816020850137506000828201602090810191909152601f909101601f19169091010190565b60018060a01b0385168152606060208201526000845160c06060840152612331610120840182612184565b90506020860151605f198085840301608086015261234f8383612184565b925060408801519150808584030160a08601525061236d8282612184565b915050606086015160c0840152608086015160e084015260a086015161010084015282810360408401526123a28185876122dd565b979650505050505050565b6000602082840312156123bf57600080fd5b815161081f81611f36565b634e487b7160e01b600052601160045260246000fd5b6000816123ef576123ef6123ca565b506000190190565b600060018201612409576124096123ca565b5060010190565b60006020828403121561242257600080fd5b5051919050565b6000825161243b818460208701612160565b919091019291505056fe360894a13ba1a3210667c828492db98dca3e2076cc3735a920a3ca505d382bbccd5ed15c6e187e77e9aee88184c21f4f2182ab5827cb3b7e07fbedcd63f03300a26469706673582212202ca711351802a0dcad7353560fdea135ef7a26458c70d2657f9832f68a9ef65564736f6c63430008170033",
  "linkReferences": {},
  "deployedLinkReferences": {}
}