{
  "_format": "hh-sol-artifact-1",
  "contractName": "PortraitStateRegistry",
  "sourceName": "contracts/l2/PortraitStateRegistry.sol",
  "abi": [
    {
      "inputs": [],
      "stateMutability": "nonpayable",
      "type": "constructor"
    },
    {
      "inputs": [
        {
          "internalType": "address",
          "name": "target",
          "type": "address"
        }
      ],
      "name": "AddressEmptyCode",
      "type": "error"
    },
    {
      "inputs": [],
      "name": "DuplicateState",
      "type": "error"
    },
    {
      "inputs": [
        {
          "internalType": "address",
          "name": "implementation",
          "type": "address"
        }
      ],
      "name": "ERC1967InvalidImplementation",
      "type": "error"
    },
    {
      "inputs": [],
      "name": "ERC1967NonPayable",
      "type": "error"
    },
    {
      "inputs": [],
      "name": "EnforcedPause",
      "type": "error"
    },
    {
      "inputs": [],
      "name": "ExpectedPause",
      "type": "error"
    },
    {
      "inputs": [],
      "name": "FailedInnerCall",
      "type": "error"
    },
    {
      "inputs": [],
      "name": "InvalidAddress",
      "type": "error"
    },
    {
      "inputs": [],
      "name": "InvalidInitialization",
      "type": "error"
    },
    {
      "inputs": [],
      "name": "NotInitializing",
      "type": "error"
    },
    {
      "inputs": [
        {
          "internalType": "address",
          "name": "owner",
          "type": "address"
        }
      ],
      "name": "OwnableInvalidOwner",
      "type": "error"
    },
    {
      "inputs": [
        {
          "internalType": "address",
          "name": "account",
          "type": "address"
        }
      ],
      "name": "OwnableUnauthorizedAccount",
      "type": "error"
    },
    {
      "inputs": [],
      "name": "UUPSUnauthorizedCallContext",
      "type": "error"
    },
    {
      "inputs": [
        {
          "internalType": "bytes32",
          "name": "slot",
          "type": "bytes32"
        }
      ],
      "name": "UUPSUnsupportedProxiableUUID",
      "type": "error"
    },
    {
      "inputs": [],
      "name": "Unauthorized",
      "type": "error"
    },
    {
      "anonymous": false,
      "inputs": [
        {
          "indexed": false,
          "internalType": "uint64",
          "name": "version",
          "type": "uint64"
        }
      ],
      "name": "Initialized",
      "type": "event"
    },
    {
      "anonymous": false,
      "inputs": [
        {
          "indexed": true,
          "internalType": "address",
          "name": "previousOwner",
          "type": "address"
        },
        {
          "indexed": true,
          "internalType": "address",
          "name": "newOwner",
          "type": "address"
        }
      ],
      "name": "OwnershipTransferred",
      "type": "event"
    },
    {
      "anonymous": false,
      "inputs": [
        {
          "indexed": false,
          "internalType": "address",
          "name": "account",
          "type": "address"
        }
      ],
      "name": "Paused",
      "type": "event"
    },
    {
      "anonymous": false,
      "inputs": [
        {
          "indexed": true,
          "internalType": "uint256",
          "name": "portraitIdToSet",
          "type": "uint256"
        },
        {
          "indexed": false,
          "internalType": "string",
          "name": "portraitHash",
          "type": "string"
        },
        {
          "indexed": true,
          "internalType": "uint256",
          "name": "portraitIdFromSender",
          "type": "uint256"
        }
      ],
      "name": "PortraitStateUpdated",
      "type": "event"
    },
    {
      "anonymous": false,
      "inputs": [
        {
          "indexed": false,
          "internalType": "address",
          "name": "account",
          "type": "address"
        }
      ],
      "name": "Unpaused",
      "type": "event"
    },
    {
      "anonymous": false,
      "inputs": [
        {
          "indexed": true,
          "internalType": "address",
          "name": "implementation",
          "type": "address"
        }
      ],
      "name": "Upgraded",
      "type": "event"
    },
    {
      "inputs": [],
      "name": "UPGRADE_INTERFACE_VERSION",
      "outputs": [
        {
          "internalType": "string",
          "name": "",
          "type": "string"
        }
      ],
      "stateMutability": "view",
      "type": "function"
    },
    {
      "inputs": [
        {
          "internalType": "address",
          "name": "initialOwner",
          "type": "address"
        },
        {
          "internalType": "address",
          "name": "portraitContractRegistryAddress",
          "type": "address"
        }
      ],
      "name": "initialize",
      "outputs": [],
      "stateMutability": "nonpayable",
      "type": "function"
    },
    {
      "inputs": [],
      "name": "owner",
      "outputs": [
        {
          "internalType": "address",
          "name": "",
          "type": "address"
        }
      ],
      "stateMutability": "view",
      "type": "function"
    },
    {
      "inputs": [],
      "name": "pause",
      "outputs": [],
      "stateMutability": "nonpayable",
      "type": "function"
    },
    {
      "inputs": [],
      "name": "paused",
      "outputs": [
        {
          "internalType": "bool",
          "name": "",
          "type": "bool"
        }
      ],
      "stateMutability": "view",
      "type": "function"
    },
    {
      "inputs": [],
      "name": "portraitAccessRegistry",
      "outputs": [
        {
          "internalType": "contract IPortraitAccessRegistry",
          "name": "",
          "type": "address"
        }
      ],
      "stateMutability": "view",
      "type": "function"
    },
    {
      "inputs": [],
      "name": "portraitContractRegistry",
      "outputs": [
        {
          "internalType": "contract IPortraitContractRegistry",
          "name": "",
          "type": "address"
        }
      ],
      "stateMutability": "view",
      "type": "function"
    },
    {
      "inputs": [],
      "name": "portraitIdRegistry",
      "outputs": [
        {
          "internalType": "contract IPortraitIdRegistry",
          "name": "",
          "type": "address"
        }
      ],
      "stateMutability": "view",
      "type": "function"
    },
    {
      "inputs": [
        {
          "internalType": "uint256",
          "name": "",
          "type": "uint256"
        }
      ],
      "name": "portraitIdToPortraitHash",
      "outputs": [
        {
          "internalType": "string",
          "name": "",
          "type": "string"
        }
      ],
      "stateMutability": "view",
      "type": "function"
    },
    {
      "inputs": [],
      "name": "portraitPlanRegistry",
      "outputs": [
        {
          "internalType": "contract IPortraitPlanRegistry",
          "name": "",
          "type": "address"
        }
      ],
      "stateMutability": "view",
      "type": "function"
    },
    {
      "inputs": [],
      "name": "proxiableUUID",
      "outputs": [
        {
          "internalType": "bytes32",
          "name": "",
          "type": "bytes32"
        }
      ],
      "stateMutability": "view",
      "type": "function"
    },
    {
      "inputs": [],
      "name": "renounceOwnership",
      "outputs": [],
      "stateMutability": "nonpayable",
      "type": "function"
    },
    {
      "inputs": [
        {
          "internalType": "uint256",
          "name": "portraitIdToSet",
          "type": "uint256"
        },
        {
          "internalType": "uint256",
          "name": "portraitIdFromSender",
          "type": "uint256"
        },
        {
          "internalType": "string",
          "name": "portraitHash",
          "type": "string"
        }
      ],
      "name": "setPortraitState",
      "outputs": [],
      "stateMutability": "nonpayable",
      "type": "function"
    },
    {
      "inputs": [
        {
          "internalType": "address",
          "name": "newOwner",
          "type": "address"
        }
      ],
      "name": "transferOwnership",
      "outputs": [],
      "stateMutability": "nonpayable",
      "type": "function"
    },
    {
      "inputs": [],
      "name": "unpause",
      "outputs": [],
      "stateMutability": "nonpayable",
      "type": "function"
    },
    {
      "inputs": [],
      "name": "updateProtocolContracts",
      "outputs": [],
      "stateMutability": "nonpayable",
      "type": "function"
    },
    {
      "inputs": [
        {
          "internalType": "address",
          "name": "newImplementation",
          "type": "address"
        },
        {
          "internalType": "bytes",
          "name": "data",
          "type": "bytes"
        }
      ],
      "name": "upgradeToAndCall",
      "outputs": [],
      "stateMutability": "payable",
      "type": "function"
    }
  ],
  "bytecode": "0x60a06040523060805234801561001457600080fd5b5061001d610022565b6100d4565b7ff0c57e16840df040f15088dc2f81fe391c3923bec73e23a9662efc9c229c6a00805468010000000000000000900460ff16156100725760405163f92ee8a960e01b815260040160405180910390fd5b80546001600160401b03908116146100d15780546001600160401b0319166001600160401b0390811782556040519081527fc7f505b2f371ae2175ee4913f4499e1f2633a7b5936321eed1cdaeb6115181d29060200160405180910390a15b50565b6080516118d56100fd60003960008181610e5b01528181610e840152610fca01526118d56000f3fe6080604052600436106100fe5760003560e01c80636e9807a5116100955780638da5cb5b116100645780638da5cb5b14610289578063ad3cb1cc146102c6578063b9b388a6146102f7578063c80dfc3a14610317578063f2fde38b1461033757600080fd5b80636e9807a51461021f578063715018a61461023f5780638456cb591461025457806388c5d8971461026957600080fd5b80635bfdf7c6116100d15780635bfdf7c6146101755780635c975abb146101a25780635df88e2a146101d257806365cb693f146101e757600080fd5b80633f4ba83a14610103578063485cc9551461011a5780634f1ef2861461013a57806352d1902d1461014d575b600080fd5b34801561010f57600080fd5b50610118610357565b005b34801561012657600080fd5b506101186101353660046113da565b610369565b61011861014836600461149f565b610870565b34801561015957600080fd5b5061016261088f565b6040519081526020015b60405180910390f35b34801561018157600080fd5b50610195610190366004611503565b6108ac565b60405161016c9190611540565b3480156101ae57600080fd5b506000805160206118808339815191525460ff16604051901515815260200161016c565b3480156101de57600080fd5b50610118610946565b3480156101f357600080fd5b50600054610207906001600160a01b031681565b6040516001600160a01b03909116815260200161016c565b34801561022b57600080fd5b50600354610207906001600160a01b031681565b34801561024b57600080fd5b50610118610a5f565b34801561026057600080fd5b50610118610a71565b34801561027557600080fd5b50600154610207906001600160a01b031681565b34801561029557600080fd5b507f9016d09d72d40fdae2fd8ceac6b6234c7706214fd39c1cd1e609a0528c199300546001600160a01b0316610207565b3480156102d257600080fd5b50610195604051806040016040528060058152602001640352e302e360dc1b81525081565b34801561030357600080fd5b50610118610312366004611573565b610a81565b34801561032357600080fd5b50600254610207906001600160a01b031681565b34801561034357600080fd5b506101186103523660046115d7565b610ce0565b61035f610d23565b610367610d7e565b565b7ff0c57e16840df040f15088dc2f81fe391c3923bec73e23a9662efc9c229c6a008054600160401b810460ff16159067ffffffffffffffff166000811580156103af5750825b905060008267ffffffffffffffff1660011480156103cc5750303b155b9050811580156103da575080155b156103f85760405163f92ee8a960e01b815260040160405180910390fd5b845467ffffffffffffffff19166001178555831561042257845460ff60401b1916600160401b1785555b6001600160a01b0386166104495760405163e6c4247b60e01b815260040160405180910390fd5b6001600160a01b0387166104705760405163e6c4247b60e01b815260040160405180910390fd5b610478610dde565b61048187610dee565b610489610dff565b610491610e07565b600080546001600160a01b0319166001600160a01b0388811691909117909155600154166105d15760008054604080516388c5d89760e01b8152905183926001600160a01b0316916388c5d8979160048083019260209291908290030181865afa158015610503573d6000803e3d6000fd5b505050506040513d601f19601f8201168201806040525081019061052791906115f4565b6001600160a01b031614801591506105cf5760008054906101000a90046001600160a01b03166001600160a01b03166388c5d8976040518163ffffffff1660e01b8152600401602060405180830381865afa15801561058a573d6000803e3d6000fd5b505050506040513d601f19601f820116820180604052508101906105ae91906115f4565b600180546001600160a01b0319166001600160a01b03929092169190911790555b505b6002546001600160a01b03166106f9576000805460408051636406fe1d60e11b8152905183926001600160a01b03169163c80dfc3a9160048083019260209291908290030181865afa15801561062b573d6000803e3d6000fd5b505050506040513d601f19601f8201168201806040525081019061064f91906115f4565b6001600160a01b031614801591506106f75760008054906101000a90046001600160a01b03166001600160a01b031663c80dfc3a6040518163ffffffff1660e01b8152600401602060405180830381865afa1580156106b2573d6000803e3d6000fd5b505050506040513d601f19601f820116820180604052508101906106d691906115f4565b600280546001600160a01b0319166001600160a01b03929092169190911790555b505b6003546001600160a01b0316610821576000805460408051636e9807a560e01b8152905183926001600160a01b031691636e9807a59160048083019260209291908290030181865afa158015610753573d6000803e3d6000fd5b505050506040513d601f19601f8201168201806040525081019061077791906115f4565b6001600160a01b0316148015915061081f5760008054906101000a90046001600160a01b03166001600160a01b0316636e9807a56040518163ffffffff1660e01b8152600401602060405180830381865afa1580156107da573d6000803e3d6000fd5b505050506040513d601f19601f820116820180604052508101906107fe91906115f4565b600380546001600160a01b0319166001600160a01b03929092169190911790555b505b831561086757845460ff60401b19168555604051600181527fc7f505b2f371ae2175ee4913f4499e1f2633a7b5936321eed1cdaeb6115181d29060200160405180910390a15b50505050505050565b610878610e50565b61088182610ef5565b61088b8282610efd565b5050565b6000610899610fbf565b5060008051602061186083398151915290565b600460205260009081526040902080546108c590611611565b80601f01602080910402602001604051908101604052809291908181526020018280546108f190611611565b801561093e5780601f106109135761010080835404028352916020019161093e565b820191906000526020600020905b81548152906001019060200180831161092157829003601f168201915b505050505081565b60008054906101000a90046001600160a01b03166001600160a01b03166388c5d8976040518163ffffffff1660e01b8152600401602060405180830381865afa158015610997573d6000803e3d6000fd5b505050506040513d601f19601f820116820180604052508101906109bb91906115f4565b600180546001600160a01b0319166001600160a01b0392831617905560005460408051636406fe1d60e11b81529051919092169163c80dfc3a9160048083019260209291908290030181865afa158015610a19573d6000803e3d6000fd5b505050506040513d601f19601f82011682018060405250810190610a3d91906115f4565b600280546001600160a01b0319166001600160a01b0392909216919091179055565b610a67610d23565b6103676000611008565b610a79610d23565b610367610e07565b610a89611079565b600254604051631fb03ebd60e21b8152600481018490523360248201526000916001600160a01b031690637ec0faf490604401602060405180830381865afa158015610ad9573d6000803e3d6000fd5b505050506040513d601f19601f82011682018060405250810190610afd919061164b565b905080610b1c576040516282b42960e81b815260040160405180910390fd5b600254604051631fb03ebd60e21b8152600481018690523360248201526000916001600160a01b031690637ec0faf490604401602060405180830381865afa158015610b6c573d6000803e3d6000fd5b505050506040513d601f19601f82011682018060405250810190610b90919061164b565b905080610cce57600354604051630a173d9960e01b8152600481018790526000916001600160a01b031690630a173d9990602401602060405180830381865afa158015610be1573d6000803e3d6000fd5b505050506040513d601f19601f82011682018060405250810190610c05919061164b565b905080610c24576040516282b42960e81b815260040160405180910390fd5b600354604051628a505360e71b815260048101879052602481018890526000916001600160a01b031690634528298090604401602060405180830381865afa158015610c74573d6000803e3d6000fd5b505050506040513d601f19601f82011682018060405250810190610c98919061166d565b6004811115610ca957610ca961168e565b905060018110610ccb576040516282b42960e81b815260040160405180910390fd5b50505b610cd98585856110aa565b5050505050565b610ce8610d23565b6001600160a01b038116610d1757604051631e4fbdf760e01b8152600060048201526024015b60405180910390fd5b610d2081611008565b50565b33610d557f9016d09d72d40fdae2fd8ceac6b6234c7706214fd39c1cd1e609a0528c199300546001600160a01b031690565b6001600160a01b0316146103675760405163118cdaa760e01b8152336004820152602401610d0e565b610d8661114b565b600080516020611880833981519152805460ff191681557f5db9ee0a495bf2e6ff9c91a7834c1ba4fdd244a5e8aa4e537bd38aeae4b073aa335b6040516001600160a01b03909116815260200160405180910390a150565b610de661117b565b6103676111c4565b610df661117b565b610d20816111e5565b61036761117b565b610e0f611079565b600080516020611880833981519152805460ff191660011781557f62e78cea01bee320cd4e420270b5ea74000d11b0c9f74754ebdbfc544b05a25833610dc0565b306001600160a01b037f0000000000000000000000000000000000000000000000000000000000000000161480610ed757507f00000000000000000000000000000000000000000000000000000000000000006001600160a01b0316610ecb600080516020611860833981519152546001600160a01b031690565b6001600160a01b031614155b156103675760405163703e46dd60e11b815260040160405180910390fd5b610d20610d23565b816001600160a01b03166352d1902d6040518163ffffffff1660e01b8152600401602060405180830381865afa925050508015610f57575060408051601f3d908101601f19168201909252610f54918101906116a4565b60015b610f7f57604051634c9c8ce360e01b81526001600160a01b0383166004820152602401610d0e565b6000805160206118608339815191528114610fb057604051632a87526960e21b815260048101829052602401610d0e565b610fba83836111ed565b505050565b306001600160a01b037f000000000000000000000000000000000000000000000000000000000000000016146103675760405163703e46dd60e11b815260040160405180910390fd5b7f9016d09d72d40fdae2fd8ceac6b6234c7706214fd39c1cd1e609a0528c19930080546001600160a01b031981166001600160a01b03848116918217845560405192169182907f8be0079c531659141344cd1fd0a4f28419497f9722a3daafe3b4186f6b6457e090600090a3505050565b6000805160206118808339815191525460ff16156103675760405163d93c066560e01b815260040160405180910390fd5b6000838152600460205260409081902090516110c691906116bd565b60405180910390208180519060200120036110f457604051638c1e94ed60e01b815260040160405180910390fd5b600083815260046020526040902061110c8282611783565b5081837f6a06b5a91ac919022e6bd6485c528ad294cf0338f66538d7ebd7d5e3e49cb3328360405161113e9190611540565b60405180910390a3505050565b6000805160206118808339815191525460ff1661036757604051638dfc202b60e01b815260040160405180910390fd5b7ff0c57e16840df040f15088dc2f81fe391c3923bec73e23a9662efc9c229c6a0054600160401b900460ff1661036757604051631afcd79f60e31b815260040160405180910390fd5b6111cc61117b565b600080516020611880833981519152805460ff19169055565b610ce861117b565b6111f682611243565b6040516001600160a01b038316907fbc7cd75a20ee27fd9adebab32041f755214dbc6bffa90cc0225b39da2e5c2d3b90600090a280511561123b57610fba82826112a8565b61088b61131e565b806001600160a01b03163b60000361127957604051634c9c8ce360e01b81526001600160a01b0382166004820152602401610d0e565b60008051602061186083398151915280546001600160a01b0319166001600160a01b0392909216919091179055565b6060600080846001600160a01b0316846040516112c59190611843565b600060405180830381855af49150503d8060008114611300576040519150601f19603f3d011682016040523d82523d6000602084013e611305565b606091505b509150915061131585838361133d565b95945050505050565b34156103675760405163b398979f60e01b815260040160405180910390fd5b6060826113525761134d8261139c565b611395565b815115801561136957506001600160a01b0384163b155b1561139257604051639996b31560e01b81526001600160a01b0385166004820152602401610d0e565b50805b9392505050565b8051156113ac5780518082602001fd5b604051630a12f52160e11b815260040160405180910390fd5b6001600160a01b0381168114610d2057600080fd5b600080604083850312156113ed57600080fd5b82356113f8816113c5565b91506020830135611408816113c5565b809150509250929050565b634e487b7160e01b600052604160045260246000fd5b600067ffffffffffffffff8084111561144457611444611413565b604051601f8501601f19908116603f0116810190828211818310171561146c5761146c611413565b8160405280935085815286868601111561148557600080fd5b858560208301376000602087830101525050509392505050565b600080604083850312156114b257600080fd5b82356114bd816113c5565b9150602083013567ffffffffffffffff8111156114d957600080fd5b8301601f810185136114ea57600080fd5b6114f985823560208401611429565b9150509250929050565b60006020828403121561151557600080fd5b5035919050565b60005b8381101561153757818101518382015260200161151f565b50506000910152565b602081526000825180602084015261155f81604085016020870161151c565b601f01601f19169190910160400192915050565b60008060006060848603121561158857600080fd5b8335925060208401359150604084013567ffffffffffffffff8111156115ad57600080fd5b8401601f810186136115be57600080fd5b6115cd86823560208401611429565b9150509250925092565b6000602082840312156115e957600080fd5b8135611395816113c5565b60006020828403121561160657600080fd5b8151611395816113c5565b600181811c9082168061162557607f821691505b60208210810361164557634e487b7160e01b600052602260045260246000fd5b50919050565b60006020828403121561165d57600080fd5b8151801515811461139557600080fd5b60006020828403121561167f57600080fd5b81516005811061139557600080fd5b634e487b7160e01b600052602160045260246000fd5b6000602082840312156116b657600080fd5b5051919050565b60008083546116cb81611611565b600182811680156116e357600181146116f857611727565b60ff1984168752821515830287019450611727565b8760005260208060002060005b8581101561171e5781548a820152908401908201611705565b50505082870194505b50929695505050505050565b601f821115610fba576000816000526020600020601f850160051c8101602086101561175c5750805b601f850160051c820191505b8181101561177b57828155600101611768565b505050505050565b815167ffffffffffffffff81111561179d5761179d611413565b6117b1816117ab8454611611565b84611733565b602080601f8311600181146117e657600084156117ce5750858301515b600019600386901b1c1916600185901b17855561177b565b600085815260208120601f198616915b82811015611815578886015182559484019460019091019084016117f6565b50858210156118335787850151600019600388901b60f8161c191681555b5050505050600190811b01905550565b6000825161185581846020870161151c565b919091019291505056fe360894a13ba1a3210667c828492db98dca3e2076cc3735a920a3ca505d382bbccd5ed15c6e187e77e9aee88184c21f4f2182ab5827cb3b7e07fbedcd63f03300a2646970667358221220f056a0224e0fa26b0f2a351dea5ac4fcd93c240cd651d16798c6c66fa71e8c6864736f6c63430008170033",
  "linkReferences": {},
  "deployedLinkReferences": {}
}