{
  "_format": "hh-sol-artifact-1",
  "contractName": "PortraitNameRegistry",
  "sourceName": "contracts/l2/PortraitNameRegistry.sol",
  "abi": [
    {
      "inputs": [],
      "stateMutability": "nonpayable",
      "type": "constructor"
    },
    {
      "inputs": [
        {
          "internalType": "address",
          "name": "target",
          "type": "address"
        }
      ],
      "name": "AddressEmptyCode",
      "type": "error"
    },
    {
      "inputs": [],
      "name": "DuplicateReservation",
      "type": "error"
    },
    {
      "inputs": [
        {
          "internalType": "address",
          "name": "implementation",
          "type": "address"
        }
      ],
      "name": "ERC1967InvalidImplementation",
      "type": "error"
    },
    {
      "inputs": [],
      "name": "ERC1967NonPayable",
      "type": "error"
    },
    {
      "inputs": [],
      "name": "EnforcedPause",
      "type": "error"
    },
    {
      "inputs": [],
      "name": "ExpectedPause",
      "type": "error"
    },
    {
      "inputs": [],
      "name": "FailedInnerCall",
      "type": "error"
    },
    {
      "inputs": [],
      "name": "InvalidAddress",
      "type": "error"
    },
    {
      "inputs": [],
      "name": "InvalidInitialization",
      "type": "error"
    },
    {
      "inputs": [],
      "name": "InvalidName",
      "type": "error"
    },
    {
      "inputs": [],
      "name": "InvalidSignature",
      "type": "error"
    },
    {
      "inputs": [],
      "name": "NameAlreadyRegistered",
      "type": "error"
    },
    {
      "inputs": [],
      "name": "NameNotReserved",
      "type": "error"
    },
    {
      "inputs": [],
      "name": "NotInitializing",
      "type": "error"
    },
    {
      "inputs": [
        {
          "internalType": "address",
          "name": "owner",
          "type": "address"
        }
      ],
      "name": "OwnableInvalidOwner",
      "type": "error"
    },
    {
      "inputs": [
        {
          "internalType": "address",
          "name": "account",
          "type": "address"
        }
      ],
      "name": "OwnableUnauthorizedAccount",
      "type": "error"
    },
    {
      "inputs": [],
      "name": "ReentrancyGuardReentrantCall",
      "type": "error"
    },
    {
      "inputs": [],
      "name": "ReservationExpired",
      "type": "error"
    },
    {
      "inputs": [],
      "name": "SignatureExpired",
      "type": "error"
    },
    {
      "inputs": [],
      "name": "UUPSUnauthorizedCallContext",
      "type": "error"
    },
    {
      "inputs": [
        {
          "internalType": "bytes32",
          "name": "slot",
          "type": "bytes32"
        }
      ],
      "name": "UUPSUnsupportedProxiableUUID",
      "type": "error"
    },
    {
      "inputs": [],
      "name": "Unauthorized",
      "type": "error"
    },
    {
      "anonymous": false,
      "inputs": [
        {
          "indexed": false,
          "internalType": "uint64",
          "name": "version",
          "type": "uint64"
        }
      ],
      "name": "Initialized",
      "type": "event"
    },
    {
      "anonymous": false,
      "inputs": [
        {
          "indexed": true,
          "internalType": "string",
          "name": "name",
          "type": "string"
        },
        {
          "indexed": true,
          "internalType": "address",
          "name": "caller",
          "type": "address"
        },
        {
          "indexed": false,
          "internalType": "uint256",
          "name": "portraitId",
          "type": "uint256"
        }
      ],
      "name": "NameRegistered",
      "type": "event"
    },
    {
      "anonymous": false,
      "inputs": [
        {
          "indexed": true,
          "internalType": "bytes32",
          "name": "reservationHash",
          "type": "bytes32"
        },
        {
          "indexed": false,
          "internalType": "address",
          "name": "reservedBy",
          "type": "address"
        },
        {
          "indexed": false,
          "internalType": "uint256",
          "name": "reservedUntil",
          "type": "uint256"
        }
      ],
      "name": "NameReserved",
      "type": "event"
    },
    {
      "anonymous": false,
      "inputs": [
        {
          "indexed": true,
          "internalType": "address",
          "name": "previousOwner",
          "type": "address"
        },
        {
          "indexed": true,
          "internalType": "address",
          "name": "newOwner",
          "type": "address"
        }
      ],
      "name": "OwnershipTransferred",
      "type": "event"
    },
    {
      "anonymous": false,
      "inputs": [
        {
          "indexed": false,
          "internalType": "address",
          "name": "account",
          "type": "address"
        }
      ],
      "name": "Paused",
      "type": "event"
    },
    {
      "anonymous": false,
      "inputs": [
        {
          "indexed": true,
          "internalType": "uint256",
          "name": "timestamp",
          "type": "uint256"
        },
        {
          "indexed": true,
          "internalType": "uint256",
          "name": "reservationDuration",
          "type": "uint256"
        }
      ],
      "name": "ReservationDurationUpdated",
      "type": "event"
    },
    {
      "anonymous": false,
      "inputs": [
        {
          "indexed": false,
          "internalType": "address",
          "name": "account",
          "type": "address"
        }
      ],
      "name": "Unpaused",
      "type": "event"
    },
    {
      "anonymous": false,
      "inputs": [
        {
          "indexed": true,
          "internalType": "address",
          "name": "implementation",
          "type": "address"
        }
      ],
      "name": "Upgraded",
      "type": "event"
    },
    {
      "inputs": [],
      "name": "CONTRACT_NAME",
      "outputs": [
        {
          "internalType": "string",
          "name": "",
          "type": "string"
        }
      ],
      "stateMutability": "view",
      "type": "function"
    },
    {
      "inputs": [],
      "name": "UPGRADE_INTERFACE_VERSION",
      "outputs": [
        {
          "internalType": "string",
          "name": "",
          "type": "string"
        }
      ],
      "stateMutability": "view",
      "type": "function"
    },
    {
      "inputs": [],
      "name": "VERSION",
      "outputs": [
        {
          "internalType": "uint256",
          "name": "",
          "type": "uint256"
        }
      ],
      "stateMutability": "view",
      "type": "function"
    },
    {
      "inputs": [
        {
          "internalType": "string",
          "name": "name",
          "type": "string"
        },
        {
          "internalType": "string",
          "name": "secret",
          "type": "string"
        }
      ],
      "name": "generateReservationHash",
      "outputs": [
        {
          "internalType": "bytes32",
          "name": "reservationHash",
          "type": "bytes32"
        }
      ],
      "stateMutability": "pure",
      "type": "function"
    },
    {
      "inputs": [
        {
          "internalType": "uint256[]",
          "name": "portraitIds",
          "type": "uint256[]"
        }
      ],
      "name": "getNamesForPortraitIds",
      "outputs": [
        {
          "internalType": "string[]",
          "name": "names",
          "type": "string[]"
        }
      ],
      "stateMutability": "view",
      "type": "function"
    },
    {
      "inputs": [
        {
          "internalType": "address",
          "name": "initialOwner",
          "type": "address"
        },
        {
          "internalType": "address",
          "name": "portraitContractRegistryAddress",
          "type": "address"
        }
      ],
      "name": "initialize",
      "outputs": [],
      "stateMutability": "nonpayable",
      "type": "function"
    },
    {
      "inputs": [
        {
          "internalType": "string",
          "name": "name",
          "type": "string"
        }
      ],
      "name": "isAvailableName",
      "outputs": [
        {
          "internalType": "bool",
          "name": "isAvailable",
          "type": "bool"
        }
      ],
      "stateMutability": "view",
      "type": "function"
    },
    {
      "inputs": [
        {
          "internalType": "string",
          "name": "name",
          "type": "string"
        }
      ],
      "name": "isValidName",
      "outputs": [
        {
          "internalType": "bool",
          "name": "isValid",
          "type": "bool"
        }
      ],
      "stateMutability": "pure",
      "type": "function"
    },
    {
      "inputs": [
        {
          "internalType": "string",
          "name": "",
          "type": "string"
        }
      ],
      "name": "nameToPortraitId",
      "outputs": [
        {
          "internalType": "uint256",
          "name": "",
          "type": "uint256"
        }
      ],
      "stateMutability": "view",
      "type": "function"
    },
    {
      "inputs": [],
      "name": "owner",
      "outputs": [
        {
          "internalType": "address",
          "name": "",
          "type": "address"
        }
      ],
      "stateMutability": "view",
      "type": "function"
    },
    {
      "inputs": [],
      "name": "pause",
      "outputs": [],
      "stateMutability": "nonpayable",
      "type": "function"
    },
    {
      "inputs": [],
      "name": "paused",
      "outputs": [
        {
          "internalType": "bool",
          "name": "",
          "type": "bool"
        }
      ],
      "stateMutability": "view",
      "type": "function"
    },
    {
      "inputs": [],
      "name": "portraitAccessRegistry",
      "outputs": [
        {
          "internalType": "contract IPortraitAccessRegistry",
          "name": "",
          "type": "address"
        }
      ],
      "stateMutability": "view",
      "type": "function"
    },
    {
      "inputs": [],
      "name": "portraitContractRegistry",
      "outputs": [
        {
          "internalType": "contract IPortraitContractRegistry",
          "name": "",
          "type": "address"
        }
      ],
      "stateMutability": "view",
      "type": "function"
    },
    {
      "inputs": [],
      "name": "portraitIdRegistry",
      "outputs": [
        {
          "internalType": "contract IPortraitIdRegistry",
          "name": "",
          "type": "address"
        }
      ],
      "stateMutability": "view",
      "type": "function"
    },
    {
      "inputs": [
        {
          "internalType": "uint256",
          "name": "",
          "type": "uint256"
        }
      ],
      "name": "portraitIdToName",
      "outputs": [
        {
          "internalType": "string",
          "name": "",
          "type": "string"
        }
      ],
      "stateMutability": "view",
      "type": "function"
    },
    {
      "inputs": [],
      "name": "portraitSigValidator",
      "outputs": [
        {
          "internalType": "contract PortraitSigValidator",
          "name": "",
          "type": "address"
        }
      ],
      "stateMutability": "view",
      "type": "function"
    },
    {
      "inputs": [],
      "name": "proxiableUUID",
      "outputs": [
        {
          "internalType": "bytes32",
          "name": "",
          "type": "bytes32"
        }
      ],
      "stateMutability": "view",
      "type": "function"
    },
    {
      "inputs": [
        {
          "internalType": "string",
          "name": "name",
          "type": "string"
        },
        {
          "internalType": "string",
          "name": "secret",
          "type": "string"
        },
        {
          "internalType": "address",
          "name": "reserver",
          "type": "address"
        },
        {
          "internalType": "uint256",
          "name": "portraitId",
          "type": "uint256"
        }
      ],
      "name": "registerName",
      "outputs": [],
      "stateMutability": "nonpayable",
      "type": "function"
    },
    {
      "inputs": [],
      "name": "renounceOwnership",
      "outputs": [],
      "stateMutability": "nonpayable",
      "type": "function"
    },
    {
      "inputs": [],
      "name": "reservationDuration",
      "outputs": [
        {
          "internalType": "uint256",
          "name": "",
          "type": "uint256"
        }
      ],
      "stateMutability": "view",
      "type": "function"
    },
    {
      "inputs": [
        {
          "internalType": "bytes32",
          "name": "",
          "type": "bytes32"
        }
      ],
      "name": "reservationHashToReservation",
      "outputs": [
        {
          "internalType": "address",
          "name": "reservedBy",
          "type": "address"
        },
        {
          "internalType": "uint256",
          "name": "reservedUntil",
          "type": "uint256"
        }
      ],
      "stateMutability": "view",
      "type": "function"
    },
    {
      "inputs": [
        {
          "internalType": "bytes32",
          "name": "reservationHash",
          "type": "bytes32"
        },
        {
          "internalType": "address",
          "name": "reserver",
          "type": "address"
        }
      ],
      "name": "reserveName",
      "outputs": [],
      "stateMutability": "nonpayable",
      "type": "function"
    },
    {
      "inputs": [
        {
          "internalType": "uint256",
          "name": "timeInSeconds",
          "type": "uint256"
        }
      ],
      "name": "setReservationDuration",
      "outputs": [],
      "stateMutability": "nonpayable",
      "type": "function"
    },
    {
      "inputs": [
        {
          "internalType": "address",
          "name": "newOwner",
          "type": "address"
        }
      ],
      "name": "transferOwnership",
      "outputs": [],
      "stateMutability": "nonpayable",
      "type": "function"
    },
    {
      "inputs": [
        {
          "internalType": "address",
          "name": "signer",
          "type": "address"
        },
        {
          "internalType": "string",
          "name": "name",
          "type": "string"
        },
        {
          "internalType": "string",
          "name": "secret",
          "type": "string"
        },
        {
          "internalType": "uint256",
          "name": "portraitId",
          "type": "uint256"
        },
        {
          "internalType": "uint256",
          "name": "deadline",
          "type": "uint256"
        },
        {
          "internalType": "address",
          "name": "owner",
          "type": "address"
        },
        {
          "internalType": "bytes",
          "name": "sig",
          "type": "bytes"
        }
      ],
      "name": "trustedRegisterName",
      "outputs": [],
      "stateMutability": "nonpayable",
      "type": "function"
    },
    {
      "inputs": [],
      "name": "unpause",
      "outputs": [],
      "stateMutability": "nonpayable",
      "type": "function"
    },
    {
      "inputs": [],
      "name": "updateProtocolContracts",
      "outputs": [],
      "stateMutability": "nonpayable",
      "type": "function"
    },
    {
      "inputs": [
        {
          "internalType": "address",
          "name": "newImplementation",
          "type": "address"
        },
        {
          "internalType": "bytes",
          "name": "data",
          "type": "bytes"
        }
      ],
      "name": "upgradeToAndCall",
      "outputs": [],
      "stateMutability": "payable",
      "type": "function"
    }
  ],
  "bytecode": "0x60a0604052306080523480156200001557600080fd5b506200002062000026565b620000da565b7ff0c57e16840df040f15088dc2f81fe391c3923bec73e23a9662efc9c229c6a00805468010000000000000000900460ff1615620000775760405163f92ee8a960e01b815260040160405180910390fd5b80546001600160401b0390811614620000d75780546001600160401b0319166001600160401b0390811782556040519081527fc7f505b2f371ae2175ee4913f4499e1f2633a7b5936321eed1cdaeb6115181d29060200160405180910390a15b50565b6080516127ea62000104600039600081816116250152818161164e015261179401526127ea6000f3fe6080604052600436106101c25760003560e01c80636659c53a116100f7578063a0e1256211610095578063c80dfc3a11610064578063c80dfc3a1461059a578063f2fde38b146105ba578063f50467ae146105da578063ffa1ad74146105fa57600080fd5b8063a0e1256214610513578063ad3cb1cc14610533578063b5f0e6e014610564578063bfe2c9741461058457600080fd5b80638456cb59116100d15780638456cb591461048157806388c5d897146104965780638da5cb5b146104b65780639d6ecb5d146104f357600080fd5b80636659c53a1461042c578063715018a61461044c5780637d33589a1461046157600080fd5b80634f1ef286116101645780635df88e2a1161013e5780635df88e2a1461038a57806360489ad71461039f578063614d08f8146103bf57806365cb693f1461040c57600080fd5b80634f1ef2861461033d57806352d1902d146103505780635c975abb1461036557600080fd5b806325cb9407116101a057806325cb94071461027a578063264696d5146102d95780633f4ba83a14610306578063485cc9551461031d57600080fd5b806308cbcd54146101c75780631e30397f14610212578063245c7aa614610242575b600080fd5b3480156101d357600080fd5b506101ff6101e2366004611f67565b805160208183018101805160068252928201919093012091525481565b6040519081526020015b60405180910390f35b34801561021e57600080fd5b5061023261022d366004611f67565b61060f565b6040519015158152602001610209565b34801561024e57600080fd5b50600354610262906001600160a01b031681565b6040516001600160a01b039091168152602001610209565b34801561028657600080fd5b506102ba610295366004611fa3565b600760205260009081526040902080546001909101546001600160a01b039091169082565b604080516001600160a01b039093168352602083019190915201610209565b3480156102e557600080fd5b506102f96102f4366004611fbc565b610620565b60405161020991906120b1565b34801561031257600080fd5b5061031b61075d565b005b34801561032957600080fd5b5061031b61033836600461212a565b61076f565b61031b61034b366004612163565b610c82565b34801561035c57600080fd5b506101ff610ca1565b34801561037157600080fd5b506000805160206127758339815191525460ff16610232565b34801561039657600080fd5b5061031b610cbe565b3480156103ab57600080fd5b5061031b6103ba366004611fa3565b610e59565b3480156103cb57600080fd5b506103ff60405180604001604052806014815260200173506f7274726169744e616d65526567697374727960601b81525081565b60405161020991906121c6565b34801561041857600080fd5b50600054610262906001600160a01b031681565b34801561043857600080fd5b5061031b6104473660046121d9565b610e96565b34801561045857600080fd5b5061031b610f94565b34801561046d57600080fd5b5061023261047c366004611f67565b610fa6565b34801561048d57600080fd5b5061031b610fb1565b3480156104a257600080fd5b50600154610262906001600160a01b031681565b3480156104c257600080fd5b507f9016d09d72d40fdae2fd8ceac6b6234c7706214fd39c1cd1e609a0528c199300546001600160a01b0316610262565b3480156104ff57600080fd5b506101ff61050e3660046121fe565b610fc1565b34801561051f57600080fd5b506103ff61052e366004611fa3565b610fd4565b34801561053f57600080fd5b506103ff604051806040016040528060058152602001640352e302e360dc1b81525081565b34801561057057600080fd5b5061031b61057f36600461229f565b61106e565b34801561059057600080fd5b506101ff60045481565b3480156105a657600080fd5b50600254610262906001600160a01b031681565b3480156105c657600080fd5b5061031b6105d5366004612367565b61129e565b3480156105e657600080fd5b5061031b6105f5366004612384565b6112e1565b34801561060657600080fd5b506101ff600181565b600061061a8261131a565b92915050565b606081516001600160401b0381111561063b5761063b611eaa565b60405190808252806020026020018201604052801561066e57816020015b60608152602001906001900390816106595790505b50905060005b8251811015610757576005600084838151811061069357610693612401565b6020026020010151815260200190815260200160002080546106b490612417565b80601f01602080910402602001604051908101604052809291908181526020018280546106e090612417565b801561072d5780601f106107025761010080835404028352916020019161072d565b820191906000526020600020905b81548152906001019060200180831161071057829003601f168201915b505050505082828151811061074457610744612401565b6020908102919091010152600101610674565b50919050565b6107656114dd565b61076d611538565b565b7ff0c57e16840df040f15088dc2f81fe391c3923bec73e23a9662efc9c229c6a008054600160401b810460ff1615906001600160401b03166000811580156107b45750825b90506000826001600160401b031660011480156107d05750303b155b9050811580156107de575080155b156107fc5760405163f92ee8a960e01b815260040160405180910390fd5b845467ffffffffffffffff19166001178555831561082657845460ff60401b1916600160401b1785555b6001600160a01b03861661084d5760405163e6c4247b60e01b815260040160405180910390fd5b6001600160a01b0387166108745760405163e6c4247b60e01b815260040160405180910390fd5b61087c611598565b610885876115a8565b61088d6115b9565b6108956115c1565b6107086004556108a36115d1565b600080546001600160a01b0319166001600160a01b0388811691909117909155600154166109e35760008054604080516388c5d89760e01b8152905183926001600160a01b0316916388c5d8979160048083019260209291908290030181865afa158015610915573d6000803e3d6000fd5b505050506040513d601f19601f82011682018060405250810190610939919061244b565b6001600160a01b031614801591506109e15760008054906101000a90046001600160a01b03166001600160a01b03166388c5d8976040518163ffffffff1660e01b8152600401602060405180830381865afa15801561099c573d6000803e3d6000fd5b505050506040513d601f19601f820116820180604052508101906109c0919061244b565b600180546001600160a01b0319166001600160a01b03929092169190911790555b505b6002546001600160a01b0316610b0b576000805460408051636406fe1d60e11b8152905183926001600160a01b03169163c80dfc3a9160048083019260209291908290030181865afa158015610a3d573d6000803e3d6000fd5b505050506040513d601f19601f82011682018060405250810190610a61919061244b565b6001600160a01b03161480159150610b095760008054906101000a90046001600160a01b03166001600160a01b031663c80dfc3a6040518163ffffffff1660e01b8152600401602060405180830381865afa158015610ac4573d6000803e3d6000fd5b505050506040513d601f19601f82011682018060405250810190610ae8919061244b565b600280546001600160a01b0319166001600160a01b03929092169190911790555b505b6003546001600160a01b0316610c3357600080546040805163122e3d5360e11b8152905183926001600160a01b03169163245c7aa69160048083019260209291908290030181865afa158015610b65573d6000803e3d6000fd5b505050506040513d601f19601f82011682018060405250810190610b89919061244b565b6001600160a01b03161480159150610c315760008054906101000a90046001600160a01b03166001600160a01b031663245c7aa66040518163ffffffff1660e01b8152600401602060405180830381865afa158015610bec573d6000803e3d6000fd5b505050506040513d601f19601f82011682018060405250810190610c10919061244b565b600380546001600160a01b0319166001600160a01b03929092169190911790555b505b8315610c7957845460ff60401b19168555604051600181527fc7f505b2f371ae2175ee4913f4499e1f2633a7b5936321eed1cdaeb6115181d29060200160405180910390a15b50505050505050565b610c8a61161a565b610c93826116bf565b610c9d82826116c7565b5050565b6000610cab611789565b5060008051602061275583398151915290565b60008054906101000a90046001600160a01b03166001600160a01b03166388c5d8976040518163ffffffff1660e01b8152600401602060405180830381865afa158015610d0f573d6000803e3d6000fd5b505050506040513d601f19601f82011682018060405250810190610d33919061244b565b600180546001600160a01b0319166001600160a01b0392831617905560005460408051636406fe1d60e11b81529051919092169163c80dfc3a9160048083019260209291908290030181865afa158015610d91573d6000803e3d6000fd5b505050506040513d601f19601f82011682018060405250810190610db5919061244b565b600280546001600160a01b0319166001600160a01b039283161790556000546040805163122e3d5360e11b81529051919092169163245c7aa69160048083019260209291908290030181865afa158015610e13573d6000803e3d6000fd5b505050506040513d601f19601f82011682018060405250810190610e37919061244b565b600380546001600160a01b0319166001600160a01b0392909216919091179055565b610e616114dd565b6004819055604051819042907fac3435d40e3609be00c5151b71bb2ab9b65c3f80bf3492bca2adc0aa8eecc24c90600090a350565b610e9e6117d2565b610ea661180a565b6001546000906001600160a01b03163303610ec2575080610f72565b60025460405163de695dbd60e01b81526001600160a01b038481166004830152336024830152600092169063de695dbd90604401602060405180830381865afa158015610f13573d6000803e3d6000fd5b505050506040513d601f19601f82011682018060405250810190610f379190612468565b9050336001600160a01b03841614801590610f50575080155b15610f6d576040516282b42960e81b815260040160405180910390fd5b339150505b610f7c838261183b565b50610c9d600160008051602061279583398151915255565b610f9c6114dd565b61076d6000611942565b600061061a826119b3565b610fb96114dd565b61076d6115d1565b6000610fcd83836119dc565b9392505050565b60056020526000908152604090208054610fed90612417565b80601f016020809104026020016040519081016040528092919081815260200182805461101990612417565b80156110665780601f1061103b57610100808354040283529160200191611066565b820191906000526020600020905b81548152906001019060200180831161104957829003601f168201915b505050505081565b6110766114dd565b826001600160a01b0316886001600160a01b0316146111275760025460405163de695dbd60e01b81526001600160a01b0385811660048301528a81166024830152600092169063de695dbd90604401602060405180830381865afa1580156110e2573d6000803e3d6000fd5b505050506040513d601f19601f820116820180604052508101906111069190612468565b905080611125576040516282b42960e81b815260040160405180910390fd5b505b60008888888888886040516020016111449695949392919061248a565b60408051601f19818403018152828252805160209182012061010084018352601360c08501908152725472757374656452656769737465724e616d6560681b60e08601528452825180840184526014815273506f7274726169744e616d65526567697374727960601b818401528483015282518084018452600881526710dbdb9d1c9858dd60c21b9281019290925283830191909152600160608401526080830181905260a08301889052600354915163c61eefe760e01b81529093506001600160a01b039091169063c61eefe790611227908d90859089908990600401612508565b6020604051808303816000875af1158015611246573d6000803e3d6000fd5b505050506040513d601f19601f8201168201806040525081019061126a9190612468565b611286576040516282b42960e81b815260040160405180910390fd5b6112928989878a611a0f565b50505050505050505050565b6112a66114dd565b6001600160a01b0381166112d557604051631e4fbdf760e01b8152600060048201526024015b60405180910390fd5b6112de81611942565b50565b6112e96117d2565b6112f161180a565b6112fd84848484611a0f565b611314600160008051602061279583398151915255565b50505050565b6000808290506003815110156113335750600092915050565b600f815111156113465750600092915050565b8060008151811061135957611359612401565b01602001516001600160f81b031916602d60f81b0361137b5750600092915050565b806001825161138a91906125c5565b8151811061139a5761139a612401565b01602001516001600160f81b031916602d60f81b036113bc5750600092915050565b60005b81518110156114d35760008282815181106113dc576113dc612401565b01602001516001600160f81b0319169050600360fc1b811080159061140f5750603960f81b6001600160f81b0319821611155b1580156114455750606160f81b6001600160f81b03198216108015906114435750603d60f91b6001600160f81b0319821611155b155b801561145f5750602d60f81b6001600160f81b0319821614155b1561146f57506000949350505050565b602d60f81b6001600160f81b031982161480156114ba5750826114938360016125d8565b815181106114a3576114a3612401565b6020910101516001600160f81b031916602d60f81b145b156114ca57506000949350505050565b506001016113bf565b5060019392505050565b3361150f7f9016d09d72d40fdae2fd8ceac6b6234c7706214fd39c1cd1e609a0528c199300546001600160a01b031690565b6001600160a01b03161461076d5760405163118cdaa760e01b81523360048201526024016112cc565b611540611c2b565b600080516020612775833981519152805460ff191681557f5db9ee0a495bf2e6ff9c91a7834c1ba4fdd244a5e8aa4e537bd38aeae4b073aa335b6040516001600160a01b03909116815260200160405180910390a150565b6115a0611c5b565b61076d611ca4565b6115b0611c5b565b6112de81611cc5565b61076d611c5b565b6115c9611c5b565b61076d611ccd565b6115d961180a565b600080516020612775833981519152805460ff191660011781557f62e78cea01bee320cd4e420270b5ea74000d11b0c9f74754ebdbfc544b05a2583361157a565b306001600160a01b037f00000000000000000000000000000000000000000000000000000000000000001614806116a157507f00000000000000000000000000000000000000000000000000000000000000006001600160a01b0316611695600080516020612755833981519152546001600160a01b031690565b6001600160a01b031614155b1561076d5760405163703e46dd60e11b815260040160405180910390fd5b6112de6114dd565b816001600160a01b03166352d1902d6040518163ffffffff1660e01b8152600401602060405180830381865afa925050508015611721575060408051601f3d908101601f1916820190925261171e918101906125eb565b60015b61174957604051634c9c8ce360e01b81526001600160a01b03831660048201526024016112cc565b600080516020612755833981519152811461177a57604051632a87526960e21b8152600481018290526024016112cc565b6117848383611cd5565b505050565b306001600160a01b037f0000000000000000000000000000000000000000000000000000000000000000161461076d5760405163703e46dd60e11b815260040160405180910390fd5b60008051602061279583398151915280546001190161180457604051633ee5aeb560e01b815260040160405180910390fd5b60029055565b6000805160206127758339815191525460ff161561076d5760405163d93c066560e01b815260040160405180910390fd5b6000828152600760205260409020546001600160a01b0382811691161461188e5760008281526007602052604090206001015442101561188e5760405163734e58d360e01b815260040160405180910390fd5b6040518060400160405280826001600160a01b03168152602001600454426118b691906125d8565b9052600083815260076020908152604091829020835181546001600160a01b0319166001600160a01b03909116908117825593820151600190910181905582519384529083015283917f4bcb63a820149f94fad42ada4d0440696719810795a6920160b14573f6a58174910160405180910390a25050565b600160008051602061279583398151915255565b7f9016d09d72d40fdae2fd8ceac6b6234c7706214fd39c1cd1e609a0528c19930080546001600160a01b031981166001600160a01b03848116918217845560405192169182907f8be0079c531659141344cd1fd0a4f28419497f9722a3daafe3b4186f6b6457e090600090a3505050565b60006006826040516119c59190612604565b908152604051908190036020019020541592915050565b600082826040516020016119f1929190612620565b60405160208183030381529060405280519060200120905092915050565b611a188461131a565b611a355760405163430f13b360e01b815260040160405180910390fd5b611a3e846119b3565b611a5b576040516301224a6f60e11b815260040160405180910390fd5b6000611a6785856119dc565b6000818152600760205260409020549091506001600160a01b0316611a9f57604051637d6fe8d760e11b815260040160405180910390fd5b600081815260076020526040902060010154421115611ad15760405163443df96f60e01b815260040160405180910390fd5b60008181526007602052604090819020546002549151631fb03ebd60e21b8152600481018590526001600160a01b0391821660248201819052929190911690637ec0faf490604401602060405180830381865afa158015611b36573d6000803e3d6000fd5b505050506040513d601f19601f82011682018060405250810190611b5a9190612468565b611b76576040516282b42960e81b815260040160405180910390fd5b6000838152600560205260409020611b8e8782612695565b5082600687604051611ba09190612604565b90815260408051602092819003830181209390935560008581526007909252812080546001600160a01b0319168155600101556001600160a01b03851690611be9908890612604565b604051908190038120858252907f8a168ef997ae6a1723ef504e6a0205acfe336ccb522561e95accebadde414b879060200160405180910390a3505050505050565b6000805160206127758339815191525460ff1661076d57604051638dfc202b60e01b815260040160405180910390fd5b7ff0c57e16840df040f15088dc2f81fe391c3923bec73e23a9662efc9c229c6a0054600160401b900460ff1661076d57604051631afcd79f60e31b815260040160405180910390fd5b611cac611c5b565b600080516020612775833981519152805460ff19169055565b6112a6611c5b565b61192e611c5b565b611cde82611d2b565b6040516001600160a01b038316907fbc7cd75a20ee27fd9adebab32041f755214dbc6bffa90cc0225b39da2e5c2d3b90600090a2805115611d23576117848282611d90565b610c9d611e06565b806001600160a01b03163b600003611d6157604051634c9c8ce360e01b81526001600160a01b03821660048201526024016112cc565b60008051602061275583398151915280546001600160a01b0319166001600160a01b0392909216919091179055565b6060600080846001600160a01b031684604051611dad9190612604565b600060405180830381855af49150503d8060008114611de8576040519150601f19603f3d011682016040523d82523d6000602084013e611ded565b606091505b5091509150611dfd858383611e25565b95945050505050565b341561076d5760405163b398979f60e01b815260040160405180910390fd5b606082611e3a57611e3582611e81565b610fcd565b8151158015611e5157506001600160a01b0384163b155b15611e7a57604051639996b31560e01b81526001600160a01b03851660048201526024016112cc565b5092915050565b805115611e915780518082602001fd5b604051630a12f52160e11b815260040160405180910390fd5b634e487b7160e01b600052604160045260246000fd5b604051601f8201601f191681016001600160401b0381118282101715611ee857611ee8611eaa565b604052919050565b60006001600160401b03831115611f0957611f09611eaa565b611f1c601f8401601f1916602001611ec0565b9050828152838383011115611f3057600080fd5b828260208301376000602084830101529392505050565b600082601f830112611f5857600080fd5b610fcd83833560208501611ef0565b600060208284031215611f7957600080fd5b81356001600160401b03811115611f8f57600080fd5b611f9b84828501611f47565b949350505050565b600060208284031215611fb557600080fd5b5035919050565b60006020808385031215611fcf57600080fd5b82356001600160401b0380821115611fe657600080fd5b818501915085601f830112611ffa57600080fd5b81358181111561200c5761200c611eaa565b8060051b915061201d848301611ec0565b818152918301840191848101908884111561203757600080fd5b938501935b838510156120555784358252938501939085019061203c565b98975050505050505050565b60005b8381101561207c578181015183820152602001612064565b50506000910152565b6000815180845261209d816020860160208601612061565b601f01601f19169290920160200192915050565b600060208083016020845280855180835260408601915060408160051b87010192506020870160005b8281101561210857603f198886030184526120f6858351612085565b945092850192908501906001016120da565b5092979650505050505050565b6001600160a01b03811681146112de57600080fd5b6000806040838503121561213d57600080fd5b823561214881612115565b9150602083013561215881612115565b809150509250929050565b6000806040838503121561217657600080fd5b823561218181612115565b915060208301356001600160401b0381111561219c57600080fd5b8301601f810185136121ad57600080fd5b6121bc85823560208401611ef0565b9150509250929050565b602081526000610fcd6020830184612085565b600080604083850312156121ec57600080fd5b82359150602083013561215881612115565b6000806040838503121561221157600080fd5b82356001600160401b038082111561222857600080fd5b61223486838701611f47565b9350602085013591508082111561224a57600080fd5b506121bc85828601611f47565b60008083601f84011261226957600080fd5b5081356001600160401b0381111561228057600080fd5b60208301915083602082850101111561229857600080fd5b9250929050565b60008060008060008060008060e0898b0312156122bb57600080fd5b88356122c681612115565b975060208901356001600160401b03808211156122e257600080fd5b6122ee8c838d01611f47565b985060408b013591508082111561230457600080fd5b6123108c838d01611f47565b975060608b0135965060808b0135955060a08b0135915061233082612115565b90935060c08a0135908082111561234657600080fd5b506123538b828c01612257565b999c989b5096995094979396929594505050565b60006020828403121561237957600080fd5b8135610fcd81612115565b6000806000806080858703121561239a57600080fd5b84356001600160401b03808211156123b157600080fd5b6123bd88838901611f47565b955060208701359150808211156123d357600080fd5b506123e087828801611f47565b93505060408501356123f181612115565b9396929550929360600135925050565b634e487b7160e01b600052603260045260246000fd5b600181811c9082168061242b57607f821691505b60208210810361075757634e487b7160e01b600052602260045260246000fd5b60006020828403121561245d57600080fd5b8151610fcd81612115565b60006020828403121561247a57600080fd5b81518015158114610fcd57600080fd5b600060018060a01b03808916835260c060208401526124ac60c0840189612085565b83810360408501526124be8189612085565b606085019790975250608083019490945250911660a0909101529392505050565b81835281816020850137506000828201602090810191909152601f909101601f19169091010190565b60018060a01b0385168152606060208201526000845160c06060840152612533610120840182612085565b90506020860151605f19808584030160808601526125518383612085565b925060408801519150808584030160a08601525061256f8282612085565b915050606086015160c0840152608086015160e084015260a086015161010084015282810360408401526125a48185876124df565b979650505050505050565b634e487b7160e01b600052601160045260246000fd5b8181038181111561061a5761061a6125af565b8082018082111561061a5761061a6125af565b6000602082840312156125fd57600080fd5b5051919050565b60008251612616818460208701612061565b9190910192915050565b6040815260006126336040830185612085565b8281036020840152611dfd8185612085565b601f821115611784576000816000526020600020601f850160051c8101602086101561266e5750805b601f850160051c820191505b8181101561268d5782815560010161267a565b505050505050565b81516001600160401b038111156126ae576126ae611eaa565b6126c2816126bc8454612417565b84612645565b602080601f8311600181146126f757600084156126df5750858301515b600019600386901b1c1916600185901b17855561268d565b600085815260208120601f198616915b8281101561272657888601518255948401946001909101908401612707565b50858210156127445787850151600019600388901b60f8161c191681555b5050505050600190811b0190555056fe360894a13ba1a3210667c828492db98dca3e2076cc3735a920a3ca505d382bbccd5ed15c6e187e77e9aee88184c21f4f2182ab5827cb3b7e07fbedcd63f033009b779b17422d0df92223018b32b4d1fa46e071723d6817e2486d003becc55f00a2646970667358221220afd5342e23645dab87b8a1b87678b825f4775b3ae312667c94d20a892d25f41e64736f6c63430008170033",
  "linkReferences": {},
  "deployedLinkReferences": {}
}