{
  "_format": "hh-sol-artifact-1",
  "contractName": "PortraitContractRegistry",
  "sourceName": "contracts/l2/PortraitContractRegistry.sol",
  "abi": [
    {
      "inputs": [],
      "stateMutability": "nonpayable",
      "type": "constructor"
    },
    {
      "inputs": [
        {
          "internalType": "address",
          "name": "target",
          "type": "address"
        }
      ],
      "name": "AddressEmptyCode",
      "type": "error"
    },
    {
      "inputs": [
        {
          "internalType": "address",
          "name": "implementation",
          "type": "address"
        }
      ],
      "name": "ERC1967InvalidImplementation",
      "type": "error"
    },
    {
      "inputs": [],
      "name": "ERC1967NonPayable",
      "type": "error"
    },
    {
      "inputs": [],
      "name": "FailedInnerCall",
      "type": "error"
    },
    {
      "inputs": [],
      "name": "InvalidInitialization",
      "type": "error"
    },
    {
      "inputs": [],
      "name": "NotInitializing",
      "type": "error"
    },
    {
      "inputs": [
        {
          "internalType": "address",
          "name": "owner",
          "type": "address"
        }
      ],
      "name": "OwnableInvalidOwner",
      "type": "error"
    },
    {
      "inputs": [
        {
          "internalType": "address",
          "name": "account",
          "type": "address"
        }
      ],
      "name": "OwnableUnauthorizedAccount",
      "type": "error"
    },
    {
      "inputs": [],
      "name": "UUPSUnauthorizedCallContext",
      "type": "error"
    },
    {
      "inputs": [
        {
          "internalType": "bytes32",
          "name": "slot",
          "type": "bytes32"
        }
      ],
      "name": "UUPSUnsupportedProxiableUUID",
      "type": "error"
    },
    {
      "anonymous": false,
      "inputs": [
        {
          "indexed": true,
          "internalType": "address",
          "name": "caller",
          "type": "address"
        },
        {
          "indexed": true,
          "internalType": "uint256",
          "name": "timestamp",
          "type": "uint256"
        }
      ],
      "name": "ExternalContractsUpdated",
      "type": "event"
    },
    {
      "anonymous": false,
      "inputs": [
        {
          "indexed": false,
          "internalType": "uint64",
          "name": "version",
          "type": "uint64"
        }
      ],
      "name": "Initialized",
      "type": "event"
    },
    {
      "anonymous": false,
      "inputs": [
        {
          "indexed": true,
          "internalType": "address",
          "name": "previousOwner",
          "type": "address"
        },
        {
          "indexed": true,
          "internalType": "address",
          "name": "newOwner",
          "type": "address"
        }
      ],
      "name": "OwnershipTransferred",
      "type": "event"
    },
    {
      "anonymous": false,
      "inputs": [
        {
          "indexed": true,
          "internalType": "address",
          "name": "implementation",
          "type": "address"
        }
      ],
      "name": "Upgraded",
      "type": "event"
    },
    {
      "inputs": [],
      "name": "UPGRADE_INTERFACE_VERSION",
      "outputs": [
        {
          "internalType": "string",
          "name": "",
          "type": "string"
        }
      ],
      "stateMutability": "view",
      "type": "function"
    },
    {
      "inputs": [
        {
          "internalType": "address",
          "name": "initialOwner",
          "type": "address"
        }
      ],
      "name": "initialize",
      "outputs": [],
      "stateMutability": "nonpayable",
      "type": "function"
    },
    {
      "inputs": [],
      "name": "owner",
      "outputs": [
        {
          "internalType": "address",
          "name": "",
          "type": "address"
        }
      ],
      "stateMutability": "view",
      "type": "function"
    },
    {
      "inputs": [],
      "name": "portraitAccessRegistry",
      "outputs": [
        {
          "internalType": "contract IPortraitAccessRegistry",
          "name": "",
          "type": "address"
        }
      ],
      "stateMutability": "view",
      "type": "function"
    },
    {
      "inputs": [],
      "name": "portraitIdRegistry",
      "outputs": [
        {
          "internalType": "contract IPortraitIdRegistry",
          "name": "",
          "type": "address"
        }
      ],
      "stateMutability": "view",
      "type": "function"
    },
    {
      "inputs": [],
      "name": "portraitNameRegistry",
      "outputs": [
        {
          "internalType": "contract IPortraitNameRegistry",
          "name": "",
          "type": "address"
        }
      ],
      "stateMutability": "view",
      "type": "function"
    },
    {
      "inputs": [],
      "name": "portraitNodeRegistry",
      "outputs": [
        {
          "internalType": "contract IPortraitNodeRegistry",
          "name": "",
          "type": "address"
        }
      ],
      "stateMutability": "view",
      "type": "function"
    },
    {
      "inputs": [],
      "name": "portraitPlanRegistry",
      "outputs": [
        {
          "internalType": "contract IPortraitPlanRegistry",
          "name": "",
          "type": "address"
        }
      ],
      "stateMutability": "view",
      "type": "function"
    },
    {
      "inputs": [],
      "name": "portraitSigValidator",
      "outputs": [
        {
          "internalType": "contract PortraitSigValidator",
          "name": "",
          "type": "address"
        }
      ],
      "stateMutability": "view",
      "type": "function"
    },
    {
      "inputs": [],
      "name": "portraitStateRegistry",
      "outputs": [
        {
          "internalType": "contract IPortraitStateRegistry",
          "name": "",
          "type": "address"
        }
      ],
      "stateMutability": "view",
      "type": "function"
    },
    {
      "inputs": [],
      "name": "proxiableUUID",
      "outputs": [
        {
          "internalType": "bytes32",
          "name": "",
          "type": "bytes32"
        }
      ],
      "stateMutability": "view",
      "type": "function"
    },
    {
      "inputs": [],
      "name": "renounceOwnership",
      "outputs": [],
      "stateMutability": "nonpayable",
      "type": "function"
    },
    {
      "inputs": [
        {
          "internalType": "address",
          "name": "newOwner",
          "type": "address"
        }
      ],
      "name": "transferOwnership",
      "outputs": [],
      "stateMutability": "nonpayable",
      "type": "function"
    },
    {
      "inputs": [],
      "name": "updateAllExternalContracts",
      "outputs": [],
      "stateMutability": "nonpayable",
      "type": "function"
    },
    {
      "inputs": [
        {
          "internalType": "address",
          "name": "portraitIdRegistryAddress",
          "type": "address"
        },
        {
          "internalType": "address",
          "name": "portraitAccessRegistryAddress",
          "type": "address"
        },
        {
          "internalType": "address",
          "name": "portraitPlanRegistryAddress",
          "type": "address"
        },
        {
          "internalType": "address",
          "name": "portraitNameRegistryAddress",
          "type": "address"
        },
        {
          "internalType": "address",
          "name": "portraitStateRegistryAddress",
          "type": "address"
        },
        {
          "internalType": "address",
          "name": "portraitNodeRegistryAddress",
          "type": "address"
        },
        {
          "internalType": "address",
          "name": "portraitSigValidatorAddress",
          "type": "address"
        }
      ],
      "name": "updateProtocolContracts",
      "outputs": [],
      "stateMutability": "nonpayable",
      "type": "function"
    },
    {
      "inputs": [
        {
          "internalType": "address",
          "name": "newImplementation",
          "type": "address"
        },
        {
          "internalType": "bytes",
          "name": "data",
          "type": "bytes"
        }
      ],
      "name": "upgradeToAndCall",
      "outputs": [],
      "stateMutability": "payable",
      "type": "function"
    }
  ],
  "bytecode": "0x60a06040523060805234801561001457600080fd5b5061001d610022565b6100d4565b7ff0c57e16840df040f15088dc2f81fe391c3923bec73e23a9662efc9c229c6a00805468010000000000000000900460ff16156100725760405163f92ee8a960e01b815260040160405180910390fd5b80546001600160401b03908116146100d15780546001600160401b0319166001600160401b0390811782556040519081527fc7f505b2f371ae2175ee4913f4499e1f2633a7b5936321eed1cdaeb6115181d29060200160405180910390a15b50565b608051610f336100fd600039600081816105ab015281816105d4015261071a0152610f336000f3fe6080604052600436106100f25760003560e01c80638c2291071161008a578063c4d66de811610059578063c4d66de8146102b1578063c80dfc3a146102d1578063df02d60a146102f1578063f2fde38b1461031157600080fd5b80638c229107146102015780638da5cb5b14610221578063a57e7cb71461025e578063ad3cb1cc1461027357600080fd5b8063608c8de5116100c6578063608c8de51461018c5780636e9807a5146101ac578063715018a6146101cc57806388c5d897146101e157600080fd5b806267e11b146100f7578063245c7aa6146101345780634f1ef2861461015457806352d1902d14610169575b600080fd5b34801561010357600080fd5b50600454610117906001600160a01b031681565b6040516001600160a01b0390911681526020015b60405180910390f35b34801561014057600080fd5b50600654610117906001600160a01b031681565b610167610162366004610cee565b610331565b005b34801561017557600080fd5b5061017e610350565b60405190815260200161012b565b34801561019857600080fd5b50600354610117906001600160a01b031681565b3480156101b857600080fd5b50600254610117906001600160a01b031681565b3480156101d857600080fd5b5061016761036d565b3480156101ed57600080fd5b50600054610117906001600160a01b031681565b34801561020d57600080fd5b50600554610117906001600160a01b031681565b34801561022d57600080fd5b507f9016d09d72d40fdae2fd8ceac6b6234c7706214fd39c1cd1e609a0528c199300546001600160a01b0316610117565b34801561026a57600080fd5b50610167610381565b34801561027f57600080fd5b506102a4604051806040016040528060058152602001640352e302e360dc1b81525081565b60405161012b9190610dd4565b3480156102bd57600080fd5b506101676102cc366004610e07565b610391565b3480156102dd57600080fd5b50600154610117906001600160a01b031681565b3480156102fd57600080fd5b5061016761030c366004610e22565b6104a9565b34801561031d57600080fd5b5061016761032c366004610e07565b61055d565b6103396105a0565b61034282610645565b61034c828261064d565b5050565b600061035a61070f565b50600080516020610ede83398151915290565b610375610758565b61037f60006107b3565b565b610389610758565b61037f610824565b7ff0c57e16840df040f15088dc2f81fe391c3923bec73e23a9662efc9c229c6a008054600160401b810460ff16159067ffffffffffffffff166000811580156103d75750825b905060008267ffffffffffffffff1660011480156103f45750303b155b905081158015610402575080155b156104205760405163f92ee8a960e01b815260040160405180910390fd5b845467ffffffffffffffff19166001178555831561044a57845460ff60401b1916600160401b1785555b61045386610a7a565b61045b610a8b565b83156104a157845460ff60401b19168555604051600181527fc7f505b2f371ae2175ee4913f4499e1f2633a7b5936321eed1cdaeb6115181d29060200160405180910390a15b505050505050565b6104b1610758565b600080546001600160a01b03199081166001600160a01b038a81169190911790925560018054821689841617905560028054821688841617905560038054821687841617905560048054821686841617905560058054821685841617905560068054909116918316919091179055610527610824565b604051429033907f33165447da126b32776620eb7717cdb52b0f09d0894cd4f7553d25e5e427c43290600090a350505050505050565b610565610758565b6001600160a01b03811661059457604051631e4fbdf760e01b8152600060048201526024015b60405180910390fd5b61059d816107b3565b50565b306001600160a01b037f000000000000000000000000000000000000000000000000000000000000000016148061062757507f00000000000000000000000000000000000000000000000000000000000000006001600160a01b031661061b600080516020610ede833981519152546001600160a01b031690565b6001600160a01b031614155b1561037f5760405163703e46dd60e11b815260040160405180910390fd5b61059d610758565b816001600160a01b03166352d1902d6040518163ffffffff1660e01b8152600401602060405180830381865afa9250505080156106a7575060408051601f3d908101601f191682019092526106a491810190610ea8565b60015b6106cf57604051634c9c8ce360e01b81526001600160a01b038316600482015260240161058b565b600080516020610ede833981519152811461070057604051632a87526960e21b81526004810182905260240161058b565b61070a8383610a93565b505050565b306001600160a01b037f0000000000000000000000000000000000000000000000000000000000000000161461037f5760405163703e46dd60e11b815260040160405180910390fd5b3361078a7f9016d09d72d40fdae2fd8ceac6b6234c7706214fd39c1cd1e609a0528c199300546001600160a01b031690565b6001600160a01b03161461037f5760405163118cdaa760e01b815233600482015260240161058b565b7f9016d09d72d40fdae2fd8ceac6b6234c7706214fd39c1cd1e609a0528c19930080546001600160a01b031981166001600160a01b03848116918217845560405192169182907f8be0079c531659141344cd1fd0a4f28419497f9722a3daafe3b4186f6b6457e090600090a3505050565b6000805460408051632efc471560e11b815290516001600160a01b0390921692635df88e2a9260048084019382900301818387803b15801561086557600080fd5b505af1158015610879573d6000803e3d6000fd5b50505050600160009054906101000a90046001600160a01b03166001600160a01b0316635df88e2a6040518163ffffffff1660e01b8152600401600060405180830381600087803b1580156108cd57600080fd5b505af11580156108e1573d6000803e3d6000fd5b50505050600260009054906101000a90046001600160a01b03166001600160a01b0316635df88e2a6040518163ffffffff1660e01b8152600401600060405180830381600087803b15801561093557600080fd5b505af1158015610949573d6000803e3d6000fd5b50505050600360009054906101000a90046001600160a01b03166001600160a01b0316635df88e2a6040518163ffffffff1660e01b8152600401600060405180830381600087803b15801561099d57600080fd5b505af11580156109b1573d6000803e3d6000fd5b50506004805460408051632efc471560e11b815290516001600160a01b039092169450635df88e2a9350808301926000929182900301818387803b1580156109f857600080fd5b505af1158015610a0c573d6000803e3d6000fd5b50505050600560009054906101000a90046001600160a01b03166001600160a01b0316635df88e2a6040518163ffffffff1660e01b8152600401600060405180830381600087803b158015610a6057600080fd5b505af1158015610a74573d6000803e3d6000fd5b50505050565b610a82610ae9565b61059d81610b32565b61037f610ae9565b610a9c82610b3a565b6040516001600160a01b038316907fbc7cd75a20ee27fd9adebab32041f755214dbc6bffa90cc0225b39da2e5c2d3b90600090a2805115610ae15761070a8282610b9f565b61034c610c15565b7ff0c57e16840df040f15088dc2f81fe391c3923bec73e23a9662efc9c229c6a0054600160401b900460ff1661037f57604051631afcd79f60e31b815260040160405180910390fd5b610565610ae9565b806001600160a01b03163b600003610b7057604051634c9c8ce360e01b81526001600160a01b038216600482015260240161058b565b600080516020610ede83398151915280546001600160a01b0319166001600160a01b0392909216919091179055565b6060600080846001600160a01b031684604051610bbc9190610ec1565b600060405180830381855af49150503d8060008114610bf7576040519150601f19603f3d011682016040523d82523d6000602084013e610bfc565b606091505b5091509150610c0c858383610c34565b95945050505050565b341561037f5760405163b398979f60e01b815260040160405180910390fd5b606082610c4957610c4482610c93565b610c8c565b8151158015610c6057506001600160a01b0384163b155b15610c8957604051639996b31560e01b81526001600160a01b038516600482015260240161058b565b50805b9392505050565b805115610ca35780518082602001fd5b604051630a12f52160e11b815260040160405180910390fd5b80356001600160a01b0381168114610cd357600080fd5b919050565b634e487b7160e01b600052604160045260246000fd5b60008060408385031215610d0157600080fd5b610d0a83610cbc565b9150602083013567ffffffffffffffff80821115610d2757600080fd5b818501915085601f830112610d3b57600080fd5b813581811115610d4d57610d4d610cd8565b604051601f8201601f19908116603f01168101908382118183101715610d7557610d75610cd8565b81604052828152886020848701011115610d8e57600080fd5b8260208601602083013760006020848301015280955050505050509250929050565b60005b83811015610dcb578181015183820152602001610db3565b50506000910152565b6020815260008251806020840152610df3816040850160208701610db0565b601f01601f19169190910160400192915050565b600060208284031215610e1957600080fd5b610c8c82610cbc565b600080600080600080600060e0888a031215610e3d57600080fd5b610e4688610cbc565b9650610e5460208901610cbc565b9550610e6260408901610cbc565b9450610e7060608901610cbc565b9350610e7e60808901610cbc565b9250610e8c60a08901610cbc565b9150610e9a60c08901610cbc565b905092959891949750929550565b600060208284031215610eba57600080fd5b5051919050565b60008251610ed3818460208701610db0565b919091019291505056fe360894a13ba1a3210667c828492db98dca3e2076cc3735a920a3ca505d382bbca2646970667358221220954a6b2e17dec4eb84a5717b121fecc05f01fdba1bc5d29305f6fdfb1bc57aa264736f6c63430008170033",
  "linkReferences": {},
  "deployedLinkReferences": {}
}