{
  "_format": "hh-sol-artifact-1",
  "contractName": "PortraitPlanRegistry",
  "sourceName": "contracts/l2/PortraitPlanRegistry.sol",
  "abi": [
    {
      "inputs": [],
      "stateMutability": "nonpayable",
      "type": "constructor"
    },
    {
      "inputs": [
        {
          "internalType": "address",
          "name": "target",
          "type": "address"
        }
      ],
      "name": "AddressEmptyCode",
      "type": "error"
    },
    {
      "inputs": [
        {
          "internalType": "address",
          "name": "implementation",
          "type": "address"
        }
      ],
      "name": "ERC1967InvalidImplementation",
      "type": "error"
    },
    {
      "inputs": [],
      "name": "ERC1967NonPayable",
      "type": "error"
    },
    {
      "inputs": [],
      "name": "EnforcedPause",
      "type": "error"
    },
    {
      "inputs": [],
      "name": "ExpectedPause",
      "type": "error"
    },
    {
      "inputs": [],
      "name": "FailedInnerCall",
      "type": "error"
    },
    {
      "inputs": [],
      "name": "InsufficientFunds",
      "type": "error"
    },
    {
      "inputs": [],
      "name": "InvalidAction",
      "type": "error"
    },
    {
      "inputs": [],
      "name": "InvalidAddress",
      "type": "error"
    },
    {
      "inputs": [],
      "name": "InvalidInitialization",
      "type": "error"
    },
    {
      "inputs": [],
      "name": "InvalidPlan",
      "type": "error"
    },
    {
      "inputs": [],
      "name": "NoTeamRole",
      "type": "error"
    },
    {
      "inputs": [],
      "name": "NotInitializing",
      "type": "error"
    },
    {
      "inputs": [
        {
          "internalType": "address",
          "name": "owner",
          "type": "address"
        }
      ],
      "name": "OwnableInvalidOwner",
      "type": "error"
    },
    {
      "inputs": [
        {
          "internalType": "address",
          "name": "account",
          "type": "address"
        }
      ],
      "name": "OwnableUnauthorizedAccount",
      "type": "error"
    },
    {
      "inputs": [],
      "name": "ReentrancyGuardReentrantCall",
      "type": "error"
    },
    {
      "inputs": [],
      "name": "UUPSUnauthorizedCallContext",
      "type": "error"
    },
    {
      "inputs": [
        {
          "internalType": "bytes32",
          "name": "slot",
          "type": "bytes32"
        }
      ],
      "name": "UUPSUnsupportedProxiableUUID",
      "type": "error"
    },
    {
      "inputs": [],
      "name": "Unauthorized",
      "type": "error"
    },
    {
      "anonymous": false,
      "inputs": [
        {
          "indexed": true,
          "internalType": "uint256",
          "name": "timestamp",
          "type": "uint256"
        },
        {
          "indexed": true,
          "internalType": "uint256",
          "name": "individualPlusPrice",
          "type": "uint256"
        }
      ],
      "name": "IndividualPlusPriceUpdated",
      "type": "event"
    },
    {
      "anonymous": false,
      "inputs": [
        {
          "indexed": false,
          "internalType": "uint64",
          "name": "version",
          "type": "uint64"
        }
      ],
      "name": "Initialized",
      "type": "event"
    },
    {
      "anonymous": false,
      "inputs": [
        {
          "indexed": true,
          "internalType": "address",
          "name": "previousOwner",
          "type": "address"
        },
        {
          "indexed": true,
          "internalType": "address",
          "name": "newOwner",
          "type": "address"
        }
      ],
      "name": "OwnershipTransferred",
      "type": "event"
    },
    {
      "anonymous": false,
      "inputs": [
        {
          "indexed": false,
          "internalType": "address",
          "name": "account",
          "type": "address"
        }
      ],
      "name": "Paused",
      "type": "event"
    },
    {
      "anonymous": false,
      "inputs": [
        {
          "indexed": true,
          "internalType": "uint256",
          "name": "portraitId",
          "type": "uint256"
        },
        {
          "indexed": false,
          "internalType": "enum IPortraitPlanRegistry.PlanType",
          "name": "planType",
          "type": "uint8"
        },
        {
          "indexed": false,
          "internalType": "uint256",
          "name": "newExpirationTimestamp",
          "type": "uint256"
        }
      ],
      "name": "PlanTypeSet",
      "type": "event"
    },
    {
      "anonymous": false,
      "inputs": [
        {
          "indexed": true,
          "internalType": "uint256",
          "name": "portraitId",
          "type": "uint256"
        },
        {
          "indexed": true,
          "internalType": "uint256",
          "name": "portraitIdToToggle",
          "type": "uint256"
        },
        {
          "indexed": false,
          "internalType": "enum IPortraitPlanRegistry.TeamRoleType",
          "name": "role",
          "type": "uint8"
        },
        {
          "indexed": false,
          "internalType": "bool",
          "name": "hasAssigned",
          "type": "bool"
        },
        {
          "indexed": false,
          "internalType": "bool",
          "name": "hasAccepted",
          "type": "bool"
        }
      ],
      "name": "RoleToggled",
      "type": "event"
    },
    {
      "anonymous": false,
      "inputs": [
        {
          "indexed": true,
          "internalType": "uint256",
          "name": "timestamp",
          "type": "uint256"
        },
        {
          "indexed": true,
          "internalType": "uint256",
          "name": "teamPrice",
          "type": "uint256"
        }
      ],
      "name": "TeamPriceUpdated",
      "type": "event"
    },
    {
      "anonymous": false,
      "inputs": [
        {
          "indexed": true,
          "internalType": "uint256",
          "name": "timestamp",
          "type": "uint256"
        },
        {
          "indexed": true,
          "internalType": "uint256",
          "name": "teamSeatPrice",
          "type": "uint256"
        }
      ],
      "name": "TeamSeatPriceUpdated",
      "type": "event"
    },
    {
      "anonymous": false,
      "inputs": [
        {
          "indexed": false,
          "internalType": "address",
          "name": "account",
          "type": "address"
        }
      ],
      "name": "Unpaused",
      "type": "event"
    },
    {
      "anonymous": false,
      "inputs": [
        {
          "indexed": true,
          "internalType": "address",
          "name": "implementation",
          "type": "address"
        }
      ],
      "name": "Upgraded",
      "type": "event"
    },
    {
      "inputs": [],
      "name": "UPGRADE_INTERFACE_VERSION",
      "outputs": [
        {
          "internalType": "string",
          "name": "",
          "type": "string"
        }
      ],
      "stateMutability": "view",
      "type": "function"
    },
    {
      "inputs": [],
      "name": "bridgeServiceAddress",
      "outputs": [
        {
          "internalType": "address",
          "name": "",
          "type": "address"
        }
      ],
      "stateMutability": "view",
      "type": "function"
    },
    {
      "inputs": [],
      "name": "getChainlinkDataFeedLatestAnswer",
      "outputs": [
        {
          "internalType": "int256",
          "name": "price",
          "type": "int256"
        }
      ],
      "stateMutability": "view",
      "type": "function"
    },
    {
      "inputs": [],
      "name": "getIndividualPlusPriceInWei",
      "outputs": [
        {
          "internalType": "uint256",
          "name": "",
          "type": "uint256"
        }
      ],
      "stateMutability": "view",
      "type": "function"
    },
    {
      "inputs": [
        {
          "internalType": "uint256",
          "name": "portraitId",
          "type": "uint256"
        }
      ],
      "name": "getPlanDataForPortraitId",
      "outputs": [
        {
          "components": [
            {
              "internalType": "enum IPortraitPlanRegistry.PlanType",
              "name": "planType",
              "type": "uint8"
            },
            {
              "internalType": "uint256",
              "name": "expirationTimestamp",
              "type": "uint256"
            }
          ],
          "internalType": "struct IPortraitPlanRegistry.PlanData",
          "name": "planData",
          "type": "tuple"
        }
      ],
      "stateMutability": "view",
      "type": "function"
    },
    {
      "inputs": [
        {
          "internalType": "uint256",
          "name": "portraitId",
          "type": "uint256"
        }
      ],
      "name": "getPlanType",
      "outputs": [
        {
          "internalType": "enum IPortraitPlanRegistry.PlanType",
          "name": "",
          "type": "uint8"
        }
      ],
      "stateMutability": "view",
      "type": "function"
    },
    {
      "inputs": [
        {
          "internalType": "uint256",
          "name": "portraitIdOfTeam",
          "type": "uint256"
        },
        {
          "internalType": "uint256",
          "name": "portraitIdWithPotentialRole",
          "type": "uint256"
        }
      ],
      "name": "getTeamPortraitIdToPortraitIdToTeamRoleData",
      "outputs": [
        {
          "components": [
            {
              "internalType": "enum IPortraitPlanRegistry.TeamRoleType",
              "name": "roleType",
              "type": "uint8"
            },
            {
              "internalType": "bool",
              "name": "hasAssigned",
              "type": "bool"
            },
            {
              "internalType": "bool",
              "name": "hasAccepted",
              "type": "bool"
            }
          ],
          "internalType": "struct IPortraitPlanRegistry.TeamRoleData",
          "name": "",
          "type": "tuple"
        }
      ],
      "stateMutability": "view",
      "type": "function"
    },
    {
      "inputs": [],
      "name": "getTeamPriceInWei",
      "outputs": [
        {
          "internalType": "uint256",
          "name": "",
          "type": "uint256"
        }
      ],
      "stateMutability": "view",
      "type": "function"
    },
    {
      "inputs": [
        {
          "internalType": "uint256",
          "name": "portraitIdWithPotentialRole",
          "type": "uint256"
        },
        {
          "internalType": "uint256",
          "name": "portraitIdOfTeam",
          "type": "uint256"
        }
      ],
      "name": "getTeamRoleForPortraitId",
      "outputs": [
        {
          "internalType": "enum IPortraitPlanRegistry.TeamRoleType",
          "name": "role",
          "type": "uint8"
        }
      ],
      "stateMutability": "view",
      "type": "function"
    },
    {
      "inputs": [],
      "name": "getTeamSeatPriceInWei",
      "outputs": [
        {
          "internalType": "uint256",
          "name": "",
          "type": "uint256"
        }
      ],
      "stateMutability": "view",
      "type": "function"
    },
    {
      "inputs": [
        {
          "internalType": "uint256",
          "name": "portraitIdWithPotentialRole",
          "type": "uint256"
        },
        {
          "internalType": "uint256",
          "name": "portraitIdOfTeam",
          "type": "uint256"
        },
        {
          "internalType": "enum IPortraitPlanRegistry.TeamRoleType",
          "name": "roleType",
          "type": "uint8"
        }
      ],
      "name": "hasTeamRole",
      "outputs": [
        {
          "internalType": "bool",
          "name": "",
          "type": "bool"
        }
      ],
      "stateMutability": "view",
      "type": "function"
    },
    {
      "inputs": [],
      "name": "individualPlusPrice",
      "outputs": [
        {
          "internalType": "uint256",
          "name": "",
          "type": "uint256"
        }
      ],
      "stateMutability": "view",
      "type": "function"
    },
    {
      "inputs": [
        {
          "internalType": "address",
          "name": "initialOwner",
          "type": "address"
        },
        {
          "internalType": "address",
          "name": "portraitContractRegistryAddress",
          "type": "address"
        }
      ],
      "name": "initialize",
      "outputs": [],
      "stateMutability": "nonpayable",
      "type": "function"
    },
    {
      "inputs": [
        {
          "internalType": "uint256",
          "name": "portraitId",
          "type": "uint256"
        }
      ],
      "name": "isTeamPlan",
      "outputs": [
        {
          "internalType": "bool",
          "name": "isTeam",
          "type": "bool"
        }
      ],
      "stateMutability": "view",
      "type": "function"
    },
    {
      "inputs": [],
      "name": "oneMonth",
      "outputs": [
        {
          "internalType": "uint256",
          "name": "",
          "type": "uint256"
        }
      ],
      "stateMutability": "view",
      "type": "function"
    },
    {
      "inputs": [],
      "name": "owner",
      "outputs": [
        {
          "internalType": "address",
          "name": "",
          "type": "address"
        }
      ],
      "stateMutability": "view",
      "type": "function"
    },
    {
      "inputs": [],
      "name": "pause",
      "outputs": [],
      "stateMutability": "nonpayable",
      "type": "function"
    },
    {
      "inputs": [],
      "name": "paused",
      "outputs": [
        {
          "internalType": "bool",
          "name": "",
          "type": "bool"
        }
      ],
      "stateMutability": "view",
      "type": "function"
    },
    {
      "inputs": [],
      "name": "portraitAccessRegistry",
      "outputs": [
        {
          "internalType": "contract IPortraitAccessRegistry",
          "name": "",
          "type": "address"
        }
      ],
      "stateMutability": "view",
      "type": "function"
    },
    {
      "inputs": [],
      "name": "portraitContractRegistry",
      "outputs": [
        {
          "internalType": "contract IPortraitContractRegistry",
          "name": "",
          "type": "address"
        }
      ],
      "stateMutability": "view",
      "type": "function"
    },
    {
      "inputs": [],
      "name": "portraitIdRegistry",
      "outputs": [
        {
          "internalType": "contract IPortraitIdRegistry",
          "name": "",
          "type": "address"
        }
      ],
      "stateMutability": "view",
      "type": "function"
    },
    {
      "inputs": [
        {
          "internalType": "uint256",
          "name": "",
          "type": "uint256"
        }
      ],
      "name": "portraitIdToAmountOfSeats",
      "outputs": [
        {
          "internalType": "uint256",
          "name": "",
          "type": "uint256"
        }
      ],
      "stateMutability": "view",
      "type": "function"
    },
    {
      "inputs": [
        {
          "internalType": "uint256",
          "name": "",
          "type": "uint256"
        }
      ],
      "name": "portraitIdToPlanData",
      "outputs": [
        {
          "internalType": "enum IPortraitPlanRegistry.PlanType",
          "name": "planType",
          "type": "uint8"
        },
        {
          "internalType": "uint256",
          "name": "expirationTimestamp",
          "type": "uint256"
        }
      ],
      "stateMutability": "view",
      "type": "function"
    },
    {
      "inputs": [],
      "name": "portraitSigValidator",
      "outputs": [
        {
          "internalType": "contract PortraitSigValidator",
          "name": "",
          "type": "address"
        }
      ],
      "stateMutability": "view",
      "type": "function"
    },
    {
      "inputs": [],
      "name": "proxiableUUID",
      "outputs": [
        {
          "internalType": "bytes32",
          "name": "",
          "type": "bytes32"
        }
      ],
      "stateMutability": "view",
      "type": "function"
    },
    {
      "inputs": [],
      "name": "renounceOwnership",
      "outputs": [],
      "stateMutability": "nonpayable",
      "type": "function"
    },
    {
      "inputs": [
        {
          "internalType": "address payable",
          "name": "recipient",
          "type": "address"
        },
        {
          "internalType": "uint256",
          "name": "amount",
          "type": "uint256"
        }
      ],
      "name": "sendFunds",
      "outputs": [],
      "stateMutability": "nonpayable",
      "type": "function"
    },
    {
      "inputs": [
        {
          "internalType": "address",
          "name": "newBridgeServiceAddress",
          "type": "address"
        }
      ],
      "name": "setBridgeServiceAddress",
      "outputs": [],
      "stateMutability": "nonpayable",
      "type": "function"
    },
    {
      "inputs": [
        {
          "internalType": "address",
          "name": "newDataFeed",
          "type": "address"
        }
      ],
      "name": "setChainlinkDataFeed",
      "outputs": [],
      "stateMutability": "nonpayable",
      "type": "function"
    },
    {
      "inputs": [
        {
          "internalType": "uint256",
          "name": "newIndividualPlusPrice",
          "type": "uint256"
        }
      ],
      "name": "setIndividualPlusPrice",
      "outputs": [],
      "stateMutability": "nonpayable",
      "type": "function"
    },
    {
      "inputs": [
        {
          "internalType": "uint256",
          "name": "portraitId",
          "type": "uint256"
        },
        {
          "internalType": "enum IPortraitPlanRegistry.PlanType",
          "name": "planType",
          "type": "uint8"
        },
        {
          "internalType": "address",
          "name": "caller",
          "type": "address"
        },
        {
          "internalType": "uint256",
          "name": "weiAmount",
          "type": "uint256"
        }
      ],
      "name": "setPlanType",
      "outputs": [],
      "stateMutability": "nonpayable",
      "type": "function"
    },
    {
      "inputs": [
        {
          "internalType": "uint256",
          "name": "newTeamPrice",
          "type": "uint256"
        }
      ],
      "name": "setTeamPrice",
      "outputs": [],
      "stateMutability": "nonpayable",
      "type": "function"
    },
    {
      "inputs": [
        {
          "internalType": "uint256",
          "name": "newTeamSeatPrice",
          "type": "uint256"
        }
      ],
      "name": "setTeamSeatPrice",
      "outputs": [],
      "stateMutability": "nonpayable",
      "type": "function"
    },
    {
      "inputs": [
        {
          "internalType": "uint256",
          "name": "",
          "type": "uint256"
        },
        {
          "internalType": "uint256",
          "name": "",
          "type": "uint256"
        }
      ],
      "name": "teamPortraitIdToPortraitIdToTeamRoleData",
      "outputs": [
        {
          "internalType": "enum IPortraitPlanRegistry.TeamRoleType",
          "name": "roleType",
          "type": "uint8"
        },
        {
          "internalType": "bool",
          "name": "hasAssigned",
          "type": "bool"
        },
        {
          "internalType": "bool",
          "name": "hasAccepted",
          "type": "bool"
        }
      ],
      "stateMutability": "view",
      "type": "function"
    },
    {
      "inputs": [],
      "name": "teamPrice",
      "outputs": [
        {
          "internalType": "uint256",
          "name": "",
          "type": "uint256"
        }
      ],
      "stateMutability": "view",
      "type": "function"
    },
    {
      "inputs": [],
      "name": "teamSeatPrice",
      "outputs": [
        {
          "internalType": "uint256",
          "name": "",
          "type": "uint256"
        }
      ],
      "stateMutability": "view",
      "type": "function"
    },
    {
      "inputs": [
        {
          "internalType": "uint256",
          "name": "portraitIdWithAuthority",
          "type": "uint256"
        },
        {
          "internalType": "uint256",
          "name": "portraitIdOfTeam",
          "type": "uint256"
        },
        {
          "internalType": "uint256",
          "name": "portraitIdToToggle",
          "type": "uint256"
        },
        {
          "internalType": "enum IPortraitPlanRegistry.TeamRoleType",
          "name": "roleType",
          "type": "uint8"
        }
      ],
      "name": "toggleTeamRole",
      "outputs": [
        {
          "components": [
            {
              "internalType": "enum IPortraitPlanRegistry.TeamRoleType",
              "name": "roleType",
              "type": "uint8"
            },
            {
              "internalType": "bool",
              "name": "hasAssigned",
              "type": "bool"
            },
            {
              "internalType": "bool",
              "name": "hasAccepted",
              "type": "bool"
            }
          ],
          "internalType": "struct IPortraitPlanRegistry.TeamRoleData",
          "name": "_teamRoleData",
          "type": "tuple"
        }
      ],
      "stateMutability": "nonpayable",
      "type": "function"
    },
    {
      "inputs": [
        {
          "internalType": "uint256",
          "name": "portraitIdWithAuthority",
          "type": "uint256"
        },
        {
          "internalType": "uint256",
          "name": "portraitIdOfTeam",
          "type": "uint256"
        },
        {
          "internalType": "uint256[]",
          "name": "portraitIdsToToggle",
          "type": "uint256[]"
        },
        {
          "internalType": "enum IPortraitPlanRegistry.TeamRoleType",
          "name": "roleType",
          "type": "uint8"
        }
      ],
      "name": "toggleTeamRoleArray",
      "outputs": [],
      "stateMutability": "nonpayable",
      "type": "function"
    },
    {
      "inputs": [
        {
          "internalType": "uint256",
          "name": "portraitIdWithRoleAssigned",
          "type": "uint256"
        },
        {
          "internalType": "uint256",
          "name": "portraitIdOfTeam",
          "type": "uint256"
        }
      ],
      "name": "toggleTeamRoleRequest",
      "outputs": [
        {
          "components": [
            {
              "internalType": "enum IPortraitPlanRegistry.TeamRoleType",
              "name": "roleType",
              "type": "uint8"
            },
            {
              "internalType": "bool",
              "name": "hasAssigned",
              "type": "bool"
            },
            {
              "internalType": "bool",
              "name": "hasAccepted",
              "type": "bool"
            }
          ],
          "internalType": "struct IPortraitPlanRegistry.TeamRoleData",
          "name": "_teamRoleData",
          "type": "tuple"
        }
      ],
      "stateMutability": "nonpayable",
      "type": "function"
    },
    {
      "inputs": [
        {
          "internalType": "uint256",
          "name": "portraitIdWithRoleAssigned",
          "type": "uint256"
        },
        {
          "internalType": "uint256",
          "name": "portraitIdOfTeam",
          "type": "uint256"
        },
        {
          "internalType": "uint256[]",
          "name": "portraitIdsToToggle",
          "type": "uint256[]"
        }
      ],
      "name": "toggleTeamRoleRequestArray",
      "outputs": [],
      "stateMutability": "nonpayable",
      "type": "function"
    },
    {
      "inputs": [
        {
          "internalType": "address",
          "name": "newOwner",
          "type": "address"
        }
      ],
      "name": "transferOwnership",
      "outputs": [],
      "stateMutability": "nonpayable",
      "type": "function"
    },
    {
      "inputs": [],
      "name": "unpause",
      "outputs": [],
      "stateMutability": "nonpayable",
      "type": "function"
    },
    {
      "inputs": [],
      "name": "updateProtocolContracts",
      "outputs": [],
      "stateMutability": "nonpayable",
      "type": "function"
    },
    {
      "inputs": [
        {
          "internalType": "address",
          "name": "newImplementation",
          "type": "address"
        },
        {
          "internalType": "bytes",
          "name": "data",
          "type": "bytes"
        }
      ],
      "name": "upgradeToAndCall",
      "outputs": [],
      "stateMutability": "payable",
      "type": "function"
    }
  ],
  "bytecode": "0x60a0604052306080523480156200001557600080fd5b506200002062000026565b620000da565b7ff0c57e16840df040f15088dc2f81fe391c3923bec73e23a9662efc9c229c6a00805468010000000000000000900460ff1615620000775760405163f92ee8a960e01b815260040160405180910390fd5b80546001600160401b0390811614620000d75780546001600160401b0319166001600160401b0390811782556040519081527fc7f505b2f371ae2175ee4913f4499e1f2633a7b5936321eed1cdaeb6115181d29060200160405180910390a15b50565b6080516132ed6200010460003960008181611950015281816119790152611aba01526132ed6000f3fe6080604052600436106102675760003560e01c8063715018a611610144578063bd724c2a116100b6578063c8f6f77b1161007a578063c8f6f77b14610782578063ca0b0462146107ca578063de83fbd5146107f7578063e3b0370b14610817578063eef452be14610837578063f2fde38b1461085757600080fd5b8063bd724c2a14610701578063bea4dfb514610717578063bedd8a1e1461072c578063c80dfc3a1461074c578063c8b18b5b1461076c57600080fd5b806388c5d8971161010857806388c5d8971461061c5780638da5cb5b1461063c578063a287611214610679578063a70c8adc14610699578063ad3cb1cc146106ae578063bb163e4b146106ec57600080fd5b8063715018a614610592578063749119b8146105a7578063750f853a146105c7578063833cb173146105e75780638456cb591461060757600080fd5b8063485cc955116101dd5780635df88e2a116101a15780635df88e2a146104da5780635eab1fba146104ef5780635fe69b2b1461050f578063609d707b1461053c57806365cb693f146105525780636f64234e1461057257600080fd5b8063485cc955146104105780634f1ef2861461043057806352d1902d146104435780635aa4119b146104585780635c975abb146104b557600080fd5b8063245c7aa61161022f578063245c7aa6146103335780632dedfd341461036b57806330c7f7d7146103985780633605a4e9146103ae5780633f4ba83a146103ce57806345282980146103e357600080fd5b80630a173d991461026c5780630f5e80bc146102a15780631c1652c3146102c35780631c555271146102e35780631f5ba45114610306575b600080fd5b34801561027857600080fd5b5061028c610287366004612c55565b610877565b60405190151581526020015b60405180910390f35b3480156102ad57600080fd5b506102c16102bc366004612c55565b610888565b005b3480156102cf57600080fd5b506102c16102de366004612c55565b6108c5565b3480156102ef57600080fd5b506102f8610902565b604051908152602001610298565b34801561031257600080fd5b50610326610321366004612c55565b610911565b6040516102989190612c98565b34801561033f57600080fd5b50600354610353906001600160a01b031681565b6040516001600160a01b039091168152602001610298565b34801561037757600080fd5b506102f8610386366004612c55565b600a6020526000908152604090205481565b3480156103a457600080fd5b506102f860055481565b3480156103ba57600080fd5b5061028c6103c9366004612ccd565b61097b565b3480156103da57600080fd5b506102c1610992565b3480156103ef57600080fd5b506104036103fe366004612d02565b6109a4565b6040516102989190612d34565b34801561041c57600080fd5b506102c161042b366004612d57565b6109b0565b6102c161043e366004612da6565b610f15565b34801561044f57600080fd5b506102f8610f34565b34801561046457600080fd5b506104a6610473366004612d02565b600c60209081526000928352604080842090915290825290205460ff808216916101008104821691620100009091041683565b60405161029893929190612e6a565b3480156104c157600080fd5b506000805160206132988339815191525460ff1661028c565b3480156104e657600080fd5b506102c1610f51565b3480156104fb57600080fd5b506102c161050a366004612e8e565b61106a565b34801561051b57600080fd5b5061052f61052a366004612d02565b6111b5565b6040516102989190612eda565b34801561054857600080fd5b506102f860065481565b34801561055e57600080fd5b50600054610353906001600160a01b031681565b34801561057e57600080fd5b506102c161058d366004612f0b565b611273565b34801561059e57600080fd5b506102c16112dd565b3480156105b357600080fd5b50600454610353906001600160a01b031681565b3480156105d357600080fd5b506102c16105e2366004612f37565b6112ef565b3480156105f357600080fd5b506102c1610602366004612f37565b611319565b34801561061357600080fd5b506102c161136a565b34801561062857600080fd5b50600154610353906001600160a01b031681565b34801561064857600080fd5b507f9016d09d72d40fdae2fd8ceac6b6234c7706214fd39c1cd1e609a0528c199300546001600160a01b0316610353565b34801561068557600080fd5b506102c1610694366004612fa0565b61137a565b3480156106a557600080fd5b506102f861144a565b3480156106ba57600080fd5b506106df604051806040016040528060058152602001640352e302e360dc1b81525081565b604051610298919061302c565b3480156106f857600080fd5b506102f8611454565b34801561070d57600080fd5b506102f860075481565b34801561072357600080fd5b506102f861145e565b34801561073857600080fd5b5061052f61074736600461305f565b6114e3565b34801561075857600080fd5b50600254610353906001600160a01b031681565b34801561077857600080fd5b506102f860085481565b34801561078e57600080fd5b506107bc61079d366004612c55565b600b602052600090815260409020805460019091015460ff9091169082565b60405161029892919061309e565b3480156107d657600080fd5b506107ea6107e5366004612c55565b6115ae565b60405161029891906130b9565b34801561080357600080fd5b506102c16108123660046130c7565b6115b9565b34801561082357600080fd5b506102c1610832366004612c55565b6115e0565b34801561084357600080fd5b5061052f610852366004612d02565b61161d565b34801561086357600080fd5b506102c1610872366004612f37565b6116ae565b6000610882826116f1565b92915050565b610890611716565b6006819055604051819042907f8cffa6e168cb4283bb90fba24a7fef449a04d711fbc4acc9ba16c4dc74b8129290600090a350565b6108cd611716565b6007819055604051819042907f53ed1752d1c96de977ae123ee60256f84ccbc52cb38d56307f2ab5cf85d1ac6d90600090a350565b600061090c611771565b905090565b60408051808201909152600080825260208201526000828152600b60205260409081902081518083019092528054829060ff16600281111561095557610955612c6e565b600281111561096657610966612c6e565b81526020016001820154815250509050919050565b600061098884848461179a565b90505b9392505050565b61099a611716565b6109a26117d2565b565b600061098b8383611832565b7ff0c57e16840df040f15088dc2f81fe391c3923bec73e23a9662efc9c229c6a008054600160401b810460ff16159067ffffffffffffffff166000811580156109f65750825b905060008267ffffffffffffffff166001148015610a135750303b155b905081158015610a21575080155b15610a3f5760405163f92ee8a960e01b815260040160405180910390fd5b845467ffffffffffffffff191660011785558315610a6957845460ff60401b1916600160401b1785555b6001600160a01b038616610a905760405163e6c4247b60e01b815260040160405180910390fd5b6001600160a01b038716610ab75760405163e6c4247b60e01b815260040160405180910390fd5b600480546001600160a01b0319166001600160a01b038916179055610ada61190c565b610ae38761191c565b610aeb61192d565b610af3611935565b600080546001600160a01b0319166001600160a01b038881169190911790915560015416610c335760008054604080516388c5d89760e01b8152905183926001600160a01b0316916388c5d8979160048083019260209291908290030181865afa158015610b65573d6000803e3d6000fd5b505050506040513d601f19601f82011682018060405250810190610b89919061311a565b6001600160a01b03161480159150610c315760008054906101000a90046001600160a01b03166001600160a01b03166388c5d8976040518163ffffffff1660e01b8152600401602060405180830381865afa158015610bec573d6000803e3d6000fd5b505050506040513d601f19601f82011682018060405250810190610c10919061311a565b600180546001600160a01b0319166001600160a01b03929092169190911790555b505b6002546001600160a01b0316610d5b576000805460408051636406fe1d60e11b8152905183926001600160a01b03169163c80dfc3a9160048083019260209291908290030181865afa158015610c8d573d6000803e3d6000fd5b505050506040513d601f19601f82011682018060405250810190610cb1919061311a565b6001600160a01b03161480159150610d595760008054906101000a90046001600160a01b03166001600160a01b031663c80dfc3a6040518163ffffffff1660e01b8152600401602060405180830381865afa158015610d14573d6000803e3d6000fd5b505050506040513d601f19601f82011682018060405250810190610d38919061311a565b600280546001600160a01b0319166001600160a01b03929092169190911790555b505b6003546001600160a01b0316610e8357600080546040805163122e3d5360e11b8152905183926001600160a01b03169163245c7aa69160048083019260209291908290030181865afa158015610db5573d6000803e3d6000fd5b505050506040513d601f19601f82011682018060405250810190610dd9919061311a565b6001600160a01b03161480159150610e815760008054906101000a90046001600160a01b03166001600160a01b031663245c7aa66040518163ffffffff1660e01b8152600401602060405180830381865afa158015610e3c573d6000803e3d6000fd5b505050506040513d601f19601f82011682018060405250810190610e60919061311a565b600380546001600160a01b0319166001600160a01b03929092169190911790555b505b600980546001600160a01b031916730d276fc14719f9292d5c1ea2198673d1f426924617905560058055601460065560026007556227fd80600855610ec661136a565b8315610f0c57845460ff60401b19168555604051600181527fc7f505b2f371ae2175ee4913f4499e1f2633a7b5936321eed1cdaeb6115181d29060200160405180910390a15b50505050505050565b610f1d611945565b610f26826119ea565b610f3082826119f2565b5050565b6000610f3e611aaf565b5060008051602061327883398151915290565b60008054906101000a90046001600160a01b03166001600160a01b03166388c5d8976040518163ffffffff1660e01b8152600401602060405180830381865afa158015610fa2573d6000803e3d6000fd5b505050506040513d601f19601f82011682018060405250810190610fc6919061311a565b600180546001600160a01b0319166001600160a01b0392831617905560005460408051636406fe1d60e11b81529051919092169163c80dfc3a9160048083019260209291908290030181865afa158015611024573d6000803e3d6000fd5b505050506040513d601f19601f82011682018060405250810190611048919061311a565b600280546001600160a01b0319166001600160a01b0392909216919091179055565b6004546001600160a01b03163314611094576040516282b42960e81b815260040160405180910390fd5b806000036110b55760405163356680b760e01b815260040160405180910390fd5b6001600160a01b0382166110dc5760405163e6c4247b60e01b815260040160405180910390fd5b60006110e785611af8565b90508360028111156110fb576110fb612c6e565b81600281111561110d5761110d612c6e565b146111a357600254604051631fb03ebd60e21b8152600481018790526001600160a01b03858116602483015290911690637ec0faf490604401602060405180830381865afa158015611163573d6000803e3d6000fd5b505050506040513d601f19601f820116820180604052508101906111879190613137565b6111a3576040516282b42960e81b815260040160405180910390fd5b6111ae858584611bc8565b5050505050565b60408051606081018252600080825260208201819052918101919091526111da611cd3565b600254604051631fb03ebd60e21b8152600481018590523360248201526001600160a01b0390911690637ec0faf490604401602060405180830381865afa158015611229573d6000803e3d6000fd5b505050506040513d601f19601f8201168201806040525081019061124d9190613137565b611269576040516282b42960e81b815260040160405180910390fd5b61098b8383611d04565b61127b611716565b6001600160a01b0382166112a25760405163e6c4247b60e01b815260040160405180910390fd5b6040516001600160a01b0383169082156108fc029083906000818181858888f193505050501580156112d8573d6000803e3d6000fd5b505050565b6112e5611716565b6109a26000611e4a565b6112f7611716565b600980546001600160a01b0319166001600160a01b0392909216919091179055565b611321611716565b6001600160a01b0381166113485760405163e6c4247b60e01b815260040160405180910390fd5b600480546001600160a01b0319166001600160a01b0392909216919091179055565b611372611716565b6109a2611ebb565b611382611cd3565b600254604051631fb03ebd60e21b8152600481018790523360248201526001600160a01b0390911690637ec0faf490604401602060405180830381865afa1580156113d1573d6000803e3d6000fd5b505050506040513d601f19601f820116820180604052508101906113f59190613137565b611411576040516282b42960e81b815260040160405180910390fd5b8160005b81811015610f0c57611441878787878581811061143457611434613159565b9050602002013586611f04565b50600101611415565b600061090c61231f565b600061090c61233e565b600080600960009054906101000a90046001600160a01b03166001600160a01b031663feaf968c6040518163ffffffff1660e01b815260040160a060405180830381865afa1580156114b4573d6000803e3d6000fd5b505050506040513d601f19601f820116820180604052508101906114d89190613189565b509195945050505050565b6040805160608101825260008082526020820181905291810191909152611508611cd3565b600254604051631fb03ebd60e21b8152600481018790523360248201526001600160a01b0390911690637ec0faf490604401602060405180830381865afa158015611557573d6000803e3d6000fd5b505050506040513d601f19601f8201168201806040525081019061157b9190613137565b611597576040516282b42960e81b815260040160405180910390fd5b6115a385858585611f04565b90505b949350505050565b600061088282611af8565b8060005b818110156115d8576115cf8686611d04565b506001016115bd565b505050505050565b6115e8611716565b6005819055604051819042907f89ef0a6402c8128a7e585cc0dffeb1faf22ad4c30450ea526f6e609710a6efc790600090a350565b604080516060808201835260008083526020808401829052838501829052868252600c815284822086835290528390208351918201909352825491929091829060ff16600481111561167157611671612c6e565b600481111561168257611682612c6e565b8152905460ff610100820481161515602084015262010000909104161515604090910152905092915050565b6116b6611716565b6001600160a01b0381166116e557604051631e4fbdf760e01b8152600060048201526024015b60405180910390fd5b6116ee81611e4a565b50565b600060026116fe83611af8565b600281111561170f5761170f612c6e565b1492915050565b336117487f9016d09d72d40fdae2fd8ceac6b6234c7706214fd39c1cd1e609a0528c199300546001600160a01b031690565b6001600160a01b0316146109a25760405163118cdaa760e01b81523360048201526024016116dc565b600061177b61145e565b60065461179090670de0b6b3a76400006131e3565b61090c91906131fa565b60008160048111156117ae576117ae612c6e565b6117b88585611832565b60048111156117c9576117c9612c6e565b14949350505050565b6117da61235d565b600080516020613298833981519152805460ff191681557f5db9ee0a495bf2e6ff9c91a7834c1ba4fdd244a5e8aa4e537bd38aeae4b073aa335b6040516001600160a01b03909116815260200160405180910390a150565b600061183d826116f1565b61185a576040516321f2425960e01b815260040160405180910390fd5b81830361186957506004610882565b6000828152600c60209081526040808320868452909152902054610100900460ff16806118a957604051636872ebeb60e01b815260040160405180910390fd5b6000838152600c6020908152604080832087845290915290205462010000900460ff16806118ea57604051636872ebeb60e01b815260040160405180910390fd5b5050506000908152600c60209081526040808320938352929052205460ff1690565b61191461238d565b6109a26123d6565b61192461238d565b6116ee816123f7565b6109a261238d565b61193d61238d565b6109a26123ff565b306001600160a01b037f00000000000000000000000000000000000000000000000000000000000000001614806119cc57507f00000000000000000000000000000000000000000000000000000000000000006001600160a01b03166119c0600080516020613278833981519152546001600160a01b031690565b6001600160a01b031614155b156109a25760405163703e46dd60e11b815260040160405180910390fd5b6116ee611716565b816001600160a01b03166352d1902d6040518163ffffffff1660e01b8152600401602060405180830381865afa925050508015611a4c575060408051601f3d908101601f19168201909252611a499181019061321c565b60015b611a7457604051634c9c8ce360e01b81526001600160a01b03831660048201526024016116dc565b6000805160206132788339815191528114611aa557604051632a87526960e21b8152600481018290526024016116dc565b6112d8838361242d565b306001600160a01b037f000000000000000000000000000000000000000000000000000000000000000016146109a25760405163703e46dd60e11b815260040160405180910390fd5b600154604051630e24ba4360e11b81526004810183905260009182916001600160a01b0390911690631c49748690602401602060405180830381865afa158015611b46573d6000803e3d6000fd5b505050506040513d601f19601f82011682018060405250810190611b6a919061311a565b6001600160a01b031603611b9157604051636872ebeb60e01b815260040160405180910390fd5b6000828152600b6020526040902060010154421115611bb257506000919050565b506000908152600b602052604090205460ff1690565b611bd0612483565b6000611bdb84611af8565b90506000836002811115611bf157611bf1612c6e565b03611c60576000848152600b60205260409020805460ff191690555b6000848152600b60205260409081902060010154905185917f6a1df75801e5980623c024634669b4ba92ce148d2d373a94cc0833dffa63242e91611c5291879161309e565b60405180910390a250611caa565b6001836002811115611c7457611c74612c6e565b03611c8457611c0d8482846124cd565b6002836002811115611c9857611c98612c6e565b03611ca857611c0d848284612653565b505b6112d860017f9b779b17422d0df92223018b32b4d1fa46e071723d6817e2486d003becc55f0055565b6000805160206132988339815191525460ff16156109a25760405163d93c066560e01b815260040160405180910390fd5b6040805160608101825260008082526020820181905291810191909152611d2a826116f1565b611d47576040516321f2425960e01b815260040160405180910390fd5b6000828152600c60209081526040808320868452909152902054610100900460ff1615611d8757604051634a7f394f60e01b815260040160405180910390fd5b6000828152600c6020908152604080832086845290915290819020805460ff62010000808304821615810262ff00001984168117948590559451889588957f94ba66db7b8e85aac1882234ea1c701a2a80bcf6c28a31228569e3938b4488ce95611e069592831690831617936101008204831693910490911690612e6a565b60405180910390a36000828152600c60209081526040808320868452909152908190208151606081019092528054829060ff16600481111561167157611671612c6e565b7f9016d09d72d40fdae2fd8ceac6b6234c7706214fd39c1cd1e609a0528c19930080546001600160a01b031981166001600160a01b03848116918217845560405192169182907f8be0079c531659141344cd1fd0a4f28419497f9722a3daafe3b4186f6b6457e090600090a3505050565b611ec3611cd3565b600080516020613298833981519152805460ff191660011781557f62e78cea01bee320cd4e420270b5ea74000d11b0c9f74754ebdbfc544b05a25833611814565b6040805160608101825260008082526020820181905291810191909152611f2a846116f1565b611f47576040516321f2425960e01b815260040160405180910390fd5b6000611f558686600461179a565b9050808015611f6357508386145b15611f8157604051634a7f394f60e01b815260040160405180910390fd5b848614612132576000611f968787600361179a565b90506000611fa68888600261179a565b905082158015611fb4575081155b8015611fbe575080155b15611fdb576040516282b42960e81b815260040160405180910390fd5b611fe58688611832565b6004811115611ff657611ff6612c6e565b85600481111561200857612008612c6e565b101561212f576000878152600c602090815260408083208984529091529020805486919060ff1916600183600481111561204457612044612c6e565b02179055506000878152600c6020908152604080832089845290915290819020549051879189917f94ba66db7b8e85aac1882234ea1c701a2a80bcf6c28a31228569e3938b4488ce916120ab918a9160ff6101008204811692620100009092041690612e6a565b60405180910390a36000878152600c60209081526040808320898452909152908190208151606081019092528054829060ff1660048111156120ef576120ef612c6e565b600481111561210057612100612c6e565b8152905460ff61010082048116151560208401526201000090910416151560409091015293506115a692505050565b50505b6000858152600c60209081526040808320878452909152902080546201000061ff0019821660ff61010080850482161502918217839004161590910262ff0000199190911662ffff0019909216919091171780825584919060ff191660018360048111156121a2576121a2612c6e565b02179055506000858152600c60209081526040808320878452909152902054610100900460ff1680156121f9576000868152600a602052604081208054600192906121ee908490613235565b9091555061221e9050565b6000868152600a60205260408120805460019290612218908490613248565b90915550505b6000868152600a6020526040902054612238908790612815565b6000868152600c6020908152604080832088845290915290819020549051869188917f94ba66db7b8e85aac1882234ea1c701a2a80bcf6c28a31228569e3938b4488ce9161229a91899160ff6101008204811692620100009092041690612e6a565b60405180910390a36000868152600c60209081526040808320888452909152908190208151606081019092528054829060ff1660048111156122de576122de612c6e565b60048111156122ef576122ef612c6e565b8152905460ff61010082048116151560208401526201000090910416151560409091015292505050949350505050565b600061232961145e565b60055461179090670de0b6b3a76400006131e3565b600061234861145e565b60075461179090670de0b6b3a76400006131e3565b6000805160206132988339815191525460ff166109a257604051638dfc202b60e01b815260040160405180910390fd5b7ff0c57e16840df040f15088dc2f81fe391c3923bec73e23a9662efc9c229c6a0054600160401b900460ff166109a257604051631afcd79f60e31b815260040160405180910390fd5b6123de61238d565b600080516020613298833981519152805460ff19169055565b6116b661238d565b61240761238d565b60017f9b779b17422d0df92223018b32b4d1fa46e071723d6817e2486d003becc55f0055565b61243682612922565b6040516001600160a01b038316907fbc7cd75a20ee27fd9adebab32041f755214dbc6bffa90cc0225b39da2e5c2d3b90600090a280511561247b576112d88282612987565b610f306129fd565b7f9b779b17422d0df92223018b32b4d1fa46e071723d6817e2486d003becc55f008054600119016124c757604051633ee5aeb560e01b815260040160405180910390fd5b60029055565b60006124d761231f565b905060028360028111156124ed576124ed612c6e565b036125305760006124fd85612a1c565b9050801561251f576000858152600b60205260409020805460ff191660011790555b8183101561252e575050505050565b505b808210156125515760405163356680b760e01b815260040160405180910390fd5b6000848152600b602081905260408220805460ff1916600117905561257683856131fa565b61258091906131fa565b6000868152600b602052604090206001015490915042116125ff57600082600854856125ac91906131e3565b6125b691906131fa565b905080600854836125c791906131e3565b6125d19190613235565b6000878152600b6020526040812060010180549091906125f2908490613235565b9091555050505050505050565b60085461260c83856131fa565b61261691906131e3565b60085461262390836131e3565b61262d9042613235565b6126379190613235565b6000958652600b60205260409095206001019490945550505050565b600061265d611771565b6000858152600a602052604081205491925061267761233e565b61268190836131e3565b9050600185600281111561269757612697612c6e565b036126e55760006126a787612b1f565b905080156126c9576000878152600b60205260409020805460ff191660021790555b6126d38285613235565b8510156126e35750505050505050565b505b6126ef8184613235565b84101561270f5760405163356680b760e01b815260040160405180910390fd5b6000868152600b602081905260408220805460ff1916600217905561273485876131fa565b61273e91906131fa565b6000888152600b602052604090206001015490915042116127bf576000846008548761276a91906131e3565b61277491906131fa565b9050806008548361278591906131e3565b61278f9190613235565b6000898152600b6020526040812060010180549091906127b0908490613235565b90915550505050505050505050565b6008546127cc85876131fa565b6127d691906131e3565b6008546127e390836131e3565b6127ed9042613235565b6127f79190613235565b6000978852600b602052604090972060010196909655505050505050565b6000828152600b6020908152604080832060010154600a909252822054909161283e4284613248565b90508060000361286157604051634a7f394f60e01b815260040160405180910390fd5b60006007548361287191906131e3565b90506000600654826128839190613235565b9050600081600654606461289791906131e3565b6128a191906131fa565b9050600060646128b183876131e3565b6128bb91906131fa565b905060006128c98287613248565b905060006128d788836131fa565b905060006128e58b836131e3565b90506000846128f48342613235565b6128fe9190613235565b60009d8e52600b6020526040909d206001019c909c55505050505050505050505050565b806001600160a01b03163b60000361295857604051634c9c8ce360e01b81526001600160a01b03821660048201526024016116dc565b60008051602061327883398151915280546001600160a01b0319166001600160a01b0392909216919091179055565b6060600080846001600160a01b0316846040516129a4919061325b565b600060405180830381855af49150503d80600081146129df576040519150601f19603f3d011682016040523d82523d6000602084013e6129e4565b606091505b50915091506129f4858383612bd0565b95945050505050565b34156109a25760405163b398979f60e01b815260040160405180910390fd5b600080612a2761231f565b6000848152600b602052604081206001015491925090612a48904290613248565b6000858152600a60205260408120549192508115612a7757612a6861233e565b612a7290836131e3565b612a7a565b60005b9050600081612a87611771565b612a919190613235565b905060006008548286612aa491906131e3565b612aae91906131fa565b90506000612abf62015180876131fa565b90506000612acd82896131fa565b905060008160085485612ae091906131e3565b612aea91906131fa565b90508015612b0f57612afc8142613235565b60008c8152600b60205260409020600101555b15159a9950505050505050505050565b600080612b2a61231f565b6000848152600b602052604081206001015491925090612b4b904290613248565b6000858152600a60205260408120549192508115612b7a57612b6b61233e565b612b7590836131e3565b612b7d565b60005b9050600081612b8a611771565b612b949190613235565b905060006008548686612ba791906131e3565b612bb191906131fa565b90506000612bc262015180876131fa565b90506000612acd82856131fa565b606082612be557612be082612c2c565b61098b565b8151158015612bfc57506001600160a01b0384163b155b15612c2557604051639996b31560e01b81526001600160a01b03851660048201526024016116dc565b508061098b565b805115612c3c5780518082602001fd5b604051630a12f52160e11b815260040160405180910390fd5b600060208284031215612c6757600080fd5b5035919050565b634e487b7160e01b600052602160045260246000fd5b60038110612c9457612c94612c6e565b9052565b6000604082019050612cab828451612c84565b602092830151919092015290565b803560058110612cc857600080fd5b919050565b600080600060608486031215612ce257600080fd5b8335925060208401359150612cf960408501612cb9565b90509250925092565b60008060408385031215612d1557600080fd5b50508035926020909101359150565b60058110612c9457612c94612c6e565b602081016108828284612d24565b6001600160a01b03811681146116ee57600080fd5b60008060408385031215612d6a57600080fd5b8235612d7581612d42565b91506020830135612d8581612d42565b809150509250929050565b634e487b7160e01b600052604160045260246000fd5b60008060408385031215612db957600080fd5b8235612dc481612d42565b9150602083013567ffffffffffffffff80821115612de157600080fd5b818501915085601f830112612df557600080fd5b813581811115612e0757612e07612d90565b604051601f8201601f19908116603f01168101908382118183101715612e2f57612e2f612d90565b81604052828152886020848701011115612e4857600080fd5b8260208601602083013760006020848301015280955050505050509250929050565b60608101612e788286612d24565b9215156020820152901515604090910152919050565b60008060008060808587031215612ea457600080fd5b84359350602085013560038110612eba57600080fd5b92506040850135612eca81612d42565b9396929550929360600135925050565b6000606082019050612eed828451612d24565b60208301511515602083015260408301511515604083015292915050565b60008060408385031215612f1e57600080fd5b8235612f2981612d42565b946020939093013593505050565b600060208284031215612f4957600080fd5b813561098b81612d42565b60008083601f840112612f6657600080fd5b50813567ffffffffffffffff811115612f7e57600080fd5b6020830191508360208260051b8501011115612f9957600080fd5b9250929050565b600080600080600060808688031215612fb857600080fd5b8535945060208601359350604086013567ffffffffffffffff811115612fdd57600080fd5b612fe988828901612f54565b9094509250612ffc905060608701612cb9565b90509295509295909350565b60005b8381101561302357818101518382015260200161300b565b50506000910152565b602081526000825180602084015261304b816040850160208701613008565b601f01601f19169190910160400192915050565b6000806000806080858703121561307557600080fd5b84359350602085013592506040850135915061309360608601612cb9565b905092959194509250565b604081016130ac8285612c84565b8260208301529392505050565b602081016108828284612c84565b600080600080606085870312156130dd57600080fd5b8435935060208501359250604085013567ffffffffffffffff81111561310257600080fd5b61310e87828801612f54565b95989497509550505050565b60006020828403121561312c57600080fd5b815161098b81612d42565b60006020828403121561314957600080fd5b8151801515811461098b57600080fd5b634e487b7160e01b600052603260045260246000fd5b805169ffffffffffffffffffff81168114612cc857600080fd5b600080600080600060a086880312156131a157600080fd5b6131aa8661316f565b9450602086015193506040860151925060608601519150612ffc6080870161316f565b634e487b7160e01b600052601160045260246000fd5b8082028115828204841417610882576108826131cd565b60008261321757634e487b7160e01b600052601260045260246000fd5b500490565b60006020828403121561322e57600080fd5b5051919050565b80820180821115610882576108826131cd565b81810381811115610882576108826131cd565b6000825161326d818460208701613008565b919091019291505056fe360894a13ba1a3210667c828492db98dca3e2076cc3735a920a3ca505d382bbccd5ed15c6e187e77e9aee88184c21f4f2182ab5827cb3b7e07fbedcd63f03300a2646970667358221220941866c642724bc40046491ae7ef98f2e7a6dbc11e4d134090f2e158914a655064736f6c63430008170033",
  "linkReferences": {},
  "deployedLinkReferences": {}
}