{
  "_format": "hh-sol-artifact-1",
  "contractName": "PortraitNodeRegistry",
  "sourceName": "contracts/l2/PortraitNodeRegistry.sol",
  "abi": [
    {
      "inputs": [],
      "stateMutability": "nonpayable",
      "type": "constructor"
    },
    {
      "inputs": [
        {
          "internalType": "address",
          "name": "target",
          "type": "address"
        }
      ],
      "name": "AddressEmptyCode",
      "type": "error"
    },
    {
      "inputs": [
        {
          "internalType": "address",
          "name": "implementation",
          "type": "address"
        }
      ],
      "name": "ERC1967InvalidImplementation",
      "type": "error"
    },
    {
      "inputs": [],
      "name": "ERC1967NonPayable",
      "type": "error"
    },
    {
      "inputs": [],
      "name": "EnforcedPause",
      "type": "error"
    },
    {
      "inputs": [],
      "name": "ExpectedPause",
      "type": "error"
    },
    {
      "inputs": [],
      "name": "ExpiredSignature",
      "type": "error"
    },
    {
      "inputs": [],
      "name": "FailedInnerCall",
      "type": "error"
    },
    {
      "inputs": [],
      "name": "InvalidAddress",
      "type": "error"
    },
    {
      "inputs": [],
      "name": "InvalidArrayLength",
      "type": "error"
    },
    {
      "inputs": [],
      "name": "InvalidInitialization",
      "type": "error"
    },
    {
      "inputs": [],
      "name": "InvalidSignature",
      "type": "error"
    },
    {
      "inputs": [],
      "name": "IsNormalNode",
      "type": "error"
    },
    {
      "inputs": [],
      "name": "MaxNodesReached",
      "type": "error"
    },
    {
      "inputs": [],
      "name": "NodeAlreadyRegistered",
      "type": "error"
    },
    {
      "inputs": [],
      "name": "NodeNotRegistered",
      "type": "error"
    },
    {
      "inputs": [],
      "name": "NotInitializing",
      "type": "error"
    },
    {
      "inputs": [
        {
          "internalType": "address",
          "name": "owner",
          "type": "address"
        }
      ],
      "name": "OwnableInvalidOwner",
      "type": "error"
    },
    {
      "inputs": [
        {
          "internalType": "address",
          "name": "account",
          "type": "address"
        }
      ],
      "name": "OwnableUnauthorizedAccount",
      "type": "error"
    },
    {
      "inputs": [],
      "name": "TurbohostAlreadyRegistered",
      "type": "error"
    },
    {
      "inputs": [],
      "name": "TurbohostNotRegistered",
      "type": "error"
    },
    {
      "inputs": [],
      "name": "UUPSUnauthorizedCallContext",
      "type": "error"
    },
    {
      "inputs": [
        {
          "internalType": "bytes32",
          "name": "slot",
          "type": "bytes32"
        }
      ],
      "name": "UUPSUnsupportedProxiableUUID",
      "type": "error"
    },
    {
      "inputs": [],
      "name": "Unauthorized",
      "type": "error"
    },
    {
      "anonymous": false,
      "inputs": [
        {
          "indexed": false,
          "internalType": "uint64",
          "name": "version",
          "type": "uint64"
        }
      ],
      "name": "Initialized",
      "type": "event"
    },
    {
      "anonymous": false,
      "inputs": [
        {
          "indexed": true,
          "internalType": "uint256",
          "name": "maxNodes",
          "type": "uint256"
        },
        {
          "indexed": true,
          "internalType": "uint256",
          "name": "timestamp",
          "type": "uint256"
        }
      ],
      "name": "MaxNodesPerPortraitIdUpdated",
      "type": "event"
    },
    {
      "anonymous": false,
      "inputs": [
        {
          "indexed": true,
          "internalType": "address",
          "name": "nodeAddress",
          "type": "address"
        },
        {
          "indexed": true,
          "internalType": "uint256",
          "name": "portraitId",
          "type": "uint256"
        },
        {
          "indexed": true,
          "internalType": "uint256",
          "name": "timestamp",
          "type": "uint256"
        }
      ],
      "name": "NodeRegistered",
      "type": "event"
    },
    {
      "anonymous": false,
      "inputs": [
        {
          "indexed": true,
          "internalType": "address",
          "name": "nodeAddress",
          "type": "address"
        },
        {
          "indexed": true,
          "internalType": "uint256",
          "name": "portraitId",
          "type": "uint256"
        },
        {
          "indexed": true,
          "internalType": "uint256",
          "name": "timestamp",
          "type": "uint256"
        }
      ],
      "name": "NodeUnregistered",
      "type": "event"
    },
    {
      "anonymous": false,
      "inputs": [
        {
          "indexed": true,
          "internalType": "address",
          "name": "previousOwner",
          "type": "address"
        },
        {
          "indexed": true,
          "internalType": "address",
          "name": "newOwner",
          "type": "address"
        }
      ],
      "name": "OwnershipTransferred",
      "type": "event"
    },
    {
      "anonymous": false,
      "inputs": [
        {
          "indexed": false,
          "internalType": "address",
          "name": "account",
          "type": "address"
        }
      ],
      "name": "Paused",
      "type": "event"
    },
    {
      "anonymous": false,
      "inputs": [
        {
          "indexed": true,
          "internalType": "address",
          "name": "nodeAddress",
          "type": "address"
        },
        {
          "indexed": true,
          "internalType": "bool",
          "name": "isTurbohost",
          "type": "bool"
        },
        {
          "indexed": true,
          "internalType": "uint256",
          "name": "timestamp",
          "type": "uint256"
        }
      ],
      "name": "TurbohostUpdated",
      "type": "event"
    },
    {
      "anonymous": false,
      "inputs": [
        {
          "indexed": false,
          "internalType": "address",
          "name": "account",
          "type": "address"
        }
      ],
      "name": "Unpaused",
      "type": "event"
    },
    {
      "anonymous": false,
      "inputs": [
        {
          "indexed": true,
          "internalType": "address",
          "name": "implementation",
          "type": "address"
        }
      ],
      "name": "Upgraded",
      "type": "event"
    },
    {
      "inputs": [],
      "name": "CONTRACT_NAME",
      "outputs": [
        {
          "internalType": "string",
          "name": "",
          "type": "string"
        }
      ],
      "stateMutability": "view",
      "type": "function"
    },
    {
      "inputs": [],
      "name": "UPGRADE_INTERFACE_VERSION",
      "outputs": [
        {
          "internalType": "string",
          "name": "",
          "type": "string"
        }
      ],
      "stateMutability": "view",
      "type": "function"
    },
    {
      "inputs": [],
      "name": "VERSION",
      "outputs": [
        {
          "internalType": "uint256",
          "name": "",
          "type": "uint256"
        }
      ],
      "stateMutability": "view",
      "type": "function"
    },
    {
      "inputs": [
        {
          "internalType": "address",
          "name": "nodeAddress",
          "type": "address"
        },
        {
          "internalType": "uint256",
          "name": "portraitId",
          "type": "uint256"
        }
      ],
      "name": "hasRegisteredNode",
      "outputs": [
        {
          "internalType": "bool",
          "name": "hasRegistered",
          "type": "bool"
        }
      ],
      "stateMutability": "view",
      "type": "function"
    },
    {
      "inputs": [
        {
          "internalType": "address",
          "name": "initialOwner",
          "type": "address"
        },
        {
          "internalType": "address",
          "name": "portraitContractRegistryAddress",
          "type": "address"
        }
      ],
      "name": "initialize",
      "outputs": [],
      "stateMutability": "nonpayable",
      "type": "function"
    },
    {
      "inputs": [
        {
          "internalType": "address",
          "name": "nodeAddress",
          "type": "address"
        }
      ],
      "name": "isNodeAddressTurbohost",
      "outputs": [
        {
          "internalType": "bool",
          "name": "isTurbohost",
          "type": "bool"
        }
      ],
      "stateMutability": "view",
      "type": "function"
    },
    {
      "inputs": [
        {
          "internalType": "uint256",
          "name": "portraitId",
          "type": "uint256"
        }
      ],
      "name": "isPortraitIdTurbohost",
      "outputs": [
        {
          "internalType": "bool",
          "name": "isTurbohost",
          "type": "bool"
        }
      ],
      "stateMutability": "view",
      "type": "function"
    },
    {
      "inputs": [],
      "name": "maxNodesPerPortraitId",
      "outputs": [
        {
          "internalType": "uint256",
          "name": "",
          "type": "uint256"
        }
      ],
      "stateMutability": "view",
      "type": "function"
    },
    {
      "inputs": [
        {
          "internalType": "address",
          "name": "nodeAddress",
          "type": "address"
        }
      ],
      "name": "nodeAddressToPortraitIdCount",
      "outputs": [
        {
          "internalType": "uint256",
          "name": "portraitIdCount",
          "type": "uint256"
        }
      ],
      "stateMutability": "view",
      "type": "function"
    },
    {
      "inputs": [
        {
          "internalType": "address",
          "name": "nodeAddress",
          "type": "address"
        },
        {
          "internalType": "uint256",
          "name": "portraitId",
          "type": "uint256"
        }
      ],
      "name": "nodeAddressToPortraitIdToIsRegistered",
      "outputs": [
        {
          "internalType": "bool",
          "name": "isRegistered",
          "type": "bool"
        }
      ],
      "stateMutability": "view",
      "type": "function"
    },
    {
      "inputs": [],
      "name": "owner",
      "outputs": [
        {
          "internalType": "address",
          "name": "",
          "type": "address"
        }
      ],
      "stateMutability": "view",
      "type": "function"
    },
    {
      "inputs": [],
      "name": "pause",
      "outputs": [],
      "stateMutability": "nonpayable",
      "type": "function"
    },
    {
      "inputs": [],
      "name": "paused",
      "outputs": [
        {
          "internalType": "bool",
          "name": "",
          "type": "bool"
        }
      ],
      "stateMutability": "view",
      "type": "function"
    },
    {
      "inputs": [],
      "name": "portraitAccessRegistry",
      "outputs": [
        {
          "internalType": "contract IPortraitAccessRegistry",
          "name": "",
          "type": "address"
        }
      ],
      "stateMutability": "view",
      "type": "function"
    },
    {
      "inputs": [],
      "name": "portraitContractRegistry",
      "outputs": [
        {
          "internalType": "contract IPortraitContractRegistry",
          "name": "",
          "type": "address"
        }
      ],
      "stateMutability": "view",
      "type": "function"
    },
    {
      "inputs": [
        {
          "internalType": "uint256",
          "name": "portraitId",
          "type": "uint256"
        }
      ],
      "name": "portraitIdToNodeCount",
      "outputs": [
        {
          "internalType": "uint256",
          "name": "nodeCount",
          "type": "uint256"
        }
      ],
      "stateMutability": "view",
      "type": "function"
    },
    {
      "inputs": [
        {
          "internalType": "uint256",
          "name": "portraitId",
          "type": "uint256"
        }
      ],
      "name": "portraitIdToTurboNodeAddress",
      "outputs": [
        {
          "internalType": "address",
          "name": "turboNodeAddress",
          "type": "address"
        }
      ],
      "stateMutability": "view",
      "type": "function"
    },
    {
      "inputs": [],
      "name": "portraitSigValidator",
      "outputs": [
        {
          "internalType": "contract PortraitSigValidator",
          "name": "",
          "type": "address"
        }
      ],
      "stateMutability": "view",
      "type": "function"
    },
    {
      "inputs": [],
      "name": "proxiableUUID",
      "outputs": [
        {
          "internalType": "bytes32",
          "name": "",
          "type": "bytes32"
        }
      ],
      "stateMutability": "view",
      "type": "function"
    },
    {
      "inputs": [
        {
          "internalType": "address",
          "name": "nodeAddress",
          "type": "address"
        },
        {
          "internalType": "uint256",
          "name": "portraitId",
          "type": "uint256"
        },
        {
          "internalType": "uint256",
          "name": "deadline",
          "type": "uint256"
        },
        {
          "internalType": "bytes",
          "name": "sig",
          "type": "bytes"
        }
      ],
      "name": "registerNodeToPortraitId",
      "outputs": [],
      "stateMutability": "nonpayable",
      "type": "function"
    },
    {
      "inputs": [],
      "name": "renounceOwnership",
      "outputs": [],
      "stateMutability": "nonpayable",
      "type": "function"
    },
    {
      "inputs": [
        {
          "internalType": "uint256",
          "name": "maxNodes",
          "type": "uint256"
        }
      ],
      "name": "setMaxNodesPerPortraitId",
      "outputs": [],
      "stateMutability": "nonpayable",
      "type": "function"
    },
    {
      "inputs": [
        {
          "internalType": "address",
          "name": "nodeAddress",
          "type": "address"
        },
        {
          "internalType": "uint256",
          "name": "portraitId",
          "type": "uint256"
        },
        {
          "internalType": "bool",
          "name": "isTurbohost",
          "type": "bool"
        }
      ],
      "name": "setTurbohostForNode",
      "outputs": [],
      "stateMutability": "nonpayable",
      "type": "function"
    },
    {
      "inputs": [],
      "name": "totalNodesRegistered",
      "outputs": [
        {
          "internalType": "uint256",
          "name": "",
          "type": "uint256"
        }
      ],
      "stateMutability": "view",
      "type": "function"
    },
    {
      "inputs": [],
      "name": "totalTurbohosts",
      "outputs": [
        {
          "internalType": "uint256",
          "name": "",
          "type": "uint256"
        }
      ],
      "stateMutability": "view",
      "type": "function"
    },
    {
      "inputs": [
        {
          "internalType": "address",
          "name": "newOwner",
          "type": "address"
        }
      ],
      "name": "transferOwnership",
      "outputs": [],
      "stateMutability": "nonpayable",
      "type": "function"
    },
    {
      "inputs": [
        {
          "internalType": "address",
          "name": "turboNodeAddress",
          "type": "address"
        }
      ],
      "name": "turboNodeAddressToPortraitId",
      "outputs": [
        {
          "internalType": "uint256",
          "name": "portraitId",
          "type": "uint256"
        }
      ],
      "stateMutability": "view",
      "type": "function"
    },
    {
      "inputs": [],
      "name": "unpause",
      "outputs": [],
      "stateMutability": "nonpayable",
      "type": "function"
    },
    {
      "inputs": [
        {
          "internalType": "address",
          "name": "nodeAddress",
          "type": "address"
        },
        {
          "internalType": "uint256[]",
          "name": "portraitIds",
          "type": "uint256[]"
        }
      ],
      "name": "unregisterNodeFromAllPortraitIds",
      "outputs": [],
      "stateMutability": "nonpayable",
      "type": "function"
    },
    {
      "inputs": [
        {
          "internalType": "address",
          "name": "nodeAddress",
          "type": "address"
        },
        {
          "internalType": "uint256",
          "name": "portraitId",
          "type": "uint256"
        }
      ],
      "name": "unregisterNodeFromPortraitId",
      "outputs": [],
      "stateMutability": "nonpayable",
      "type": "function"
    },
    {
      "inputs": [],
      "name": "updateProtocolContracts",
      "outputs": [],
      "stateMutability": "nonpayable",
      "type": "function"
    },
    {
      "inputs": [
        {
          "internalType": "address",
          "name": "newImplementation",
          "type": "address"
        },
        {
          "internalType": "bytes",
          "name": "data",
          "type": "bytes"
        }
      ],
      "name": "upgradeToAndCall",
      "outputs": [],
      "stateMutability": "payable",
      "type": "function"
    },
    {
      "inputs": [
        {
          "internalType": "address",
          "name": "signer",
          "type": "address"
        },
        {
          "internalType": "uint256",
          "name": "portraitId",
          "type": "uint256"
        },
        {
          "internalType": "uint256",
          "name": "deadline",
          "type": "uint256"
        },
        {
          "internalType": "bytes",
          "name": "sig",
          "type": "bytes"
        }
      ],
      "name": "verifyRegisterNodeToPortraitIdProof",
      "outputs": [
        {
          "internalType": "bool",
          "name": "isValid",
          "type": "bool"
        }
      ],
      "stateMutability": "nonpayable",
      "type": "function"
    }
  ],
  "bytecode": "0x60a06040523060805234801561001457600080fd5b5061001d610022565b6100d4565b7ff0c57e16840df040f15088dc2f81fe391c3923bec73e23a9662efc9c229c6a00805468010000000000000000900460ff16156100725760405163f92ee8a960e01b815260040160405180910390fd5b80546001600160401b03908116146100d15780546001600160401b0319166001600160401b0390811782556040519081527fc7f505b2f371ae2175ee4913f4499e1f2633a7b5936321eed1cdaeb6115181d29060200160405180910390a15b50565b6080516120ee620000fe600039600081816110a2015281816110cb015261121101526120ee6000f3fe6080604052600436106101ee5760003560e01c806377a5131d1161010d578063c80dfc3a116100a0578063f2fde38b1161006f578063f2fde38b1461060d578063f5dfbfd91461062d578063f91175f81461065a578063fd50d96c1461067a578063ffa1ad74146106b257600080fd5b8063c80dfc3a1461058d578063c97a8fa6146105ad578063d058c85d146105cd578063f22abf7d146105ed57600080fd5b8063ac86e1e2116100dc578063ac86e1e2146104ec578063ad3cb1cc14610502578063bd83b50a14610533578063c55ac2a11461056057600080fd5b806377a5131d14610442578063823c9a56146104625780638456cb591461049a5780638da5cb5b146104af57600080fd5b806352d1902d1161018557806365cb693f1161015457806365cb693f146103b257806365f486aa146103d25780636f18bd9e1461040d578063715018a61461042d57600080fd5b806352d1902d1461030a5780635c975abb1461031f5780635df88e2a14610350578063614d08f81461036557600080fd5b80633f4ba83a116101c15780633f4ba83a1461028c578063449ae970146102a1578063485cc955146102d75780634f1ef286146102f757600080fd5b80630fbcbbff146101f35780632216725514610215578063245c7aa61461023e5780632d5c287814610276575b600080fd5b3480156101ff57600080fd5b5061021361020e366004611baf565b6106c7565b005b34801561022157600080fd5b5061022b60055481565b6040519081526020015b60405180910390f35b34801561024a57600080fd5b5060025461025e906001600160a01b031681565b6040516001600160a01b039091168152602001610235565b34801561028257600080fd5b5061022b60045481565b34801561029857600080fd5b50610213610860565b3480156102ad57600080fd5b5061025e6102bc366004611bf1565b600a602052600090815260409020546001600160a01b031681565b3480156102e357600080fd5b506102136102f2366004611c0a565b610872565b610213610305366004611c59565b610c59565b34801561031657600080fd5b5061022b610c78565b34801561032b57600080fd5b506000805160206120998339815191525460ff165b6040519015158152602001610235565b34801561035c57600080fd5b50610213610c95565b34801561037157600080fd5b506103a560405180604001604052806014815260200173506f7274726169744e6f6465526567697374727960601b81525081565b6040516102359190611d6d565b3480156103be57600080fd5b5060005461025e906001600160a01b031681565b3480156103de57600080fd5b506103406103ed366004611d80565b600660209081526000928352604080842090915290825290205460ff1681565b34801561041957600080fd5b50610213610428366004611dac565b610dae565b34801561043957600080fd5b50610213610e63565b34801561044e57600080fd5b5061034061045d366004611e34565b610e75565b34801561046e57600080fd5b5061034061047d366004611eca565b6001600160a01b0316600090815260096020526040902054151590565b3480156104a657600080fd5b50610213610e8e565b3480156104bb57600080fd5b507f9016d09d72d40fdae2fd8ceac6b6234c7706214fd39c1cd1e609a0528c199300546001600160a01b031661025e565b3480156104f857600080fd5b5061022b60035481565b34801561050e57600080fd5b506103a5604051806040016040528060058152602001640352e302e360dc1b81525081565b34801561053f57600080fd5b5061022b61054e366004611eca565b60086020526000908152604090205481565b34801561056c57600080fd5b5061022b61057b366004611eca565b60096020526000908152604090205481565b34801561059957600080fd5b5060015461025e906001600160a01b031681565b3480156105b957600080fd5b506102136105c8366004611d80565b610e9e565b3480156105d957600080fd5b506102136105e8366004611bf1565b610eb0565b3480156105f957600080fd5b50610340610608366004611d80565b610eed565b34801561061957600080fd5b50610213610628366004611eca565b610f1b565b34801561063957600080fd5b5061022b610648366004611bf1565b60076020526000908152604090205481565b34801561066657600080fd5b50610213610675366004611e34565b610f5e565b34801561068657600080fd5b50610340610695366004611bf1565b6000908152600a60205260409020546001600160a01b0316151590565b3480156106be57600080fd5b5061022b600181565b6106cf610f7a565b8015610799576000828152600a60205260409020546001600160a01b03161561070b576040516327fd8c7f60e11b815260040160405180910390fd5b6001600160a01b03831660009081526008602052604090205415610742576040516393def97f60e01b815260040160405180910390fd5b6000828152600a6020908152604080832080546001600160a01b0319166001600160a01b038816908117909155835260099091528120839055600580546001929061078e908490611efd565b909155506108219050565b6000828152600a60205260409020546001600160a01b038481169116146107d357604051631ef0bd7f60e21b815260040160405180910390fd5b6000828152600a6020908152604080832080546001600160a01b03191690556001600160a01b038616835260099091528120819055600580546001929061081b908490611f10565b90915550505b42811515846001600160a01b03167f2645a57662355cec1b88e02ea79db237909265ab947322d5620204773ecb63e260405160405180910390a4505050565b610868610f7a565b610870610fd5565b565b7ff0c57e16840df040f15088dc2f81fe391c3923bec73e23a9662efc9c229c6a008054600160401b810460ff16159067ffffffffffffffff166000811580156108b85750825b905060008267ffffffffffffffff1660011480156108d55750303b155b9050811580156108e3575080155b156109015760405163f92ee8a960e01b815260040160405180910390fd5b845467ffffffffffffffff19166001178555831561092b57845460ff60401b1916600160401b1785555b6001600160a01b0386166109525760405163e6c4247b60e01b815260040160405180910390fd5b6001600160a01b0387166109795760405163e6c4247b60e01b815260040160405180910390fd5b61098287611035565b61098a611046565b60056003819055600060048190559081905580546001600160a01b0319166001600160a01b038881169190911790915560015416610ada576000805460408051636406fe1d60e11b8152905183926001600160a01b03169163c80dfc3a9160048083019260209291908290030181865afa158015610a0c573d6000803e3d6000fd5b505050506040513d601f19601f82011682018060405250810190610a309190611f23565b6001600160a01b03161480159150610ad85760008054906101000a90046001600160a01b03166001600160a01b031663c80dfc3a6040518163ffffffff1660e01b8152600401602060405180830381865afa158015610a93573d6000803e3d6000fd5b505050506040513d601f19601f82011682018060405250810190610ab79190611f23565b600180546001600160a01b0319166001600160a01b03929092169190911790555b505b6002546001600160a01b0316610c0257600080546040805163122e3d5360e11b8152905183926001600160a01b03169163245c7aa69160048083019260209291908290030181865afa158015610b34573d6000803e3d6000fd5b505050506040513d601f19601f82011682018060405250810190610b589190611f23565b6001600160a01b03161480159150610c005760008054906101000a90046001600160a01b03166001600160a01b031663245c7aa66040518163ffffffff1660e01b8152600401602060405180830381865afa158015610bbb573d6000803e3d6000fd5b505050506040513d601f19601f82011682018060405250810190610bdf9190611f23565b600280546001600160a01b0319166001600160a01b03929092169190911790555b505b610c0a61104e565b8315610c5057845460ff60401b19168555604051600181527fc7f505b2f371ae2175ee4913f4499e1f2633a7b5936321eed1cdaeb6115181d29060200160405180910390a15b50505050505050565b610c61611097565b610c6a8261113c565b610c748282611144565b5050565b6000610c82611206565b5060008051602061207983398151915290565b60008054906101000a90046001600160a01b03166001600160a01b031663c80dfc3a6040518163ffffffff1660e01b8152600401602060405180830381865afa158015610ce6573d6000803e3d6000fd5b505050506040513d601f19601f82011682018060405250810190610d0a9190611f23565b600180546001600160a01b0319166001600160a01b039283161790556000546040805163122e3d5360e11b81529051919092169163245c7aa69160048083019260209291908290030181865afa158015610d68573d6000803e3d6000fd5b505050506040513d601f19601f82011682018060405250810190610d8c9190611f23565b600280546001600160a01b0319166001600160a01b0392909216919091179055565b610db661124f565b6001600160a01b03831660009081526008602052604090205481908114610df057604051634ec4810560e11b815260040160405180910390fd5b60005b82811015610e2557610e1d85858584818110610e1157610e11611f40565b90506020020135611280565b600101610df3565b506001600160a01b03841660009081526008602052604090205415610e5d57604051634ec4810560e11b815260040160405180910390fd5b50505050565b610e6b610f7a565b61087060006114d1565b6000610e848686868686611542565b9695505050505050565b610e96610f7a565b61087061104e565b610ea661124f565b610c748282611280565b610eb8610f7a565b6003819055604051429082907fef96b2d6af6b6018a2ed3bee40a1955566dd05a5e4a835909829b2dd7f1652f890600090a350565b6001600160a01b038216600090815260066020908152604080832084845290915290205460ff165b92915050565b610f23610f7a565b6001600160a01b038116610f5257604051631e4fbdf760e01b8152600060048201526024015b60405180910390fd5b610f5b816114d1565b50565b610f6661124f565b610f7385858585856116d1565b5050505050565b33610fac7f9016d09d72d40fdae2fd8ceac6b6234c7706214fd39c1cd1e609a0528c199300546001600160a01b031690565b6001600160a01b0316146108705760405163118cdaa760e01b8152336004820152602401610f49565b610fdd611933565b600080516020612099833981519152805460ff191681557f5db9ee0a495bf2e6ff9c91a7834c1ba4fdd244a5e8aa4e537bd38aeae4b073aa335b6040516001600160a01b03909116815260200160405180910390a150565b61103d611963565b610f5b816119ac565b610870611963565b61105661124f565b600080516020612099833981519152805460ff191660011781557f62e78cea01bee320cd4e420270b5ea74000d11b0c9f74754ebdbfc544b05a25833611017565b306001600160a01b037f000000000000000000000000000000000000000000000000000000000000000016148061111e57507f00000000000000000000000000000000000000000000000000000000000000006001600160a01b0316611112600080516020612079833981519152546001600160a01b031690565b6001600160a01b031614155b156108705760405163703e46dd60e11b815260040160405180910390fd5b610f5b610f7a565b816001600160a01b03166352d1902d6040518163ffffffff1660e01b8152600401602060405180830381865afa92505050801561119e575060408051601f3d908101601f1916820190925261119b91810190611f56565b60015b6111c657604051634c9c8ce360e01b81526001600160a01b0383166004820152602401610f49565b60008051602061207983398151915281146111f757604051632a87526960e21b815260048101829052602401610f49565b61120183836119b4565b505050565b306001600160a01b037f000000000000000000000000000000000000000000000000000000000000000016146108705760405163703e46dd60e11b815260040160405180910390fd5b6000805160206120998339815191525460ff16156108705760405163d93c066560e01b815260040160405180910390fd5b600154604051631fb03ebd60e21b8152600481018390523360248201526001600160a01b0390911690637ec0faf490604401602060405180830381865afa1580156112cf573d6000803e3d6000fd5b505050506040513d601f19601f820116820180604052508101906112f39190611f6f565b61130f576040516282b42960e81b815260040160405180910390fd5b6001600160a01b038216600090815260096020526040902054158015906113ae576000828152600a6020526040812080546001600160a01b0319169055600580546001929061135f908490611f10565b90915550506001600160a01b038316600081815260096020526040808220829055514292907f2645a57662355cec1b88e02ea79db237909265ab947322d5620204773ecb63e2908390a4505050565b6001600160a01b038316600090815260066020908152604080832085845290915290205460ff166113f1576040516229eaad60e31b815260040160405180910390fd5b6001600160a01b03831660009081526006602090815260408083208584528252808320805460ff191690556007909152902054156114425760016004600082825461143c9190611f10565b90915550505b6000828152600760205260408120805460019290611461908490611f10565b90915550506001600160a01b038316600090815260086020526040812080546001929061148f908490611f10565b9091555050604051429083906001600160a01b038616907fe4b5693f6324a28b226349e6fb00ecd5e9eff59ec99449c47446e8299c33508290600090a4505050565b7f9016d09d72d40fdae2fd8ceac6b6234c7706214fd39c1cd1e609a0528c19930080546001600160a01b031981166001600160a01b03848116918217845560405192169182907f8be0079c531659141344cd1fd0a4f28419497f9722a3daafe3b4186f6b6457e090600090a3505050565b6000834211156115655760405163df4cc36d60e01b815260040160405180910390fd5b6040516bffffffffffffffffffffffff19606088901b166020820152603481018690526054810185905260009060740160408051601f19818403018152828252805160209182012061010084018352601860c085019081527f72656769737465724e6f6465546f506f7274726169744964000000000000000060e08601528452825180840184526014815273506f7274726169744e6f6465526567697374727960601b818401528483015282518084018452600881526710dbdb9d1c9858dd60c21b9281019290925283830191909152600160608401526080830181905260a08301889052600254915163c61eefe760e01b81529093506001600160a01b039091169063c61eefe790611682908b9085908a908a90600401611fb5565b6020604051808303816000875af11580156116a1573d6000803e3d6000fd5b505050506040513d601f19601f820116820180604052508101906116c59190611f6f565b98975050505050505050565b600154604051631fb03ebd60e21b8152600481018690523360248201526001600160a01b0390911690637ec0faf490604401602060405180830381865afa158015611720573d6000803e3d6000fd5b505050506040513d601f19601f820116820180604052508101906117449190611f6f565b611760576040516282b42960e81b815260040160405180910390fd5b6001600160a01b038516600090815260066020908152604080832087845290915290205460ff16156117a557604051630eb0d31360e11b815260040160405180910390fd5b60008481526007602052604090205460035481106117d65760405163012afa4160e71b815260040160405180910390fd5b6001600160a01b03861660009081526009602052604090205415801590611816578115611816576040516393def97f60e01b815260040160405180910390fd5b60006118258888888888611542565b90508061184557604051638baa579f60e01b815260040160405180910390fd5b6001600160a01b038816600090815260086020526040812054900361187d576001600460008282546118779190611efd565b90915550505b6001600160a01b03881660008181526006602090815260408083208b84528252808320805460ff191660019081179091559383526008909152812080549091906118c8908490611efd565b909155505060008781526007602052604081208054600192906118ec908490611efd565b9091555050604051429088906001600160a01b038b16907f99140a41575033d78b1016979e49f1b8a4943ef274d75edf0dac1bc3ccbce5f790600090a45050505050505050565b6000805160206120998339815191525460ff1661087057604051638dfc202b60e01b815260040160405180910390fd5b7ff0c57e16840df040f15088dc2f81fe391c3923bec73e23a9662efc9c229c6a0054600160401b900460ff1661087057604051631afcd79f60e31b815260040160405180910390fd5b610f23611963565b6119bd82611a0a565b6040516001600160a01b038316907fbc7cd75a20ee27fd9adebab32041f755214dbc6bffa90cc0225b39da2e5c2d3b90600090a2805115611a02576112018282611a6f565b610c74611ae5565b806001600160a01b03163b600003611a4057604051634c9c8ce360e01b81526001600160a01b0382166004820152602401610f49565b60008051602061207983398151915280546001600160a01b0319166001600160a01b0392909216919091179055565b6060600080846001600160a01b031684604051611a8c919061205c565b600060405180830381855af49150503d8060008114611ac7576040519150601f19603f3d011682016040523d82523d6000602084013e611acc565b606091505b5091509150611adc858383611b04565b95945050505050565b34156108705760405163b398979f60e01b815260040160405180910390fd5b606082611b1957611b1482611b63565b611b5c565b8151158015611b3057506001600160a01b0384163b155b15611b5957604051639996b31560e01b81526001600160a01b0385166004820152602401610f49565b50805b9392505050565b805115611b735780518082602001fd5b604051630a12f52160e11b815260040160405180910390fd5b6001600160a01b0381168114610f5b57600080fd5b8015158114610f5b57600080fd5b600080600060608486031215611bc457600080fd5b8335611bcf81611b8c565b9250602084013591506040840135611be681611ba1565b809150509250925092565b600060208284031215611c0357600080fd5b5035919050565b60008060408385031215611c1d57600080fd5b8235611c2881611b8c565b91506020830135611c3881611b8c565b809150509250929050565b634e487b7160e01b600052604160045260246000fd5b60008060408385031215611c6c57600080fd5b8235611c7781611b8c565b9150602083013567ffffffffffffffff80821115611c9457600080fd5b818501915085601f830112611ca857600080fd5b813581811115611cba57611cba611c43565b604051601f8201601f19908116603f01168101908382118183101715611ce257611ce2611c43565b81604052828152886020848701011115611cfb57600080fd5b8260208601602083013760006020848301015280955050505050509250929050565b60005b83811015611d38578181015183820152602001611d20565b50506000910152565b60008151808452611d59816020860160208601611d1d565b601f01601f19169290920160200192915050565b602081526000611b5c6020830184611d41565b60008060408385031215611d9357600080fd5b8235611d9e81611b8c565b946020939093013593505050565b600080600060408486031215611dc157600080fd5b8335611dcc81611b8c565b9250602084013567ffffffffffffffff80821115611de957600080fd5b818601915086601f830112611dfd57600080fd5b813581811115611e0c57600080fd5b8760208260051b8501011115611e2157600080fd5b6020830194508093505050509250925092565b600080600080600060808688031215611e4c57600080fd5b8535611e5781611b8c565b94506020860135935060408601359250606086013567ffffffffffffffff80821115611e8257600080fd5b818801915088601f830112611e9657600080fd5b813581811115611ea557600080fd5b896020828501011115611eb757600080fd5b9699959850939650602001949392505050565b600060208284031215611edc57600080fd5b8135611b5c81611b8c565b634e487b7160e01b600052601160045260246000fd5b80820180821115610f1557610f15611ee7565b81810381811115610f1557610f15611ee7565b600060208284031215611f3557600080fd5b8151611b5c81611b8c565b634e487b7160e01b600052603260045260246000fd5b600060208284031215611f6857600080fd5b5051919050565b600060208284031215611f8157600080fd5b8151611b5c81611ba1565b81835281816020850137506000828201602090810191909152601f909101601f19169091010190565b60018060a01b0385168152606060208201526000845160c06060840152611fe0610120840182611d41565b90506020860151605f1980858403016080860152611ffe8383611d41565b925060408801519150808584030160a08601525061201c8282611d41565b915050606086015160c0840152608086015160e084015260a08601516101008401528281036040840152612051818587611f8c565b979650505050505050565b6000825161206e818460208701611d1d565b919091019291505056fe360894a13ba1a3210667c828492db98dca3e2076cc3735a920a3ca505d382bbccd5ed15c6e187e77e9aee88184c21f4f2182ab5827cb3b7e07fbedcd63f03300a26469706673582212202c8e1b2e1b072979b6fe46357b42bddf73ed23b4e141873c2350f7f25489244964736f6c63430008170033",
  "linkReferences": {},
  "deployedLinkReferences": {}
}