{
  "_format": "hh-sol-artifact-1",
  "contractName": "PortraitIdRegistry",
  "sourceName": "contracts/l2/PortraitIdRegistry.sol",
  "abi": [
    {
      "inputs": [],
      "stateMutability": "nonpayable",
      "type": "constructor"
    },
    {
      "inputs": [
        {
          "internalType": "address",
          "name": "target",
          "type": "address"
        }
      ],
      "name": "AddressEmptyCode",
      "type": "error"
    },
    {
      "inputs": [],
      "name": "AsNFT",
      "type": "error"
    },
    {
      "inputs": [],
      "name": "ControlledRegistrationPeriod",
      "type": "error"
    },
    {
      "inputs": [
        {
          "internalType": "address",
          "name": "implementation",
          "type": "address"
        }
      ],
      "name": "ERC1967InvalidImplementation",
      "type": "error"
    },
    {
      "inputs": [],
      "name": "ERC1967NonPayable",
      "type": "error"
    },
    {
      "inputs": [],
      "name": "ERC721EnumerableForbiddenBatchMint",
      "type": "error"
    },
    {
      "inputs": [
        {
          "internalType": "address",
          "name": "sender",
          "type": "address"
        },
        {
          "internalType": "uint256",
          "name": "tokenId",
          "type": "uint256"
        },
        {
          "internalType": "address",
          "name": "owner",
          "type": "address"
        }
      ],
      "name": "ERC721IncorrectOwner",
      "type": "error"
    },
    {
      "inputs": [
        {
          "internalType": "address",
          "name": "operator",
          "type": "address"
        },
        {
          "internalType": "uint256",
          "name": "tokenId",
          "type": "uint256"
        }
      ],
      "name": "ERC721InsufficientApproval",
      "type": "error"
    },
    {
      "inputs": [
        {
          "internalType": "address",
          "name": "approver",
          "type": "address"
        }
      ],
      "name": "ERC721InvalidApprover",
      "type": "error"
    },
    {
      "inputs": [
        {
          "internalType": "address",
          "name": "operator",
          "type": "address"
        }
      ],
      "name": "ERC721InvalidOperator",
      "type": "error"
    },
    {
      "inputs": [
        {
          "internalType": "address",
          "name": "owner",
          "type": "address"
        }
      ],
      "name": "ERC721InvalidOwner",
      "type": "error"
    },
    {
      "inputs": [
        {
          "internalType": "address",
          "name": "receiver",
          "type": "address"
        }
      ],
      "name": "ERC721InvalidReceiver",
      "type": "error"
    },
    {
      "inputs": [
        {
          "internalType": "address",
          "name": "sender",
          "type": "address"
        }
      ],
      "name": "ERC721InvalidSender",
      "type": "error"
    },
    {
      "inputs": [
        {
          "internalType": "uint256",
          "name": "tokenId",
          "type": "uint256"
        }
      ],
      "name": "ERC721NonexistentToken",
      "type": "error"
    },
    {
      "inputs": [
        {
          "internalType": "address",
          "name": "owner",
          "type": "address"
        },
        {
          "internalType": "uint256",
          "name": "index",
          "type": "uint256"
        }
      ],
      "name": "ERC721OutOfBoundsIndex",
      "type": "error"
    },
    {
      "inputs": [],
      "name": "EnforcedPause",
      "type": "error"
    },
    {
      "inputs": [],
      "name": "ExceedsSupply",
      "type": "error"
    },
    {
      "inputs": [],
      "name": "ExpectedPause",
      "type": "error"
    },
    {
      "inputs": [],
      "name": "ExpiredSignature",
      "type": "error"
    },
    {
      "inputs": [],
      "name": "FailedInnerCall",
      "type": "error"
    },
    {
      "inputs": [],
      "name": "InvalidAddress",
      "type": "error"
    },
    {
      "inputs": [],
      "name": "InvalidInitialization",
      "type": "error"
    },
    {
      "inputs": [],
      "name": "InvalidSignature",
      "type": "error"
    },
    {
      "inputs": [],
      "name": "NonExistentPortraitId",
      "type": "error"
    },
    {
      "inputs": [],
      "name": "NotInitializing",
      "type": "error"
    },
    {
      "inputs": [
        {
          "internalType": "address",
          "name": "owner",
          "type": "address"
        }
      ],
      "name": "OwnableInvalidOwner",
      "type": "error"
    },
    {
      "inputs": [
        {
          "internalType": "address",
          "name": "account",
          "type": "address"
        }
      ],
      "name": "OwnableUnauthorizedAccount",
      "type": "error"
    },
    {
      "inputs": [],
      "name": "ReentrancyGuardReentrantCall",
      "type": "error"
    },
    {
      "inputs": [],
      "name": "UUPSUnauthorizedCallContext",
      "type": "error"
    },
    {
      "inputs": [
        {
          "internalType": "bytes32",
          "name": "slot",
          "type": "bytes32"
        }
      ],
      "name": "UUPSUnsupportedProxiableUUID",
      "type": "error"
    },
    {
      "inputs": [],
      "name": "Unauthorized",
      "type": "error"
    },
    {
      "anonymous": false,
      "inputs": [
        {
          "indexed": true,
          "internalType": "address",
          "name": "owner",
          "type": "address"
        },
        {
          "indexed": true,
          "internalType": "address",
          "name": "approved",
          "type": "address"
        },
        {
          "indexed": true,
          "internalType": "uint256",
          "name": "tokenId",
          "type": "uint256"
        }
      ],
      "name": "Approval",
      "type": "event"
    },
    {
      "anonymous": false,
      "inputs": [
        {
          "indexed": true,
          "internalType": "address",
          "name": "owner",
          "type": "address"
        },
        {
          "indexed": true,
          "internalType": "address",
          "name": "operator",
          "type": "address"
        },
        {
          "indexed": false,
          "internalType": "bool",
          "name": "approved",
          "type": "bool"
        }
      ],
      "name": "ApprovalForAll",
      "type": "event"
    },
    {
      "anonymous": false,
      "inputs": [
        {
          "indexed": false,
          "internalType": "uint64",
          "name": "version",
          "type": "uint64"
        }
      ],
      "name": "Initialized",
      "type": "event"
    },
    {
      "anonymous": false,
      "inputs": [
        {
          "indexed": true,
          "internalType": "address",
          "name": "previousOwner",
          "type": "address"
        },
        {
          "indexed": true,
          "internalType": "address",
          "name": "newOwner",
          "type": "address"
        }
      ],
      "name": "OwnershipTransferred",
      "type": "event"
    },
    {
      "anonymous": false,
      "inputs": [
        {
          "indexed": false,
          "internalType": "address",
          "name": "account",
          "type": "address"
        }
      ],
      "name": "Paused",
      "type": "event"
    },
    {
      "anonymous": false,
      "inputs": [
        {
          "indexed": true,
          "internalType": "uint256",
          "name": "portraitId",
          "type": "uint256"
        },
        {
          "indexed": true,
          "internalType": "address",
          "name": "owner",
          "type": "address"
        }
      ],
      "name": "PortraitRegistered",
      "type": "event"
    },
    {
      "anonymous": false,
      "inputs": [
        {
          "indexed": true,
          "internalType": "uint256",
          "name": "portraitId",
          "type": "uint256"
        },
        {
          "indexed": true,
          "internalType": "address",
          "name": "from",
          "type": "address"
        },
        {
          "indexed": true,
          "internalType": "address",
          "name": "to",
          "type": "address"
        }
      ],
      "name": "PortraitTransferred",
      "type": "event"
    },
    {
      "anonymous": false,
      "inputs": [
        {
          "indexed": true,
          "internalType": "address",
          "name": "from",
          "type": "address"
        },
        {
          "indexed": true,
          "internalType": "address",
          "name": "to",
          "type": "address"
        },
        {
          "indexed": true,
          "internalType": "uint256",
          "name": "tokenId",
          "type": "uint256"
        }
      ],
      "name": "Transfer",
      "type": "event"
    },
    {
      "anonymous": false,
      "inputs": [
        {
          "indexed": false,
          "internalType": "address",
          "name": "account",
          "type": "address"
        }
      ],
      "name": "Unpaused",
      "type": "event"
    },
    {
      "anonymous": false,
      "inputs": [
        {
          "indexed": true,
          "internalType": "address",
          "name": "implementation",
          "type": "address"
        }
      ],
      "name": "Upgraded",
      "type": "event"
    },
    {
      "inputs": [],
      "name": "CONTRACT_NAME",
      "outputs": [
        {
          "internalType": "string",
          "name": "",
          "type": "string"
        }
      ],
      "stateMutability": "view",
      "type": "function"
    },
    {
      "inputs": [],
      "name": "UPGRADE_INTERFACE_VERSION",
      "outputs": [
        {
          "internalType": "string",
          "name": "",
          "type": "string"
        }
      ],
      "stateMutability": "view",
      "type": "function"
    },
    {
      "inputs": [],
      "name": "VERSION",
      "outputs": [
        {
          "internalType": "uint256",
          "name": "",
          "type": "uint256"
        }
      ],
      "stateMutability": "view",
      "type": "function"
    },
    {
      "inputs": [
        {
          "internalType": "address",
          "name": "to",
          "type": "address"
        },
        {
          "internalType": "uint256",
          "name": "tokenId",
          "type": "uint256"
        }
      ],
      "name": "approve",
      "outputs": [],
      "stateMutability": "nonpayable",
      "type": "function"
    },
    {
      "inputs": [
        {
          "internalType": "address",
          "name": "owner",
          "type": "address"
        }
      ],
      "name": "balanceOf",
      "outputs": [
        {
          "internalType": "uint256",
          "name": "",
          "type": "uint256"
        }
      ],
      "stateMutability": "view",
      "type": "function"
    },
    {
      "inputs": [],
      "name": "baseURI",
      "outputs": [
        {
          "internalType": "string",
          "name": "",
          "type": "string"
        }
      ],
      "stateMutability": "view",
      "type": "function"
    },
    {
      "inputs": [
        {
          "internalType": "uint256",
          "name": "tokenId",
          "type": "uint256"
        }
      ],
      "name": "burn",
      "outputs": [],
      "stateMutability": "nonpayable",
      "type": "function"
    },
    {
      "inputs": [
        {
          "internalType": "uint256",
          "name": "tokenId",
          "type": "uint256"
        }
      ],
      "name": "getApproved",
      "outputs": [
        {
          "internalType": "address",
          "name": "",
          "type": "address"
        }
      ],
      "stateMutability": "view",
      "type": "function"
    },
    {
      "inputs": [
        {
          "internalType": "uint256[]",
          "name": "portraitIds",
          "type": "uint256[]"
        }
      ],
      "name": "getOwnersForPortraitIds",
      "outputs": [
        {
          "internalType": "address[]",
          "name": "owners",
          "type": "address[]"
        }
      ],
      "stateMutability": "view",
      "type": "function"
    },
    {
      "inputs": [
        {
          "internalType": "address",
          "name": "initialOwner",
          "type": "address"
        },
        {
          "internalType": "address",
          "name": "portraitContractRegistryAddress",
          "type": "address"
        }
      ],
      "name": "initialize",
      "outputs": [],
      "stateMutability": "nonpayable",
      "type": "function"
    },
    {
      "inputs": [
        {
          "internalType": "address",
          "name": "owner",
          "type": "address"
        },
        {
          "internalType": "address",
          "name": "operator",
          "type": "address"
        }
      ],
      "name": "isApprovedForAll",
      "outputs": [
        {
          "internalType": "bool",
          "name": "",
          "type": "bool"
        }
      ],
      "stateMutability": "view",
      "type": "function"
    },
    {
      "inputs": [],
      "name": "isControlledRegistrationPeriod",
      "outputs": [
        {
          "internalType": "bool",
          "name": "",
          "type": "bool"
        }
      ],
      "stateMutability": "view",
      "type": "function"
    },
    {
      "inputs": [
        {
          "internalType": "address",
          "name": "potentialOwner",
          "type": "address"
        },
        {
          "internalType": "uint256",
          "name": "portraitId",
          "type": "uint256"
        }
      ],
      "name": "isOwnerOfPortraitId",
      "outputs": [
        {
          "internalType": "bool",
          "name": "isOwner",
          "type": "bool"
        }
      ],
      "stateMutability": "view",
      "type": "function"
    },
    {
      "inputs": [],
      "name": "name",
      "outputs": [
        {
          "internalType": "string",
          "name": "",
          "type": "string"
        }
      ],
      "stateMutability": "view",
      "type": "function"
    },
    {
      "inputs": [],
      "name": "owner",
      "outputs": [
        {
          "internalType": "address",
          "name": "",
          "type": "address"
        }
      ],
      "stateMutability": "view",
      "type": "function"
    },
    {
      "inputs": [
        {
          "internalType": "uint256",
          "name": "tokenId",
          "type": "uint256"
        }
      ],
      "name": "ownerOf",
      "outputs": [
        {
          "internalType": "address",
          "name": "",
          "type": "address"
        }
      ],
      "stateMutability": "view",
      "type": "function"
    },
    {
      "inputs": [
        {
          "internalType": "address",
          "name": "",
          "type": "address"
        }
      ],
      "name": "ownerToPortraitIdCount",
      "outputs": [
        {
          "internalType": "uint256",
          "name": "",
          "type": "uint256"
        }
      ],
      "stateMutability": "view",
      "type": "function"
    },
    {
      "inputs": [
        {
          "internalType": "address",
          "name": "",
          "type": "address"
        },
        {
          "internalType": "uint256",
          "name": "",
          "type": "uint256"
        }
      ],
      "name": "ownerToPortraitIdsToIsOwner",
      "outputs": [
        {
          "internalType": "bool",
          "name": "",
          "type": "bool"
        }
      ],
      "stateMutability": "view",
      "type": "function"
    },
    {
      "inputs": [
        {
          "internalType": "address",
          "name": "",
          "type": "address"
        }
      ],
      "name": "ownerToPrimaryPortraitId",
      "outputs": [
        {
          "internalType": "uint256",
          "name": "",
          "type": "uint256"
        }
      ],
      "stateMutability": "view",
      "type": "function"
    },
    {
      "inputs": [],
      "name": "pause",
      "outputs": [],
      "stateMutability": "nonpayable",
      "type": "function"
    },
    {
      "inputs": [],
      "name": "paused",
      "outputs": [
        {
          "internalType": "bool",
          "name": "",
          "type": "bool"
        }
      ],
      "stateMutability": "view",
      "type": "function"
    },
    {
      "inputs": [],
      "name": "portraitAccessRegistry",
      "outputs": [
        {
          "internalType": "contract IPortraitAccessRegistry",
          "name": "",
          "type": "address"
        }
      ],
      "stateMutability": "view",
      "type": "function"
    },
    {
      "inputs": [],
      "name": "portraitContractRegistry",
      "outputs": [
        {
          "internalType": "contract IPortraitContractRegistry",
          "name": "",
          "type": "address"
        }
      ],
      "stateMutability": "view",
      "type": "function"
    },
    {
      "inputs": [],
      "name": "portraitIdCounter",
      "outputs": [
        {
          "internalType": "uint256",
          "name": "",
          "type": "uint256"
        }
      ],
      "stateMutability": "view",
      "type": "function"
    },
    {
      "inputs": [
        {
          "internalType": "uint256",
          "name": "",
          "type": "uint256"
        }
      ],
      "name": "portraitIdToOwner",
      "outputs": [
        {
          "internalType": "address",
          "name": "",
          "type": "address"
        }
      ],
      "stateMutability": "view",
      "type": "function"
    },
    {
      "inputs": [],
      "name": "portraitNameRegistry",
      "outputs": [
        {
          "internalType": "contract IPortraitNameRegistry",
          "name": "",
          "type": "address"
        }
      ],
      "stateMutability": "view",
      "type": "function"
    },
    {
      "inputs": [],
      "name": "portraitSigValidator",
      "outputs": [
        {
          "internalType": "contract PortraitSigValidator",
          "name": "",
          "type": "address"
        }
      ],
      "stateMutability": "view",
      "type": "function"
    },
    {
      "inputs": [],
      "name": "proxiableUUID",
      "outputs": [
        {
          "internalType": "bytes32",
          "name": "",
          "type": "bytes32"
        }
      ],
      "stateMutability": "view",
      "type": "function"
    },
    {
      "inputs": [
        {
          "internalType": "address",
          "name": "owner",
          "type": "address"
        },
        {
          "internalType": "bytes32",
          "name": "reservationHash",
          "type": "bytes32"
        },
        {
          "internalType": "address",
          "name": "delegate",
          "type": "address"
        }
      ],
      "name": "register",
      "outputs": [
        {
          "internalType": "uint256",
          "name": "portraitId",
          "type": "uint256"
        }
      ],
      "stateMutability": "nonpayable",
      "type": "function"
    },
    {
      "inputs": [
        {
          "internalType": "address",
          "name": "signer",
          "type": "address"
        },
        {
          "internalType": "address",
          "name": "owner",
          "type": "address"
        },
        {
          "internalType": "bytes32",
          "name": "reservationHash",
          "type": "bytes32"
        },
        {
          "internalType": "address",
          "name": "delegate",
          "type": "address"
        },
        {
          "internalType": "uint256",
          "name": "deadline",
          "type": "uint256"
        },
        {
          "internalType": "bytes",
          "name": "sig",
          "type": "bytes"
        }
      ],
      "name": "registerFor",
      "outputs": [
        {
          "internalType": "uint256",
          "name": "portraitId",
          "type": "uint256"
        }
      ],
      "stateMutability": "nonpayable",
      "type": "function"
    },
    {
      "inputs": [],
      "name": "renounceOwnership",
      "outputs": [],
      "stateMutability": "nonpayable",
      "type": "function"
    },
    {
      "inputs": [
        {
          "internalType": "uint256",
          "name": "portraitId",
          "type": "uint256"
        }
      ],
      "name": "safeMint",
      "outputs": [],
      "stateMutability": "nonpayable",
      "type": "function"
    },
    {
      "inputs": [
        {
          "internalType": "address",
          "name": "from",
          "type": "address"
        },
        {
          "internalType": "address",
          "name": "to",
          "type": "address"
        },
        {
          "internalType": "uint256",
          "name": "tokenId",
          "type": "uint256"
        }
      ],
      "name": "safeTransferFrom",
      "outputs": [],
      "stateMutability": "nonpayable",
      "type": "function"
    },
    {
      "inputs": [
        {
          "internalType": "address",
          "name": "from",
          "type": "address"
        },
        {
          "internalType": "address",
          "name": "to",
          "type": "address"
        },
        {
          "internalType": "uint256",
          "name": "tokenId",
          "type": "uint256"
        },
        {
          "internalType": "bytes",
          "name": "data",
          "type": "bytes"
        }
      ],
      "name": "safeTransferFrom",
      "outputs": [],
      "stateMutability": "nonpayable",
      "type": "function"
    },
    {
      "inputs": [
        {
          "internalType": "address",
          "name": "operator",
          "type": "address"
        },
        {
          "internalType": "bool",
          "name": "approved",
          "type": "bool"
        }
      ],
      "name": "setApprovalForAll",
      "outputs": [],
      "stateMutability": "nonpayable",
      "type": "function"
    },
    {
      "inputs": [
        {
          "internalType": "string",
          "name": "newBaseURI",
          "type": "string"
        }
      ],
      "name": "setBaseURI",
      "outputs": [],
      "stateMutability": "nonpayable",
      "type": "function"
    },
    {
      "inputs": [
        {
          "internalType": "address",
          "name": "owner",
          "type": "address"
        },
        {
          "internalType": "uint256",
          "name": "portraitId",
          "type": "uint256"
        }
      ],
      "name": "setPrimaryPortrait",
      "outputs": [],
      "stateMutability": "nonpayable",
      "type": "function"
    },
    {
      "inputs": [
        {
          "internalType": "address",
          "name": "signer",
          "type": "address"
        },
        {
          "internalType": "address",
          "name": "owner",
          "type": "address"
        },
        {
          "internalType": "uint256",
          "name": "portraitId",
          "type": "uint256"
        },
        {
          "internalType": "uint256",
          "name": "deadline",
          "type": "uint256"
        },
        {
          "internalType": "bytes",
          "name": "sig",
          "type": "bytes"
        }
      ],
      "name": "setPrimaryPortraitFor",
      "outputs": [],
      "stateMutability": "nonpayable",
      "type": "function"
    },
    {
      "inputs": [
        {
          "internalType": "bytes4",
          "name": "interfaceId",
          "type": "bytes4"
        }
      ],
      "name": "supportsInterface",
      "outputs": [
        {
          "internalType": "bool",
          "name": "",
          "type": "bool"
        }
      ],
      "stateMutability": "view",
      "type": "function"
    },
    {
      "inputs": [],
      "name": "symbol",
      "outputs": [
        {
          "internalType": "string",
          "name": "",
          "type": "string"
        }
      ],
      "stateMutability": "view",
      "type": "function"
    },
    {
      "inputs": [],
      "name": "toggleIsControlledRegistrationPeriod",
      "outputs": [],
      "stateMutability": "nonpayable",
      "type": "function"
    },
    {
      "inputs": [
        {
          "internalType": "uint256",
          "name": "index",
          "type": "uint256"
        }
      ],
      "name": "tokenByIndex",
      "outputs": [
        {
          "internalType": "uint256",
          "name": "",
          "type": "uint256"
        }
      ],
      "stateMutability": "view",
      "type": "function"
    },
    {
      "inputs": [
        {
          "internalType": "address",
          "name": "owner",
          "type": "address"
        },
        {
          "internalType": "uint256",
          "name": "index",
          "type": "uint256"
        }
      ],
      "name": "tokenOfOwnerByIndex",
      "outputs": [
        {
          "internalType": "uint256",
          "name": "",
          "type": "uint256"
        }
      ],
      "stateMutability": "view",
      "type": "function"
    },
    {
      "inputs": [
        {
          "internalType": "uint256",
          "name": "tokenId",
          "type": "uint256"
        }
      ],
      "name": "tokenURI",
      "outputs": [
        {
          "internalType": "string",
          "name": "",
          "type": "string"
        }
      ],
      "stateMutability": "view",
      "type": "function"
    },
    {
      "inputs": [],
      "name": "totalSupply",
      "outputs": [
        {
          "internalType": "uint256",
          "name": "",
          "type": "uint256"
        }
      ],
      "stateMutability": "view",
      "type": "function"
    },
    {
      "inputs": [
        {
          "internalType": "address",
          "name": "from",
          "type": "address"
        },
        {
          "internalType": "address",
          "name": "to",
          "type": "address"
        },
        {
          "internalType": "uint256",
          "name": "tokenId",
          "type": "uint256"
        }
      ],
      "name": "transferFrom",
      "outputs": [],
      "stateMutability": "nonpayable",
      "type": "function"
    },
    {
      "inputs": [
        {
          "internalType": "address",
          "name": "newOwner",
          "type": "address"
        }
      ],
      "name": "transferOwnership",
      "outputs": [],
      "stateMutability": "nonpayable",
      "type": "function"
    },
    {
      "inputs": [
        {
          "internalType": "uint256",
          "name": "portraitId",
          "type": "uint256"
        },
        {
          "internalType": "address",
          "name": "to",
          "type": "address"
        }
      ],
      "name": "transferPortraitId",
      "outputs": [],
      "stateMutability": "nonpayable",
      "type": "function"
    },
    {
      "inputs": [
        {
          "internalType": "uint256",
          "name": "portraitId",
          "type": "uint256"
        },
        {
          "internalType": "address",
          "name": "from",
          "type": "address"
        },
        {
          "internalType": "address",
          "name": "to",
          "type": "address"
        },
        {
          "internalType": "uint256",
          "name": "deadline",
          "type": "uint256"
        },
        {
          "internalType": "bytes",
          "name": "sig",
          "type": "bytes"
        }
      ],
      "name": "transferPortraitIdFor",
      "outputs": [],
      "stateMutability": "nonpayable",
      "type": "function"
    },
    {
      "inputs": [
        {
          "internalType": "address",
          "name": "signer",
          "type": "address"
        },
        {
          "internalType": "address",
          "name": "owner",
          "type": "address"
        },
        {
          "internalType": "bytes32",
          "name": "reservationHash",
          "type": "bytes32"
        },
        {
          "internalType": "address",
          "name": "delegate",
          "type": "address"
        },
        {
          "internalType": "uint256",
          "name": "deadline",
          "type": "uint256"
        },
        {
          "internalType": "bytes",
          "name": "sig",
          "type": "bytes"
        }
      ],
      "name": "trustedRegister",
      "outputs": [
        {
          "internalType": "uint256",
          "name": "portraitId",
          "type": "uint256"
        }
      ],
      "stateMutability": "nonpayable",
      "type": "function"
    },
    {
      "inputs": [],
      "name": "unpause",
      "outputs": [],
      "stateMutability": "nonpayable",
      "type": "function"
    },
    {
      "inputs": [],
      "name": "updateProtocolContracts",
      "outputs": [],
      "stateMutability": "nonpayable",
      "type": "function"
    },
    {
      "inputs": [
        {
          "internalType": "address",
          "name": "newImplementation",
          "type": "address"
        },
        {
          "internalType": "bytes",
          "name": "data",
          "type": "bytes"
        }
      ],
      "name": "upgradeToAndCall",
      "outputs": [],
      "stateMutability": "payable",
      "type": "function"
    },
    {
      "inputs": [
        {
          "internalType": "address",
          "name": "caller",
          "type": "address"
        },
        {
          "internalType": "address",
          "name": "owner",
          "type": "address"
        },
        {
          "internalType": "bytes32",
          "name": "reservationHash",
          "type": "bytes32"
        },
        {
          "internalType": "address",
          "name": "delegate",
          "type": "address"
        },
        {
          "internalType": "uint256",
          "name": "deadline",
          "type": "uint256"
        },
        {
          "internalType": "bytes",
          "name": "sig",
          "type": "bytes"
        }
      ],
      "name": "verifyRegisterFor",
      "outputs": [
        {
          "internalType": "bool",
          "name": "isValid",
          "type": "bool"
        }
      ],
      "stateMutability": "nonpayable",
      "type": "function"
    },
    {
      "inputs": [
        {
          "internalType": "uint256",
          "name": "portraitId",
          "type": "uint256"
        },
        {
          "internalType": "address",
          "name": "from",
          "type": "address"
        },
        {
          "internalType": "address",
          "name": "to",
          "type": "address"
        },
        {
          "internalType": "uint256",
          "name": "deadline",
          "type": "uint256"
        },
        {
          "internalType": "bytes",
          "name": "sig",
          "type": "bytes"
        }
      ],
      "name": "verifyTransferFor",
      "outputs": [
        {
          "internalType": "bool",
          "name": "isValid",
          "type": "bool"
        }
      ],
      "stateMutability": "nonpayable",
      "type": "function"
    }
  ],
  "bytecode": "0x60a0604052306080523480156200001557600080fd5b506200002062000026565b620000da565b7ff0c57e16840df040f15088dc2f81fe391c3923bec73e23a9662efc9c229c6a00805468010000000000000000900460ff1615620000775760405163f92ee8a960e01b815260040160405180910390fd5b80546001600160401b0390811614620000d75780546001600160401b0319166001600160401b0390811782556040519081527fc7f505b2f371ae2175ee4913f4499e1f2633a7b5936321eed1cdaeb6115181d29060200160405180910390a15b50565b6080516147056200010460003960008181612c6401528181612c8d0152612dce01526147056000f3fe6080604052600436106103505760003560e01c80635c975abb116101c657806395d89b41116100f7578063c87b56dd11610095578063e985e9c51161006f578063e985e9c514610a0d578063ebcee05414610a2d578063f2fde38b14610a68578063ffa1ad7414610a8857600080fd5b8063c87b56dd146109a6578063dac0fa64146109c6578063df14443f146109e057600080fd5b8063ad3cb1cc116100d1578063ad3cb1cc14610915578063b7db2c6414610946578063b88d4fde14610966578063c80dfc3a1461098657600080fd5b806395d89b41146108b3578063a0ce4325146108c8578063a22cb465146108f557600080fd5b80636c0360eb11610164578063723526af1161013e578063723526af1461083c5780638456cb59146108695780638563d2e51461087e5780638da5cb5b1461089e57600080fd5b80636c0360eb146107f257806370a0823114610807578063715018a61461082757600080fd5b80636096dce3116101a05780636096dce31461075e578063614d08f8146107745780636352211e146107b257806365cb693f146107d257600080fd5b80635c975abb146107045780635df88e2a14610729578063608c8de51461073e57600080fd5b806331c864e8116102a0578063485cc9551161023e5780634f6ccce7116102185780634f6ccce71461068f57806352d1902d146106af57806355f804b3146106c4578063567ddf28146106e457600080fd5b8063485cc9551461063c5780634bed43b91461065c5780634f1ef2861461067c57600080fd5b80633f4ba83a1161027a5780633f4ba83a146105c757806342842e0e146105dc57806342966c68146105fc57806347b141b71461061c57600080fd5b806331c864e81461057257806336ec9d11146105925780633cf3b8fb146105b257600080fd5b80630e7eb3101161030d57806323b872dd116102e757806323b872dd146104f2578063245c7aa6146105125780632a8d8d4d146105325780632f745c591461055257600080fd5b80630e7eb3101461046c57806318160ddd1461049a5780631c497486146104bc57600080fd5b806301ffc9a714610355578063054406041461038a57806306fdde03146103d0578063081812fc146103f2578063095ea7b31461042a5780630bdb8d631461044c575b600080fd5b34801561036157600080fd5b50610375610370366004613bfe565b610a9d565b60405190151581526020015b60405180910390f35b34801561039657600080fd5b506103756103a5366004613c30565b6001600160a01b03919091166000908152600760209081526040808320938352929052205460ff1690565b3480156103dc57600080fd5b506103e5610aae565b6040516103819190613cac565b3480156103fe57600080fd5b5061041261040d366004613cbf565b610b52565b6040516001600160a01b039091168152602001610381565b34801561043657600080fd5b5061044a610445366004613c30565b610b67565b005b34801561045857600080fd5b5061044a610467366004613c30565b610b76565b34801561047857600080fd5b5061048c610487366004613cd8565b610c64565b604051908152602001610381565b3480156104a657600080fd5b506000805160206146708339815191525461048c565b3480156104c857600080fd5b506104126104d7366004613cbf565b6008602052600090815260409020546001600160a01b031681565b3480156104fe57600080fd5b5061044a61050d366004613d1a565b610d3f565b34801561051e57600080fd5b50600354610412906001600160a01b031681565b34801561053e57600080fd5b5061044a61054d366004613da3565b610d57565b34801561055e57600080fd5b5061048c61056d366004613c30565b610fc4565b34801561057e57600080fd5b5061044a61058d366004613cbf565b61103d565b34801561059e57600080fd5b506103756105ad366004613e1e565b6110b1565b3480156105be57600080fd5b5061044a6110cc565b3480156105d357600080fd5b5061044a6110e8565b3480156105e857600080fd5b5061044a6105f7366004613d1a565b6110fa565b34801561060857600080fd5b5061044a610617366004613cbf565b611115565b34801561062857600080fd5b5061048c610637366004613e7b565b611121565b34801561064857600080fd5b5061044a610657366004613f09565b61116e565b34801561066857600080fd5b5061044a610677366004613f42565b611726565b61044a61068a366004614012565b6117e7565b34801561069b57600080fd5b5061048c6106aa366004613cbf565b611802565b3480156106bb57600080fd5b5061048c61187a565b3480156106d057600080fd5b5061044a6106df366004614061565b611897565b3480156106f057600080fd5b5061044a6106ff366004613e1e565b6118ab565b34801561071057600080fd5b506000805160206146908339815191525460ff16610375565b34801561073557600080fd5b5061044a61192f565b34801561074a57600080fd5b50600254610412906001600160a01b031681565b34801561076a57600080fd5b5061048c60045481565b34801561078057600080fd5b506103e560405180604001604052806012815260200171506f7274726169744964526567697374727960701b81525081565b3480156107be57600080fd5b506104126107cd366004613cbf565b611aca565b3480156107de57600080fd5b50600054610412906001600160a01b031681565b3480156107fe57600080fd5b506103e5611ad5565b34801561081357600080fd5b5061048c6108223660046140a9565b611b63565b34801561083357600080fd5b5061044a611bbf565b34801561084857600080fd5b5061085c6108573660046140c6565b611bd1565b604051610381919061413a565b34801561087557600080fd5b5061044a611c9a565b34801561088a57600080fd5b50610375610899366004613e7b565b611caa565b3480156108aa57600080fd5b50610412611cbb565b3480156108bf57600080fd5b506103e5611ce9565b3480156108d457600080fd5b5061048c6108e33660046140a9565b600a6020526000908152604090205481565b34801561090157600080fd5b5061044a610910366004614195565b611d28565b34801561092157600080fd5b506103e5604051806040016040528060058152602001640352e302e360dc1b81525081565b34801561095257600080fd5b5061048c610961366004613e7b565b611d33565b34801561097257600080fd5b5061044a6109813660046141c3565b611d3d565b34801561099257600080fd5b50600154610412906001600160a01b031681565b3480156109b257600080fd5b506103e56109c1366004613cbf565b611d5a565b3480156109d257600080fd5b506005546103759060ff1681565b3480156109ec57600080fd5b5061048c6109fb3660046140a9565b60096020526000908152604090205481565b348015610a1957600080fd5b50610375610a28366004613f09565b611dc1565b348015610a3957600080fd5b50610375610a48366004613c30565b600760209081526000928352604080842090915290825290205460ff1681565b348015610a7457600080fd5b5061044a610a833660046140a9565b611e0e565b348015610a9457600080fd5b5061048c600181565b6000610aa882611e4c565b92915050565b6000805160206146308339815191528054606091908190610ace9061422e565b80601f0160208091040260200160405190810160405280929190818152602001828054610afa9061422e565b8015610b475780601f10610b1c57610100808354040283529160200191610b47565b820191906000526020600020905b815481529060010190602001808311610b2a57829003601f168201915b505050505091505090565b6000610b5d82611e71565b50610aa882611ea9565b610b72828233611ee3565b5050565b600154604051631fb03ebd60e21b8152600481018390523360248201526001600160a01b0390911690637ec0faf490604401602060405180830381865afa158015610bc5573d6000803e3d6000fd5b505050506040513d601f19601f82011682018060405250810190610be99190614268565b610c05576040516282b42960e81b815260040160405180910390fd5b6001600160a01b038216600090815260076020908152604080832084845290915290205460ff16610c48576040516282b42960e81b815260040160405180910390fd5b6001600160a01b03909116600090815260096020526040902055565b6000610c6e611ef0565b60015460405163de695dbd60e01b81526001600160a01b038681166004830152336024830152600092169063de695dbd90604401602060405180830381865afa158015610cbf573d6000803e3d6000fd5b505050506040513d601f19601f82011682018060405250810190610ce39190614268565b90506001600160a01b03851633148015610d0b57610d02338686611f21565b92505050610d38565b81610d28576040516282b42960e81b815260040160405180910390fd5b610d33868686611f21565b925050505b9392505050565b610d47611ef0565b610d5283838361235a565b505050565b82421115610d785760405163df4cc36d60e01b815260040160405180910390fd5b846001600160a01b0316866001600160a01b031614610e295760015460405163de695dbd60e01b81526001600160a01b0387811660048301528881166024830152600092169063de695dbd90604401602060405180830381865afa158015610de4573d6000803e3d6000fd5b505050506040513d601f19601f82011682018060405250810190610e089190614268565b905080610e27576040516282b42960e81b815260040160405180910390fd5b505b6040516001600160601b0319606088811b8216602084015287901b166034820152604881018590526068810184905260009060880160408051601f19818403018152828252805160209182012061010084018352601560c085019081527429b2ba283934b6b0b93ca837b93a3930b4ba2337b960591b60e08601528452825180840184526012815271506f7274726169744964526567697374727960701b818401528483015282518084018452600881526710dbdb9d1c9858dd60c21b9281019290925283830191909152600160608401526080830181905260a08301879052600354915163c61eefe760e01b81529093506001600160a01b039091169063c61eefe790610f41908b908590899089906004016142ae565b6020604051808303816000875af1158015610f60573d6000803e3d6000fd5b505050506040513d601f19601f82011682018060405250810190610f849190614268565b610fa157604051638baa579f60e01b815260040160405180910390fd5b505050506001600160a01b03929092166000908152600960205260409020555050565b6000600080516020614610833981519152610fde84611b63565b83106110145760405163295f44f760e21b81526001600160a01b0385166004820152602481018490526044015b60405180910390fd5b6001600160a01b0384166000908152602091825260408082208583529092522054905092915050565b6000818152600860205260409020546001600160a01b031661105e826123df565b6001600160a01b0316816001600160a01b03160361108f57604051632d573a5560e01b815260040160405180910390fd5b600082815260086020526040902054610b72906001600160a01b031683612419565b60006110c1878787878787612433565b979650505050505050565b6110d46125b6565b6005805460ff19811660ff90911615179055565b6110f06125b6565b6110f86125e8565b565b610d5283838360405180602001604052806000815250611d3d565b610b7260008233612648565b600061112b6125b6565b61113a888888888888886126fa565b61115757604051638baa579f60e01b815260040160405180910390fd5b611162878787611f21565b98975050505050505050565b7ff0c57e16840df040f15088dc2f81fe391c3923bec73e23a9662efc9c229c6a008054600160401b810460ff1615906001600160401b03166000811580156111b35750825b90506000826001600160401b031660011480156111cf5750303b155b9050811580156111dd575080155b156111fb5760405163f92ee8a960e01b815260040160405180910390fd5b845467ffffffffffffffff19166001178555831561122557845460ff60401b1916600160401b1785555b6001600160a01b03861661124c5760405163e6c4247b60e01b815260040160405180910390fd5b6001600160a01b0387166112735760405163e6c4247b60e01b815260040160405180910390fd5b6112ba60405180604001604052806008815260200167141bdc9d1c985a5d60c21b81525060405180604001604052806005815260200164141495149560da1b815250612937565b6112c2612949565b6112ca612951565b6112d387612961565b6112db612949565b6112e3612949565b6112eb612972565b60006004556005805460ff1916600117905560408051808201909152601981527f68747470733a2f2f746f6b656e2e706f7274726169742e676700000000000000602082015260069061133e9082614392565b50600080546001600160a01b0319166001600160a01b03888116919091179091556001541661147f576000805460408051636406fe1d60e11b8152905183926001600160a01b03169163c80dfc3a9160048083019260209291908290030181865afa1580156113b1573d6000803e3d6000fd5b505050506040513d601f19601f820116820180604052508101906113d59190614451565b6001600160a01b0316148015915061147d5760008054906101000a90046001600160a01b03166001600160a01b031663c80dfc3a6040518163ffffffff1660e01b8152600401602060405180830381865afa158015611438573d6000803e3d6000fd5b505050506040513d601f19601f8201168201806040525081019061145c9190614451565b600180546001600160a01b0319166001600160a01b03929092169190911790555b505b6002546001600160a01b03166115a757600080546040805163608c8de560e01b8152905183926001600160a01b03169163608c8de59160048083019260209291908290030181865afa1580156114d9573d6000803e3d6000fd5b505050506040513d601f19601f820116820180604052508101906114fd9190614451565b6001600160a01b031614801591506115a55760008054906101000a90046001600160a01b03166001600160a01b031663608c8de56040518163ffffffff1660e01b8152600401602060405180830381865afa158015611560573d6000803e3d6000fd5b505050506040513d601f19601f820116820180604052508101906115849190614451565b600280546001600160a01b0319166001600160a01b03929092169190911790555b505b6003546001600160a01b03166116cf57600080546040805163122e3d5360e11b8152905183926001600160a01b03169163245c7aa69160048083019260209291908290030181865afa158015611601573d6000803e3d6000fd5b505050506040513d601f19601f820116820180604052508101906116259190614451565b6001600160a01b031614801591506116cd5760008054906101000a90046001600160a01b03166001600160a01b031663245c7aa66040518163ffffffff1660e01b8152600401602060405180830381865afa158015611688573d6000803e3d6000fd5b505050506040513d601f19601f820116820180604052508101906116ac9190614451565b600380546001600160a01b0319166001600160a01b03929092169190911790555b505b6116d7612982565b831561171d57845460ff60401b19168555604051600181527fc7f505b2f371ae2175ee4913f4499e1f2633a7b5936321eed1cdaeb6115181d29060200160405180910390a15b50505050505050565b600154604051631fb03ebd60e21b8152600481018490523360248201526001600160a01b0390911690637ec0faf490604401602060405180830381865afa158015611775573d6000803e3d6000fd5b505050506040513d601f19601f820116820180604052508101906117999190614268565b6117b5576040516282b42960e81b815260040160405180910390fd5b6117be826129cb565b156117dc5760405163371550ff60e21b815260040160405180910390fd5b610b72823383612a35565b6117ef612c59565b6117f882612cfe565b610b728282612d06565b60006000805160206146108339815191526118296000805160206146708339815191525490565b83106118525760405163295f44f760e21b8152600060048201526024810184905260440161100b565b8060020183815481106118675761186761446e565b9060005260206000200154915050919050565b6000611884612dc3565b5060008051602061465083398151915290565b61189f6125b6565b6006610b728282614392565b6118b3612e0c565b6118bc866129cb565b156118da5760405163371550ff60e21b815260040160405180910390fd5b6118e8868686868686612433565b61190557604051638baa579f60e01b815260040160405180910390fd5b611910868686612a35565b61192760016000805160206146b083398151915255565b505050505050565b60008054906101000a90046001600160a01b03166001600160a01b031663c80dfc3a6040518163ffffffff1660e01b8152600401602060405180830381865afa158015611980573d6000803e3d6000fd5b505050506040513d601f19601f820116820180604052508101906119a49190614451565b600180546001600160a01b0319166001600160a01b039283161790556000546040805163608c8de560e01b81529051919092169163608c8de59160048083019260209291908290030181865afa158015611a02573d6000803e3d6000fd5b505050506040513d601f19601f82011682018060405250810190611a269190614451565b600280546001600160a01b0319166001600160a01b039283161790556000546040805163122e3d5360e11b81529051919092169163245c7aa69160048083019260209291908290030181865afa158015611a84573d6000803e3d6000fd5b505050506040513d601f19601f82011682018060405250810190611aa89190614451565b600380546001600160a01b0319166001600160a01b0392909216919091179055565b6000610aa882611e71565b60068054611ae29061422e565b80601f0160208091040260200160405190810160405280929190818152602001828054611b0e9061422e565b8015611b5b5780601f10611b3057610100808354040283529160200191611b5b565b820191906000526020600020905b815481529060010190602001808311611b3e57829003601f168201915b505050505081565b60006000805160206146308339815191526001600160a01b038316611b9e576040516322718ad960e21b81526000600482015260240161100b565b6001600160a01b039092166000908152600390920160205250604090205490565b611bc76125b6565b6110f86000612e58565b6060816001600160401b03811115611beb57611beb613f67565b604051908082528060200260200182016040528015611c14578160200160208202803683370190505b50905060005b82811015611c935760086000858584818110611c3857611c3861446e565b90506020020135815260200190815260200160002060009054906101000a90046001600160a01b0316828281518110611c7357611c7361446e565b6001600160a01b0390921660209283029190910190910152600101611c1a565b5092915050565b611ca26125b6565b6110f8612982565b6000611162888888888888886126fa565b7f9016d09d72d40fdae2fd8ceac6b6234c7706214fd39c1cd1e609a0528c199300546001600160a01b031690565b7f80bb2b638cc20bc4d0a60d66940f3ab4a00c1d7b313497ca82fb0b4ab0079301805460609160008051602061463083398151915291610ace9061422e565b610b72338383612ec9565b600061112b611ef0565b611d48848484610d3f565b611d5484848484612f7a565b50505050565b6060611d6582611e71565b506000611d706130a3565b90506000815111611d905760405180602001604052806000815250610d38565b80611d9a84613135565b604051602001611dab929190614484565b6040516020818303038152906040529392505050565b6001600160a01b0391821660009081527f80bb2b638cc20bc4d0a60d66940f3ab4a00c1d7b313497ca82fb0b4ab00793056020908152604080832093909416825291909152205460ff1690565b611e166125b6565b6001600160a01b038116611e4057604051631e4fbdf760e01b81526000600482015260240161100b565b611e4981612e58565b50565b60006001600160e01b0319821663780e9d6360e01b1480610aa85750610aa8826131c7565b600080611e7d836123df565b90506001600160a01b038116610aa857604051637e27328960e01b81526004810184905260240161100b565b60009081527f80bb2b638cc20bc4d0a60d66940f3ab4a00c1d7b313497ca82fb0b4ab007930460205260409020546001600160a01b031690565b610d528383836001613217565b6000805160206146908339815191525460ff16156110f85760405163d93c066560e01b815260040160405180910390fd5b6000611f2b612e0c565b60055460ff1615611f6f57611f3e611cbb565b6001600160a01b0316336001600160a01b031614611f6f57604051636019bafb60e01b815260040160405180910390fd5b60048054906000611f7f836144c9565b90915550506004805460008181526008602052604080822080546001600160a01b0319166001600160a01b038a8116918217909255600154925163de695dbd60e01b815295860152336024860152929450909291169063de695dbd90604401602060405180830381865afa158015611ffb573d6000803e3d6000fd5b505050506040513d601f19601f8201168201806040525081019061201f9190614268565b600154604080516391a21f3160e01b815290519293506001600160a01b03888116331493600093909116916391a21f319160048083019260209291908290030181865afa158015612074573d6000803e3d6000fd5b505050506040513d601f19601f820116820180604052508101906120989190614451565b6001600160a01b0316856001600160a01b03161480156120c05750336001600160a01b038616145b90506001600160a01b038516158015906120ec5750866001600160a01b0316856001600160a01b031614155b1561221d57821580156120fd575081155b8015612107575080155b15612124576040516282b42960e81b815260040160405180910390fd5b6001546040516340c99ee760e11b81526001600160a01b038981166004830152878116602483015260009216906381933dce906044016040805180830381865afa158015612176573d6000803e3d6000fd5b505050506040513d601f19601f8201168201806040525081019061219a91906144e2565b5190508061221b576001546040516310f651a560e11b81526001600160a01b038a811660048301528881166024830152909116906321eca34a9060440160408051808303816000875af11580156121f5573d6000803e3d6000fd5b505050506040513d601f19601f8201168201806040525081019061221991906144e2565b505b505b6001600160a01b03871660008181526007602090815260408083208884528252808320805460ff1916600117905592825260099052908120549003612278576001600160a01b03871660009081526009602052604090208490555b60025460405163332ce29d60e11b8152600481018890523360248201526001600160a01b0390911690636659c53a90604401600060405180830381600087803b1580156122c457600080fd5b505af11580156122d8573d6000803e3d6000fd5b50506040516001600160a01b038a1692508691507fc3e788c242a921544371aa9a271f66f9b6e5cdc727dc64b70b546c2982d88f4590600090a36001600160a01b0387166000908152600a60205260408120805491612336836144c9565b91905055506004549350505050610d3860016000805160206146b083398151915255565b6001600160a01b03821661238457604051633250574960e11b81526000600482015260240161100b565b6000612391838333612648565b9050836001600160a01b0316816001600160a01b031614611d54576040516364283d7b60e01b81526001600160a01b038086166004830152602482018490528216604482015260640161100b565b60009081527f80bb2b638cc20bc4d0a60d66940f3ab4a00c1d7b313497ca82fb0b4ab007930260205260409020546001600160a01b031690565b610b7282826040518060200160405280600081525061332d565b6000834211156124565760405163df4cc36d60e01b815260040160405180910390fd5b6040805160208082018a90526001600160601b031960608a811b82168486015289901b1660548301526068808301889052835180840390910181526088830180855281519183019190912061018884018552600b61014885019081526a2a3930b739b332b92337b960a91b6101688601528252845180860186526012815271506f7274726169744964526567697374727960701b8185015260a885015284518086018652600881526710dbdb9d1c9858dd60c21b9381019390935260c8840192909252600160e88401526101088301829052610128909201879052600354925163c61eefe760e01b815290926001600160a01b03169063c61eefe790612566908b9085908a908a906004016142ae565b6020604051808303816000875af1158015612585573d6000803e3d6000fd5b505050506040513d601f19601f820116820180604052508101906125a99190614268565b9998505050505050505050565b336125bf611cbb565b6001600160a01b0316146110f85760405163118cdaa760e01b815233600482015260240161100b565b6125f0613344565b600080516020614690833981519152805460ff191681557f5db9ee0a495bf2e6ff9c91a7834c1ba4fdd244a5e8aa4e537bd38aeae4b073aa335b6040516001600160a01b03909116815260200160405180910390a150565b600154604051631fb03ebd60e21b8152600481018490523360248201526000916001600160a01b031690637ec0faf490604401602060405180830381865afa158015612698573d6000803e3d6000fd5b505050506040513d601f19601f820116820180604052508101906126bc9190614268565b6126d8576040516282b42960e81b815260040160405180910390fd5b60006126e5858585613374565b90506126f2843387612a35565b949350505050565b60008342111561271d5760405163df4cc36d60e01b815260040160405180910390fd5b866001600160a01b0316886001600160a01b0316146127ce5760015460405163de695dbd60e01b81526001600160a01b0389811660048301528a81166024830152600092169063de695dbd90604401602060405180830381865afa158015612789573d6000803e3d6000fd5b505050506040513d601f19601f820116820180604052508101906127ad9190614268565b9050806127cc576040516282b42960e81b815260040160405180910390fd5b505b6040516001600160601b031960608a811b8216602084015289811b821660348401526048830189905287901b166068820152607c8101859052600090609c0160408051601f19818403018152828252805160209182012061010084018352600b60c085019081526a2932b3b4b9ba32b92337b960a91b60e08601528452825180840184526012815271506f7274726169744964526567697374727960701b818401528483015282518084018452600881526710dbdb9d1c9858dd60c21b9281019290925283830191909152600160608401526080830181905260a08301889052600354915163c61eefe760e01b81529093506001600160a01b039091169063c61eefe7906128e6908d9085908a908a906004016142ae565b6020604051808303816000875af1158015612905573d6000803e3d6000fd5b505050506040513d601f19601f820116820180604052508101906129299190614268565b9a9950505050505050505050565b61293f613389565b610b7282826133d2565b6110f8613389565b612959613389565b6110f8613403565b612969613389565b611e4981613424565b61297a613389565b6110f861342c565b61298a611ef0565b600080516020614690833981519152805460ff191660011781557f62e78cea01bee320cd4e420270b5ea74000d11b0c9f74754ebdbfc544b05a2583361262a565b6000818152600860205260408120546001600160a01b03166129ec836123df565b6001600160a01b0316816001600160a01b0316148015612a1e57506000612a12846123df565b6001600160a01b031614155b15612a2c5750600192915050565b50600092915050565b612a3d612e0c565b6000838152600860205260409020546001600160a01b03838116911614612a79576000838152600860205260409020546001600160a01b031691505b600083815260086020908152604080832080546001600160a01b038681166001600160a01b0319831681179093551680855260078085528386208987528552838620805460ff19908116909155928652845282852088865284528285208054909216600117909155808452600990925290912054849003612b8f576000612aff82611b63565b1115612b755760005b612b1182611b63565b811015612b6f576000612b248383610fc4565b6000818152600860205260409020549091506001600160a01b03808516911603612b66576001600160a01b038316600090815260096020526040902055612b6f565b50600101612b08565b50612b8f565b6001600160a01b0381166000908152600960205260408120555b6001600160a01b0383166000908152600a602052604090205415612bd7576001600160a01b0383166000908152600a60205260408120805491612bd183614540565b91905055505b6001600160a01b0382166000908152600a60205260408120805491612bfb836144c9565b9190505550816001600160a01b0316836001600160a01b0316857ffa633d7d9e2a3cc67e74acfbe25e3821c15d195bef8a90d8c456ce1e8b0086bc60405160405180910390a450610d5260016000805160206146b083398151915255565b306001600160a01b037f0000000000000000000000000000000000000000000000000000000000000000161480612ce057507f00000000000000000000000000000000000000000000000000000000000000006001600160a01b0316612cd4600080516020614650833981519152546001600160a01b031690565b6001600160a01b031614155b156110f85760405163703e46dd60e11b815260040160405180910390fd5b611e496125b6565b816001600160a01b03166352d1902d6040518163ffffffff1660e01b8152600401602060405180830381865afa925050508015612d60575060408051601f3d908101601f19168201909252612d5d91810190614557565b60015b612d8857604051634c9c8ce360e01b81526001600160a01b038316600482015260240161100b565b6000805160206146508339815191528114612db957604051632a87526960e21b81526004810182905260240161100b565b610d528383613434565b306001600160a01b037f000000000000000000000000000000000000000000000000000000000000000016146110f85760405163703e46dd60e11b815260040160405180910390fd5b6000805160206146b0833981519152805460011901612e3e57604051633ee5aeb560e01b815260040160405180910390fd5b60029055565b60016000805160206146b083398151915255565b7f9016d09d72d40fdae2fd8ceac6b6234c7706214fd39c1cd1e609a0528c19930080546001600160a01b031981166001600160a01b03848116918217845560405192169182907f8be0079c531659141344cd1fd0a4f28419497f9722a3daafe3b4186f6b6457e090600090a3505050565b6000805160206146308339815191526001600160a01b038316612f0a57604051630b61174360e31b81526001600160a01b038416600482015260240161100b565b6001600160a01b038481166000818152600584016020908152604080832094881680845294825291829020805460ff191687151590811790915591519182527f17307eab39ab6107e8899845ad3d59bd9653f200f220920489ca2b5937696c31910160405180910390a350505050565b6001600160a01b0383163b15611d5457604051630a85bd0160e11b81526001600160a01b0384169063150b7a0290612fbc903390889087908790600401614570565b6020604051808303816000875af1925050508015612ff7575060408051601f3d908101601f19168201909252612ff4918101906145ad565b60015b613060573d808015613025576040519150601f19603f3d011682016040523d82523d6000602084013e61302a565b606091505b50805160000361305857604051633250574960e11b81526001600160a01b038516600482015260240161100b565b805181602001fd5b6001600160e01b03198116630a85bd0160e11b1461309c57604051633250574960e11b81526001600160a01b038516600482015260240161100b565b5050505050565b6060600680546130b29061422e565b80601f01602080910402602001604051908101604052809291908181526020018280546130de9061422e565b801561312b5780601f106131005761010080835404028352916020019161312b565b820191906000526020600020905b81548152906001019060200180831161310e57829003601f168201915b5050505050905090565b606060006131428361348a565b60010190506000816001600160401b0381111561316157613161613f67565b6040519080825280601f01601f19166020018201604052801561318b576020820181803683370190505b5090508181016020015b600019016f181899199a1a9b1b9c1cb0b131b232b360811b600a86061a8153600a850494508461319557509392505050565b60006001600160e01b031982166380ac58cd60e01b14806131f857506001600160e01b03198216635b5e139f60e01b145b80610aa857506301ffc9a760e01b6001600160e01b0319831614610aa8565b600080516020614630833981519152818061323a57506001600160a01b03831615155b156132fc57600061324a85611e71565b90506001600160a01b038416158015906132765750836001600160a01b0316816001600160a01b031614155b801561328957506132878185611dc1565b155b156132b25760405163a9fbf51f60e01b81526001600160a01b038516600482015260240161100b565b82156132fa5784866001600160a01b0316826001600160a01b03167f8c5be1e5ebec7d5bd14f71427d1e84f3dd0314c0f7b2291e5b200ac8c7c3b92560405160405180910390a45b505b600093845260040160205250506040902080546001600160a01b0319166001600160a01b0392909216919091179055565b6133378383613562565b610d526000848484612f7a565b6000805160206146908339815191525460ff166110f857604051638dfc202b60e01b815260040160405180910390fd5b600061337e611ef0565b6126f28484846135c7565b7ff0c57e16840df040f15088dc2f81fe391c3923bec73e23a9662efc9c229c6a0054600160401b900460ff166110f857604051631afcd79f60e31b815260040160405180910390fd5b6133da613389565b600080516020614630833981519152806133f48482614392565b5060018101611d548382614392565b61340b613389565b600080516020614690833981519152805460ff19169055565b611e16613389565b612e44613389565b61343d826136c0565b6040516001600160a01b038316907fbc7cd75a20ee27fd9adebab32041f755214dbc6bffa90cc0225b39da2e5c2d3b90600090a280511561348257610d528282613725565b610b7261379b565b60008072184f03e93ff9f4daa797ed6e38ed64bf6a1f0160401b83106134c95772184f03e93ff9f4daa797ed6e38ed64bf6a1f0160401b830492506040015b6d04ee2d6d415b85acef810000000083106134f5576d04ee2d6d415b85acef8100000000830492506020015b662386f26fc10000831061351357662386f26fc10000830492506010015b6305f5e100831061352b576305f5e100830492506008015b612710831061353f57612710830492506004015b60648310613551576064830492506002015b600a8310610aa85760010192915050565b6001600160a01b03821661358c57604051633250574960e11b81526000600482015260240161100b565b600061359a83836000612648565b90506001600160a01b03811615610d52576040516339e3563760e11b81526000600482015260240161100b565b6000806135d58585856137ba565b90506001600160a01b03811661365e5761365984600080516020614670833981519152805460008381527f645e039705490088daad89bae25049a34f4a9072d398537b1ab2425f24cbed0360205260408120829055600182018355919091527fa42f15e5d656f8155fd7419d740a6073999f19cd6e061449ce4a257150545bf20155565b613681565b846001600160a01b0316816001600160a01b0316146136815761368181856138c4565b6001600160a01b03851661369d5761369884613968565b6126f2565b846001600160a01b0316816001600160a01b0316146126f2576126f28585613a3f565b806001600160a01b03163b6000036136f657604051634c9c8ce360e01b81526001600160a01b038216600482015260240161100b565b60008051602061465083398151915280546001600160a01b0319166001600160a01b0392909216919091179055565b6060600080846001600160a01b03168460405161374291906145ca565b600060405180830381855af49150503d806000811461377d576040519150601f19603f3d011682016040523d82523d6000602084013e613782565b606091505b5091509150613792858383613a9a565b95945050505050565b34156110f85760405163b398979f60e01b815260040160405180910390fd5b6000600080516020614630833981519152816137d5856123df565b90506001600160a01b038416156137f1576137f1818587613af6565b6001600160a01b038116156138315761380e600086600080613217565b6001600160a01b0381166000908152600383016020526040902080546000190190555b6001600160a01b03861615613862576001600160a01b03861660009081526003830160205260409020805460010190555b600085815260028301602052604080822080546001600160a01b0319166001600160a01b038a811691821790925591518893918516917fddf252ad1be2c89b69c2b068fc378daa952ba7f163c4a11628f55a4df523b3ef91a495945050505050565b60008051602061461083398151915260006138de84611b63565b6000848152600184016020526040902054909150808214613933576001600160a01b03851660009081526020848152604080832085845282528083205484845281842081905583526001860190915290208190555b50600092835260018201602090815260408085208590556001600160a01b039095168452918252838320908352905290812055565b6000805160206146708339815191525460008051602061461083398151915290600090613997906001906145e6565b60008481526003840160205260408120546002850180549394509092849081106139c3576139c361446e565b90600052602060002001549050808460020183815481106139e6576139e661446e565b600091825260208083209091019290925582815260038601909152604080822084905586825281205560028401805480613a2257613a226145f9565b600190038181906000526020600020016000905590555050505050565b60008051602061461083398151915260006001613a5b85611b63565b613a6591906145e6565b6001600160a01b0390941660009081526020838152604080832087845282528083208690559482526001909301909252502055565b606082613aaf57613aaa82613b5a565b610d38565b8151158015613ac657506001600160a01b0384163b155b15613aef57604051639996b31560e01b81526001600160a01b038516600482015260240161100b565b5080610d38565b613b01838383613b83565b610d52576001600160a01b038316613b2f57604051637e27328960e01b81526004810182905260240161100b565b60405163177e802f60e01b81526001600160a01b03831660048201526024810182905260440161100b565b805115613b6a5780518082602001fd5b604051630a12f52160e11b815260040160405180910390fd5b60006001600160a01b038316158015906126f25750826001600160a01b0316846001600160a01b03161480613bbd5750613bbd8484611dc1565b806126f25750826001600160a01b0316613bd683611ea9565b6001600160a01b031614949350505050565b6001600160e01b031981168114611e4957600080fd5b600060208284031215613c1057600080fd5b8135610d3881613be8565b6001600160a01b0381168114611e4957600080fd5b60008060408385031215613c4357600080fd5b8235613c4e81613c1b565b946020939093013593505050565b60005b83811015613c77578181015183820152602001613c5f565b50506000910152565b60008151808452613c98816020860160208601613c5c565b601f01601f19169290920160200192915050565b602081526000610d386020830184613c80565b600060208284031215613cd157600080fd5b5035919050565b600080600060608486031215613ced57600080fd5b8335613cf881613c1b565b9250602084013591506040840135613d0f81613c1b565b809150509250925092565b600080600060608486031215613d2f57600080fd5b8335613d3a81613c1b565b92506020840135613d4a81613c1b565b929592945050506040919091013590565b60008083601f840112613d6d57600080fd5b5081356001600160401b03811115613d8457600080fd5b602083019150836020828501011115613d9c57600080fd5b9250929050565b60008060008060008060a08789031215613dbc57600080fd5b8635613dc781613c1b565b95506020870135613dd781613c1b565b9450604087013593506060870135925060808701356001600160401b03811115613e0057600080fd5b613e0c89828a01613d5b565b979a9699509497509295939492505050565b60008060008060008060a08789031215613e3757600080fd5b863595506020870135613e4981613c1b565b94506040870135613e5981613c1b565b93506060870135925060808701356001600160401b03811115613e0057600080fd5b600080600080600080600060c0888a031215613e9657600080fd5b8735613ea181613c1b565b96506020880135613eb181613c1b565b9550604088013594506060880135613ec881613c1b565b93506080880135925060a08801356001600160401b03811115613eea57600080fd5b613ef68a828b01613d5b565b989b979a50959850939692959293505050565b60008060408385031215613f1c57600080fd5b8235613f2781613c1b565b91506020830135613f3781613c1b565b809150509250929050565b60008060408385031215613f5557600080fd5b823591506020830135613f3781613c1b565b634e487b7160e01b600052604160045260246000fd5b60006001600160401b0380841115613f9757613f97613f67565b604051601f8501601f19908116603f01168101908282118183101715613fbf57613fbf613f67565b81604052809350858152868686011115613fd857600080fd5b858560208301376000602087830101525050509392505050565b600082601f83011261400357600080fd5b610d3883833560208501613f7d565b6000806040838503121561402557600080fd5b823561403081613c1b565b915060208301356001600160401b0381111561404b57600080fd5b61405785828601613ff2565b9150509250929050565b60006020828403121561407357600080fd5b81356001600160401b0381111561408957600080fd5b8201601f8101841361409a57600080fd5b6126f284823560208401613f7d565b6000602082840312156140bb57600080fd5b8135610d3881613c1b565b600080602083850312156140d957600080fd5b82356001600160401b03808211156140f057600080fd5b818501915085601f83011261410457600080fd5b81358181111561411357600080fd5b8660208260051b850101111561412857600080fd5b60209290920196919550909350505050565b6020808252825182820181905260009190848201906040850190845b8181101561417b5783516001600160a01b031683529284019291840191600101614156565b50909695505050505050565b8015158114611e4957600080fd5b600080604083850312156141a857600080fd5b82356141b381613c1b565b91506020830135613f3781614187565b600080600080608085870312156141d957600080fd5b84356141e481613c1b565b935060208501356141f481613c1b565b92506040850135915060608501356001600160401b0381111561421657600080fd5b61422287828801613ff2565b91505092959194509250565b600181811c9082168061424257607f821691505b60208210810361426257634e487b7160e01b600052602260045260246000fd5b50919050565b60006020828403121561427a57600080fd5b8151610d3881614187565b81835281816020850137506000828201602090810191909152601f909101601f19169091010190565b60018060a01b0385168152606060208201526000845160c060608401526142d9610120840182613c80565b90506020860151605f19808584030160808601526142f78383613c80565b925060408801519150808584030160a0860152506143158282613c80565b915050606086015160c0840152608086015160e084015260a086015161010084015282810360408401526110c1818587614285565b601f821115610d52576000816000526020600020601f850160051c810160208610156143735750805b601f850160051c820191505b818110156119275782815560010161437f565b81516001600160401b038111156143ab576143ab613f67565b6143bf816143b9845461422e565b8461434a565b602080601f8311600181146143f457600084156143dc5750858301515b600019600386901b1c1916600185901b178555611927565b600085815260208120601f198616915b8281101561442357888601518255948401946001909101908401614404565b50858210156144415787850151600019600388901b60f8161c191681555b5050505050600190811b01905550565b60006020828403121561446357600080fd5b8151610d3881613c1b565b634e487b7160e01b600052603260045260246000fd5b60008351614496818460208801613c5c565b8351908301906144aa818360208801613c5c565b01949350505050565b634e487b7160e01b600052601160045260246000fd5b6000600182016144db576144db6144b3565b5060010190565b6000604082840312156144f457600080fd5b604051604081018181106001600160401b038211171561451657614516613f67565b604052825161452481614187565b8152602083015161453481614187565b60208201529392505050565b60008161454f5761454f6144b3565b506000190190565b60006020828403121561456957600080fd5b5051919050565b6001600160a01b03858116825284166020820152604081018390526080606082018190526000906145a390830184613c80565b9695505050505050565b6000602082840312156145bf57600080fd5b8151610d3881613be8565b600082516145dc818460208701613c5c565b9190910192915050565b81810381811115610aa857610aa86144b3565b634e487b7160e01b600052603160045260246000fdfe645e039705490088daad89bae25049a34f4a9072d398537b1ab2425f24cbed0080bb2b638cc20bc4d0a60d66940f3ab4a00c1d7b313497ca82fb0b4ab0079300360894a13ba1a3210667c828492db98dca3e2076cc3735a920a3ca505d382bbc645e039705490088daad89bae25049a34f4a9072d398537b1ab2425f24cbed02cd5ed15c6e187e77e9aee88184c21f4f2182ab5827cb3b7e07fbedcd63f033009b779b17422d0df92223018b32b4d1fa46e071723d6817e2486d003becc55f00a2646970667358221220838f2a0e12431ecc2f655b379dd2da6d83e6f96d432badf7bb3cef9ce6b3ef9464736f6c63430008170033",
  "linkReferences": {},
  "deployedLinkReferences": {}
}